{
  "address": "0x5FbDB2315678afecb367f032d93F642f64180aa3",
  "abi": [
    {
      "inputs": [],
      "stateMutability": "nonpayable",
      "type": "constructor"
    },
    {
      "anonymous": false,
      "inputs": [
        {
          "indexed": false,
          "internalType": "uint256",
          "name": "productID",
          "type": "uint256"
        },
        {
          "indexed": false,
          "internalType": "address",
          "name": "sellerAddress",
          "type": "address"
        },
        {
          "indexed": false,
          "internalType": "address",
          "name": "buyerAddress",
          "type": "address"
        },
        {
          "indexed": false,
          "internalType": "uint256",
          "name": "buyerRating",
          "type": "uint256"
        },
        {
          "indexed": false,
          "internalType": "uint256",
          "name": "timeStamp",
          "type": "uint256"
        },
        {
          "indexed": false,
          "internalType": "uint256",
          "name": "finalProductRating",
          "type": "uint256"
        },
        {
          "indexed": false,
          "internalType": "uint256",
          "name": "totalReviews",
          "type": "uint256"
        }
      ],
      "name": "buyerReviewEvent",
      "type": "event"
    },
    {
      "anonymous": false,
      "inputs": [
        {
          "indexed": false,
          "internalType": "string",
          "name": "buyerName",
          "type": "string"
        },
        {
          "indexed": false,
          "internalType": "address",
          "name": "buyerAddress",
          "type": "address"
        },
        {
          "indexed": false,
          "internalType": "uint256",
          "name": "buyerID",
          "type": "uint256"
        },
        {
          "indexed": false,
          "internalType": "uint256",
          "name": "repScore",
          "type": "uint256"
        }
      ],
      "name": "createBuyerEvent",
      "type": "event"
    },
    {
      "anonymous": false,
      "inputs": [
        {
          "indexed": false,
          "internalType": "string",
          "name": "sellerName",
          "type": "string"
        },
        {
          "indexed": false,
          "internalType": "address",
          "name": "sellerAddress",
          "type": "address"
        },
        {
          "indexed": false,
          "internalType": "uint256",
          "name": "sellerID",
          "type": "uint256"
        }
      ],
      "name": "createSellerEvent",
      "type": "event"
    },
    {
      "anonymous": false,
      "inputs": [
        {
          "indexed": false,
          "internalType": "uint256",
          "name": "txnID",
          "type": "uint256"
        },
        {
          "indexed": false,
          "internalType": "uint256",
          "name": "productID",
          "type": "uint256"
        },
        {
          "indexed": false,
          "internalType": "address",
          "name": "sellerAddress",
          "type": "address"
        },
        {
          "indexed": false,
          "internalType": "address",
          "name": "buyerAddress",
          "type": "address"
        },
        {
          "indexed": false,
          "internalType": "uint256",
          "name": "price",
          "type": "uint256"
        }
      ],
      "name": "purchasedProductsEvent",
      "type": "event"
    },
    {
      "anonymous": false,
      "inputs": [
        {
          "indexed": false,
          "internalType": "string",
          "name": "productName",
          "type": "string"
        },
        {
          "indexed": false,
          "internalType": "uint256",
          "name": "price",
          "type": "uint256"
        },
        {
          "indexed": false,
          "internalType": "uint256",
          "name": "productID",
          "type": "uint256"
        },
        {
          "indexed": false,
          "internalType": "address",
          "name": "sellerAddress",
          "type": "address"
        },
        {
          "indexed": false,
          "internalType": "uint256",
          "name": "sellerID",
          "type": "uint256"
        }
      ],
      "name": "uploadProductEvent",
      "type": "event"
    },
    {
      "inputs": [
        {
          "internalType": "uint256",
          "name": "buyerRating",
          "type": "uint256"
        },
        {
          "internalType": "uint256",
          "name": "txnID",
          "type": "uint256"
        }
      ],
      "name": "buyerReview",
      "outputs": [],
      "stateMutability": "nonpayable",
      "type": "function"
    },
    {
      "inputs": [
        {
          "internalType": "address",
          "name": "",
          "type": "address"
        }
      ],
      "name": "buyersList",
      "outputs": [
        {
          "internalType": "address",
          "name": "buyerAddress",
          "type": "address"
        },
        {
          "internalType": "string",
          "name": "buyerName",
          "type": "string"
        },
        {
          "internalType": "uint256",
          "name": "buyerID",
          "type": "uint256"
        },
        {
          "internalType": "bool",
          "name": "isExist",
          "type": "bool"
        },
        {
          "internalType": "uint256",
          "name": "numOfTxn",
          "type": "uint256"
        },
        {
          "internalType": "uint256",
          "name": "numOfReviewsGiven",
          "type": "uint256"
        },
        {
          "internalType": "uint256",
          "name": "lastReviewTime",
          "type": "uint256"
        },
        {
          "internalType": "uint256",
          "name": "repScore",
          "type": "uint256"
        },
        {
          "internalType": "uint256",
          "name": "X_Value",
          "type": "uint256"
        }
      ],
      "stateMutability": "view",
      "type": "function"
    },
    {
      "inputs": [
        {
          "internalType": "string",
          "name": "_buyerName",
          "type": "string"
        }
      ],
      "name": "createBuyer",
      "outputs": [],
      "stateMutability": "nonpayable",
      "type": "function"
    },
    {
      "inputs": [
        {
          "internalType": "string",
          "name": "inputSellerName",
          "type": "string"
        }
      ],
      "name": "createSeller",
      "outputs": [],
      "stateMutability": "nonpayable",
      "type": "function"
    },
    {
      "inputs": [
        {
          "internalType": "uint256",
          "name": "productID",
          "type": "uint256"
        },
        {
          "internalType": "address",
          "name": "sellerAddress",
          "type": "address"
        }
      ],
      "name": "purchaseProduct",
      "outputs": [],
      "stateMutability": "payable",
      "type": "function"
    },
    {
      "inputs": [
        {
          "internalType": "address",
          "name": "_buyerAddress",
          "type": "address"
        }
      ],
      "name": "retrieveBuyerID",
      "outputs": [
        {
          "internalType": "uint256",
          "name": "",
          "type": "uint256"
        }
      ],
      "stateMutability": "view",
      "type": "function"
    },
    {
      "inputs": [
        {
          "internalType": "address",
          "name": "buyerAddress",
          "type": "address"
        }
      ],
      "name": "retrieveBuyerName",
      "outputs": [
        {
          "internalType": "string",
          "name": "",
          "type": "string"
        }
      ],
      "stateMutability": "view",
      "type": "function"
    },
    {
      "inputs": [
        {
          "internalType": "address",
          "name": "_sellerAddress",
          "type": "address"
        }
      ],
      "name": "retrieveSellerID",
      "outputs": [
        {
          "internalType": "uint256",
          "name": "",
          "type": "uint256"
        }
      ],
      "stateMutability": "view",
      "type": "function"
    },
    {
      "inputs": [
        {
          "internalType": "address",
          "name": "_sellerAddress",
          "type": "address"
        }
      ],
      "name": "retrieveSellerName",
      "outputs": [
        {
          "internalType": "string",
          "name": "",
          "type": "string"
        }
      ],
      "stateMutability": "view",
      "type": "function"
    },
    {
      "inputs": [],
      "name": "retrieveTotalBuyers",
      "outputs": [
        {
          "internalType": "uint256",
          "name": "",
          "type": "uint256"
        }
      ],
      "stateMutability": "view",
      "type": "function"
    },
    {
      "inputs": [],
      "name": "retrieveTotalSellers",
      "outputs": [
        {
          "internalType": "uint256",
          "name": "",
          "type": "uint256"
        }
      ],
      "stateMutability": "view",
      "type": "function"
    },
    {
      "inputs": [
        {
          "internalType": "address",
          "name": "",
          "type": "address"
        }
      ],
      "name": "sellersList",
      "outputs": [
        {
          "internalType": "address",
          "name": "sellerAddress",
          "type": "address"
        },
        {
          "internalType": "string",
          "name": "sellerName",
          "type": "string"
        },
        {
          "internalType": "uint256",
          "name": "sellerID",
          "type": "uint256"
        },
        {
          "internalType": "bool",
          "name": "isExist",
          "type": "bool"
        },
        {
          "internalType": "uint256",
          "name": "totalProducts",
          "type": "uint256"
        },
        {
          "internalType": "uint256",
          "name": "totalRevenue",
          "type": "uint256"
        },
        {
          "internalType": "uint256",
          "name": "numOfSales",
          "type": "uint256"
        }
      ],
      "stateMutability": "view",
      "type": "function"
    },
    {
      "inputs": [
        {
          "internalType": "string",
          "name": "_productName",
          "type": "string"
        },
        {
          "internalType": "uint256",
          "name": "price",
          "type": "uint256"
        }
      ],
      "name": "uploadProduct",
      "outputs": [],
      "stateMutability": "nonpayable",
      "type": "function"
    },
    {
      "inputs": [
        {
          "internalType": "address",
          "name": "_sellerAddress",
          "type": "address"
        },
        {
          "internalType": "uint256",
          "name": "_productID",
          "type": "uint256"
        }
      ],
      "name": "viewProductName",
      "outputs": [
        {
          "internalType": "string",
          "name": "",
          "type": "string"
        }
      ],
      "stateMutability": "view",
      "type": "function"
    },
    {
      "inputs": [
        {
          "internalType": "address",
          "name": "_sellerAddress",
          "type": "address"
        },
        {
          "internalType": "uint256",
          "name": "_productID",
          "type": "uint256"
        }
      ],
      "name": "viewProductPrice",
      "outputs": [
        {
          "internalType": "uint256",
          "name": "",
          "type": "uint256"
        }
      ],
      "stateMutability": "view",
      "type": "function"
    },
    {
      "inputs": [
        {
          "internalType": "address",
          "name": "_sellerAddress",
          "type": "address"
        },
        {
          "internalType": "uint256",
          "name": "_productID",
          "type": "uint256"
        }
      ],
      "name": "viewProductReview",
      "outputs": [
        {
          "internalType": "uint256",
          "name": "",
          "type": "uint256"
        }
      ],
      "stateMutability": "view",
      "type": "function"
    },
    {
      "inputs": [
        {
          "internalType": "address",
          "name": "_buyerAddress",
          "type": "address"
        },
        {
          "internalType": "uint256",
          "name": "_txnID",
          "type": "uint256"
        }
      ],
      "name": "viewTransactions_ProductID",
      "outputs": [
        {
          "internalType": "uint256",
          "name": "",
          "type": "uint256"
        }
      ],
      "stateMutability": "view",
      "type": "function"
    },
    {
      "inputs": [
        {
          "internalType": "address",
          "name": "_buyerAddress",
          "type": "address"
        },
        {
          "internalType": "uint256",
          "name": "_txnID",
          "type": "uint256"
        }
      ],
      "name": "viewTransactions_Reviewed",
      "outputs": [
        {
          "internalType": "bool",
          "name": "",
          "type": "bool"
        }
      ],
      "stateMutability": "view",
      "type": "function"
    },
    {
      "inputs": [
        {
          "internalType": "address",
          "name": "_buyerAddress",
          "type": "address"
        },
        {
          "internalType": "uint256",
          "name": "_txnID",
          "type": "uint256"
        }
      ],
      "name": "viewTransactions_SellerID",
      "outputs": [
        {
          "internalType": "uint256",
          "name": "",
          "type": "uint256"
        }
      ],
      "stateMutability": "view",
      "type": "function"
    }
  ],
  "transactionHash": "0x20390e20521d8762f01abd221551c4da2d834e07489e0c1848786f01410dd550",
  "args": [],
  "numDeployments": 1,
  "solcInputHash": "f80d6b08dab08b823880c2bbd128c5fe",
  "bytecode": "0x6101c0604052600080556000600155603260809081525061012c60a09081525061038460c090815250600160e09081525060326101009081525060646101209081525061012c61014090815250606361016090815250610fa061018090815250600c6101a0908152503480156200007557600080fd5b5060405162000084906200014b565b604051809103906000f080158015620000a1573d6000803e3d6000fd5b50600260006101000a81548173ffffffffffffffffffffffffffffffffffffffff021916908373ffffffffffffffffffffffffffffffffffffffff160217905550600260009054906101000a900473ffffffffffffffffffffffffffffffffffffffff16600360006101000a81548173ffffffffffffffffffffffffffffffffffffffff021916908373ffffffffffffffffffffffffffffffffffffffff16021790555062000159565b6115558062004c8683390190565b60805160a05160c05160e05161010051610120516101405161016051610180516101a051614aaa620001dc600039600081816114310152612f9601526000612f7501526000612f54015260006130a601526000613085015260006130640152600061317301526000613281015260006132600152600061323f0152614aaa6000f3fe6080604052600436106101145760003560e01c80638042659e116100a0578063ce4580c911610064578063ce4580c91461042f578063db5827831461046c578063eacbdb34146104a9578063f881f000146104d2578063fb1a1790146104ee57610114565b80638042659e1461030a5780639a7ff3f2146103475780639f40f36214610370578063bba97d76146103ad578063cc6c41e6146103ea57610114565b8063561cf7f5116100e7578063561cf7f5146101ff57806359fa878e1461023c57806363abd5cf146102795780637a0039ba146102a25780637fd67647146102df57610114565b806312f524e01461011957806316415a02146101565780633d1c1c53146101995780634c5d2c8b146101c2575b600080fd5b34801561012557600080fd5b50610140600480360381019061013b919061349c565b610519565b60405161014d91906134eb565b60405180910390f35b34801561016257600080fd5b5061017d60048036038101906101789190613506565b6106ac565b60405161019097969594939291906135ed565b60405180910390f35b3480156101a557600080fd5b506101c060048036038101906101bb9190613798565b6107a3565b005b3480156101ce57600080fd5b506101e960048036038101906101e4919061349c565b610acb565b6040516101f691906134eb565b60405180910390f35b34801561020b57600080fd5b5061022660048036038101906102219190613506565b610ccc565b60405161023391906134eb565b60405180910390f35b34801561024857600080fd5b50610263600480360381019061025e9190613506565b610da7565b60405161027091906134eb565b60405180910390f35b34801561028557600080fd5b506102a0600480360381019061029b91906137f4565b610e82565b005b3480156102ae57600080fd5b506102c960048036038101906102c4919061349c565b6119d2565b6040516102d69190613834565b60405180910390f35b3480156102eb57600080fd5b506102f4611b72565b60405161030191906134eb565b60405180910390f35b34801561031657600080fd5b50610331600480360381019061032c9190613506565b611b7c565b60405161033e919061384f565b60405180910390f35b34801561035357600080fd5b5061036e60048036038101906103699190613871565b611cdf565b005b34801561037c57600080fd5b506103976004803603810190610392919061349c565b611f07565b6040516103a4919061384f565b60405180910390f35b3480156103b957600080fd5b506103d460048036038101906103cf9190613506565b612122565b6040516103e1919061384f565b60405180910390f35b3480156103f657600080fd5b50610411600480360381019061040c9190613506565b6121f6565b604051610426999897969594939291906138ba565b60405180910390f35b34801561043b57600080fd5b506104566004803603810190610451919061349c565b6122f9565b60405161046391906134eb565b60405180910390f35b34801561047857600080fd5b50610493600480360381019061048e919061349c565b61248c565b6040516104a091906134eb565b60405180910390f35b3480156104b557600080fd5b506104d060048036038101906104cb9190613871565b61261f565b005b6104ec60048036038101906104e7919061394e565b612829565b005b3480156104fa57600080fd5b50610503612ee2565b60405161051091906134eb565b60405180910390f35b6000600460008473ffffffffffffffffffffffffffffffffffffffff1673ffffffffffffffffffffffffffffffffffffffff16815260200190815260200160002060030160009054906101000a900460ff166105aa576040517f08c379a00000000000000000000000000000000000000000000000000000000081526004016105a190613a00565b60405180910390fd5b600460008473ffffffffffffffffffffffffffffffffffffffff1673ffffffffffffffffffffffffffffffffffffffff168152602001908152602001600020600401600083815260200190815260200160002060050160009054906101000a900460ff1661064d576040517f08c379a000000000000000000000000000000000000000000000000000000000815260040161064490613a92565b60405180910390fd5b600460008473ffffffffffffffffffffffffffffffffffffffff1673ffffffffffffffffffffffffffffffffffffffff168152602001908152602001600020600401600083815260200190815260200160002060030154905092915050565b60046020528060005260406000206000915090508060000160009054906101000a900473ffffffffffffffffffffffffffffffffffffffff16908060010180546106f590613ae1565b80601f016020809104026020016040519081016040528092919081815260200182805461072190613ae1565b801561076e5780601f106107435761010080835404028352916020019161076e565b820191906000526020600020905b81548152906001019060200180831161075157829003601f168201915b5050505050908060020154908060030160009054906101000a900460ff16908060050154908060060154908060070154905087565b600460003373ffffffffffffffffffffffffffffffffffffffff1673ffffffffffffffffffffffffffffffffffffffff16815260200190815260200160002060030160009054906101000a900460ff16610832576040517f08c379a000000000000000000000000000000000000000000000000000000000815260040161082990613b84565b60405180910390fd5b6000600460003373ffffffffffffffffffffffffffffffffffffffff1673ffffffffffffffffffffffffffffffffffffffff16815260200190815260200160002090506000816004016000836005016000815461088e90613bd3565b9190508190558152602001908152602001600020905081600501548160000181905550838160010190816108c29190613dc7565b50338160020160006101000a81548173ffffffffffffffffffffffffffffffffffffffff021916908373ffffffffffffffffffffffffffffffffffffffff1602179055508281600301819055506000816004018190555060008160070181905550670de0b6b3a7640000816008018190555060018160050160006101000a81548160ff021916908315150217905550808260040160008460050154815260200190815260200160002060008201548160000155600182018160010190816109899190613eaf565b506002820160009054906101000a900473ffffffffffffffffffffffffffffffffffffffff168160020160006101000a81548173ffffffffffffffffffffffffffffffffffffffff021916908373ffffffffffffffffffffffffffffffffffffffff16021790555060038201548160030155600482015481600401556005820160009054906101000a900460ff168160050160006101000a81548160ff0219169083151502179055506006820154816006015560078201548160070155600882015481600801559050507f827f91e7f4fbb905bd650f742c7af7b1b989f3eb56bb80e8faf09038583b72ef81600101826003015483600001548460020160009054906101000a900473ffffffffffffffffffffffffffffffffffffffff168660020154604051610abd95949392919061401b565b60405180910390a150505050565b6000600560008473ffffffffffffffffffffffffffffffffffffffff1673ffffffffffffffffffffffffffffffffffffffff16815260200190815260200160002060030160009054906101000a900460ff16610b5c576040517f08c379a0000000000000000000000000000000000000000000000000000000008152600401610b53906140e7565b60405180910390fd5b600560008473ffffffffffffffffffffffffffffffffffffffff1673ffffffffffffffffffffffffffffffffffffffff168152602001908152602001600020600401600083815260200190815260200160002060040160159054906101000a900460ff16610bff576040517f08c379a0000000000000000000000000000000000000000000000000000000008152600401610bf690614179565b60405180910390fd5b6000600560008573ffffffffffffffffffffffffffffffffffffffff1673ffffffffffffffffffffffffffffffffffffffff168152602001908152602001600020600401600084815260200190815260200160002060040160009054906101000a900473ffffffffffffffffffffffffffffffffffffffff1690506000600460008373ffffffffffffffffffffffffffffffffffffffff1673ffffffffffffffffffffffffffffffffffffffff168152602001908152602001600020600201549050809250505092915050565b6000600460008373ffffffffffffffffffffffffffffffffffffffff1673ffffffffffffffffffffffffffffffffffffffff16815260200190815260200160002060030160009054906101000a900460ff16610d5d576040517f08c379a0000000000000000000000000000000000000000000000000000000008152600401610d5490613a00565b60405180910390fd5b600460008373ffffffffffffffffffffffffffffffffffffffff1673ffffffffffffffffffffffffffffffffffffffff168152602001908152602001600020600201549050919050565b6000600560008373ffffffffffffffffffffffffffffffffffffffff1673ffffffffffffffffffffffffffffffffffffffff16815260200190815260200160002060030160009054906101000a900460ff16610e38576040517f08c379a0000000000000000000000000000000000000000000000000000000008152600401610e2f906140e7565b60405180910390fd5b600560008373ffffffffffffffffffffffffffffffffffffffff1673ffffffffffffffffffffffffffffffffffffffff168152602001908152602001600020600201549050919050565b600560003373ffffffffffffffffffffffffffffffffffffffff1673ffffffffffffffffffffffffffffffffffffffff16815260200190815260200160002060030160009054906101000a900460ff16610f11576040517f08c379a0000000000000000000000000000000000000000000000000000000008152600401610f08906141e5565b60405180910390fd5b600560003373ffffffffffffffffffffffffffffffffffffffff1673ffffffffffffffffffffffffffffffffffffffff168152602001908152602001600020600401600082815260200190815260200160002060040160159054906101000a900460ff16610fb4576040517f08c379a0000000000000000000000000000000000000000000000000000000008152600401610fab90614277565b60405180910390fd5b60001515600560003373ffffffffffffffffffffffffffffffffffffffff1673ffffffffffffffffffffffffffffffffffffffff168152602001908152602001600020600401600083815260200190815260200160002060040160149054906101000a900460ff1615151461105e576040517f08c379a000000000000000000000000000000000000000000000000000000000815260040161105590614309565b60405180910390fd5b6000600560003373ffffffffffffffffffffffffffffffffffffffff1673ffffffffffffffffffffffffffffffffffffffff168152602001908152602001600020600401600083815260200190815260200160002060040160009054906101000a900473ffffffffffffffffffffffffffffffffffffffff1690506000600560003373ffffffffffffffffffffffffffffffffffffffff1673ffffffffffffffffffffffffffffffffffffffff16815260200190815260200160002060040160008481526020019081526020016000206003015490506000600460008473ffffffffffffffffffffffffffffffffffffffff1673ffffffffffffffffffffffffffffffffffffffff16815260200190815260200160002060040160008381526020019081526020016000206003015490506000603c600560003373ffffffffffffffffffffffffffffffffffffffff1673ffffffffffffffffffffffffffffffffffffffff16815260200190815260200160002060070154426111e19190614329565b6111eb919061438c565b9050600080600560003373ffffffffffffffffffffffffffffffffffffffff1673ffffffffffffffffffffffffffffffffffffffff1681526020019081526020016000206005015490505b60018110611426578573ffffffffffffffffffffffffffffffffffffffff16600560003373ffffffffffffffffffffffffffffffffffffffff1673ffffffffffffffffffffffffffffffffffffffff168152602001908152602001600020600401600089815260200190815260200160002060040160009054906101000a900473ffffffffffffffffffffffffffffffffffffffff1673ffffffffffffffffffffffffffffffffffffffff16148015611344575084600560003373ffffffffffffffffffffffffffffffffffffffff1673ffffffffffffffffffffffffffffffffffffffff168152602001908152602001600020600401600089815260200190815260200160002060030154145b80156113b05750600560003373ffffffffffffffffffffffffffffffffffffffff1673ffffffffffffffffffffffffffffffffffffffff168152602001908152602001600020600401600088815260200190815260200160002060040160149054906101000a900460ff165b1561141357600560003373ffffffffffffffffffffffffffffffffffffffff1673ffffffffffffffffffffffffffffffffffffffff1681526020019081526020016000206004016000888152602001908152602001600020600201549150611426565b808061141e906143bd565b915050611236565b5060008103611457577f00000000000000000000000000000000000000000000000000000000000000009050611472565b603c81426114659190614329565b61146f919061438c565b90505b6114c0600560003373ffffffffffffffffffffffffffffffffffffffff1673ffffffffffffffffffffffffffffffffffffffff16815260200190815260200160002060090154838584612eeb565b600560003373ffffffffffffffffffffffffffffffffffffffff1673ffffffffffffffffffffffffffffffffffffffff16815260200190815260200160002060090181905550611551600560003373ffffffffffffffffffffffffffffffffffffffff1673ffffffffffffffffffffffffffffffffffffffff16815260200190815260200160002060090154613022565b600560003373ffffffffffffffffffffffffffffffffffffffff1673ffffffffffffffffffffffffffffffffffffffff16815260200190815260200160002060080181905550611691600460008773ffffffffffffffffffffffffffffffffffffffff1673ffffffffffffffffffffffffffffffffffffffff168152602001908152602001600020600401600086815260200190815260200160002060080154600560003373ffffffffffffffffffffffffffffffffffffffff1673ffffffffffffffffffffffffffffffffffffffff1681526020019081526020016000206008015489600460008a73ffffffffffffffffffffffffffffffffffffffff1673ffffffffffffffffffffffffffffffffffffffff16815260200190815260200160002060040160008981526020019081526020016000206007015461312d565b600460008773ffffffffffffffffffffffffffffffffffffffff1673ffffffffffffffffffffffffffffffffffffffff16815260200190815260200160002060040160008681526020019081526020016000206008018190555061174a600460008773ffffffffffffffffffffffffffffffffffffffff1673ffffffffffffffffffffffffffffffffffffffff1681526020019081526020016000206004016000868152602001908152602001600020600801546131fd565b600460008773ffffffffffffffffffffffffffffffffffffffff1673ffffffffffffffffffffffffffffffffffffffff168152602001908152602001600020600401600086815260200190815260200160002060070181905550600460008673ffffffffffffffffffffffffffffffffffffffff1673ffffffffffffffffffffffffffffffffffffffff1681526020019081526020016000206004016000858152602001908152602001600020600601600081548092919061180b90613bd3565b91905055506001600560003373ffffffffffffffffffffffffffffffffffffffff1673ffffffffffffffffffffffffffffffffffffffff168152602001908152602001600020600401600088815260200190815260200160002060040160146101000a81548160ff02191690831515021790555042600560003373ffffffffffffffffffffffffffffffffffffffff1673ffffffffffffffffffffffffffffffffffffffff1681526020019081526020016000206004016000888152602001908152602001600020600201819055507fc8eace918d73b100093f09590ebd3bd2e45fcbe6f7faf08b0a90855ea61edf858486338a42600460008c73ffffffffffffffffffffffffffffffffffffffff1673ffffffffffffffffffffffffffffffffffffffff16815260200190815260200160002060040160008b815260200190815260200160002060070154600460008d73ffffffffffffffffffffffffffffffffffffffff1673ffffffffffffffffffffffffffffffffffffffff16815260200190815260200160002060040160008c8152602001908152602001600020600601546040516119c197969594939291906143e6565b60405180910390a150505050505050565b6000600560008473ffffffffffffffffffffffffffffffffffffffff1673ffffffffffffffffffffffffffffffffffffffff16815260200190815260200160002060030160009054906101000a900460ff16611a63576040517f08c379a0000000000000000000000000000000000000000000000000000000008152600401611a5a906140e7565b60405180910390fd5b600560008473ffffffffffffffffffffffffffffffffffffffff1673ffffffffffffffffffffffffffffffffffffffff168152602001908152602001600020600401600083815260200190815260200160002060040160159054906101000a900460ff16611b06576040517f08c379a0000000000000000000000000000000000000000000000000000000008152600401611afd90614179565b60405180910390fd5b600560008473ffffffffffffffffffffffffffffffffffffffff1673ffffffffffffffffffffffffffffffffffffffff168152602001908152602001600020600401600083815260200190815260200160002060040160149054906101000a900460ff16905092915050565b6000600154905090565b6060600460008373ffffffffffffffffffffffffffffffffffffffff1673ffffffffffffffffffffffffffffffffffffffff16815260200190815260200160002060030160009054906101000a900460ff16611c0d576040517f08c379a0000000000000000000000000000000000000000000000000000000008152600401611c0490613a00565b60405180910390fd5b600460008373ffffffffffffffffffffffffffffffffffffffff1673ffffffffffffffffffffffffffffffffffffffff1681526020019081526020016000206001018054611c5a90613ae1565b80601f0160208091040260200160405190810160405280929190818152602001828054611c8690613ae1565b8015611cd35780601f10611ca857610100808354040283529160200191611cd3565b820191906000526020600020905b815481529060010190602001808311611cb657829003601f168201915b50505050509050919050565b600460003373ffffffffffffffffffffffffffffffffffffffff1673ffffffffffffffffffffffffffffffffffffffff16815260200190815260200160002060030160009054906101000a900460ff1615611d6f576040517f08c379a0000000000000000000000000000000000000000000000000000000008152600401611d66906144c7565b60405180910390fd5b6000600460003373ffffffffffffffffffffffffffffffffffffffff1673ffffffffffffffffffffffffffffffffffffffff1681526020019081526020016000209050338160000160006101000a81548173ffffffffffffffffffffffffffffffffffffffff021916908373ffffffffffffffffffffffffffffffffffffffff16021790555081816001019081611e069190613dc7565b506000808154611e1590613bd3565b919050819055816002018190555060018160030160006101000a81548160ff0219169083151502179055506000816005018190555060008160060181905550600081600701819055507f2daf7e02bff4313b1e326e8f126cffd3ff7c437229109ce78a53951ac8d70638816001018260000160009054906101000a900473ffffffffffffffffffffffffffffffffffffffff168360020154604051611ebc939291906144e7565b60405180910390a1611f036040518060400160405280601281526020017f53656c6c657220437265617465642061743a000000000000000000000000000081525033613308565b5050565b6060600460008473ffffffffffffffffffffffffffffffffffffffff1673ffffffffffffffffffffffffffffffffffffffff16815260200190815260200160002060030160009054906101000a900460ff16611f98576040517f08c379a0000000000000000000000000000000000000000000000000000000008152600401611f8f90613a00565b60405180910390fd5b600460008473ffffffffffffffffffffffffffffffffffffffff1673ffffffffffffffffffffffffffffffffffffffff168152602001908152602001600020600401600083815260200190815260200160002060050160009054906101000a900460ff1661203b576040517f08c379a000000000000000000000000000000000000000000000000000000000815260040161203290614597565b60405180910390fd5b600460008473ffffffffffffffffffffffffffffffffffffffff1673ffffffffffffffffffffffffffffffffffffffff1681526020019081526020016000206004016000838152602001908152602001600020600101805461209c90613ae1565b80601f01602080910402602001604051908101604052809291908181526020018280546120c890613ae1565b80156121155780601f106120ea57610100808354040283529160200191612115565b820191906000526020600020905b8154815290600101906020018083116120f857829003601f168201915b5050505050905092915050565b6060600560008373ffffffffffffffffffffffffffffffffffffffff1673ffffffffffffffffffffffffffffffffffffffff168152602001908152602001600020600101805461217190613ae1565b80601f016020809104026020016040519081016040528092919081815260200182805461219d90613ae1565b80156121ea5780601f106121bf576101008083540402835291602001916121ea565b820191906000526020600020905b8154815290600101906020018083116121cd57829003601f168201915b50505050509050919050565b60056020528060005260406000206000915090508060000160009054906101000a900473ffffffffffffffffffffffffffffffffffffffff169080600101805461223f90613ae1565b80601f016020809104026020016040519081016040528092919081815260200182805461226b90613ae1565b80156122b85780601f1061228d576101008083540402835291602001916122b8565b820191906000526020600020905b81548152906001019060200180831161229b57829003601f168201915b5050505050908060020154908060030160009054906101000a900460ff16908060050154908060060154908060070154908060080154908060090154905089565b6000600560008473ffffffffffffffffffffffffffffffffffffffff1673ffffffffffffffffffffffffffffffffffffffff16815260200190815260200160002060030160009054906101000a900460ff1661238a576040517f08c379a0000000000000000000000000000000000000000000000000000000008152600401612381906140e7565b60405180910390fd5b600560008473ffffffffffffffffffffffffffffffffffffffff1673ffffffffffffffffffffffffffffffffffffffff168152602001908152602001600020600401600083815260200190815260200160002060040160159054906101000a900460ff1661242d576040517f08c379a000000000000000000000000000000000000000000000000000000000815260040161242490614179565b60405180910390fd5b600560008473ffffffffffffffffffffffffffffffffffffffff1673ffffffffffffffffffffffffffffffffffffffff168152602001908152602001600020600401600083815260200190815260200160002060030154905092915050565b6000600460008473ffffffffffffffffffffffffffffffffffffffff1673ffffffffffffffffffffffffffffffffffffffff16815260200190815260200160002060030160009054906101000a900460ff1661251d576040517f08c379a000000000000000000000000000000000000000000000000000000000815260040161251490613a00565b60405180910390fd5b600460008473ffffffffffffffffffffffffffffffffffffffff1673ffffffffffffffffffffffffffffffffffffffff168152602001908152602001600020600401600083815260200190815260200160002060050160009054906101000a900460ff166125c0576040517f08c379a00000000000000000000000000000000000000000000000000000000081526004016125b790614597565b60405180910390fd5b600460008473ffffffffffffffffffffffffffffffffffffffff1673ffffffffffffffffffffffffffffffffffffffff168152602001908152602001600020600401600083815260200190815260200160002060070154905092915050565b600560003373ffffffffffffffffffffffffffffffffffffffff1673ffffffffffffffffffffffffffffffffffffffff16815260200190815260200160002060030160009054906101000a900460ff16156126af576040517f08c379a00000000000000000000000000000000000000000000000000000000081526004016126a690614629565b60405180910390fd5b6000600560003373ffffffffffffffffffffffffffffffffffffffff1673ffffffffffffffffffffffffffffffffffffffff1681526020019081526020016000209050338160000160006101000a81548173ffffffffffffffffffffffffffffffffffffffff021916908373ffffffffffffffffffffffffffffffffffffffff160217905550818160010190816127469190613dc7565b5060016000815461275690613bd3565b919050819055816002018190555060018160030160006101000a81548160ff0219169083151502179055506000816006018190555060008160050181905550670de0b6b3a76400008160090181905550600081600801819055504281600701819055507f72d8d6c2563f662f27728e50439bc8ace9286edca723199ecc8b1e68b5f3c16a816001018260000160009054906101000a900473ffffffffffffffffffffffffffffffffffffffff168360020154846008015460405161281d9493929190614649565b60405180910390a15050565b600560003373ffffffffffffffffffffffffffffffffffffffff1673ffffffffffffffffffffffffffffffffffffffff16815260200190815260200160002060030160009054906101000a900460ff166128b8576040517f08c379a00000000000000000000000000000000000000000000000000000000081526004016128af906141e5565b60405180910390fd5b600460008273ffffffffffffffffffffffffffffffffffffffff1673ffffffffffffffffffffffffffffffffffffffff168152602001908152602001600020600401600083815260200190815260200160002060050160009054906101000a900460ff1661295b576040517f08c379a0000000000000000000000000000000000000000000000000000000008152600401612952906146e1565b60405180910390fd5b600460008273ffffffffffffffffffffffffffffffffffffffff1673ffffffffffffffffffffffffffffffffffffffff16815260200190815260200160002060040160008381526020019081526020016000206003015434146129f3576040517f08c379a00000000000000000000000000000000000000000000000000000000081526004016129ea90614773565b60405180910390fd5b60008173ffffffffffffffffffffffffffffffffffffffff1634604051612a19906147c4565b60006040518083038185875af1925050503d8060008114612a56576040519150601f19603f3d011682016040523d82523d6000602084013e612a5b565b606091505b5050905080612a9f576040517f08c379a0000000000000000000000000000000000000000000000000000000008152600401612a9690614825565b60405180910390fd5b6000600560003373ffffffffffffffffffffffffffffffffffffffff1673ffffffffffffffffffffffffffffffffffffffff16815260200190815260200160002060050160008154612af090613bd3565b91905081905590506000600560003373ffffffffffffffffffffffffffffffffffffffff1673ffffffffffffffffffffffffffffffffffffffff16815260200190815260200160002060040160008381526020019081526020016000209050818160000181905550428160010181905550848160030181905550838160040160006101000a81548173ffffffffffffffffffffffffffffffffffffffff021916908373ffffffffffffffffffffffffffffffffffffffff16021790555060008160040160146101000a81548160ff02191690831515021790555060018160040160156101000a81548160ff02191690831515021790555080600560003373ffffffffffffffffffffffffffffffffffffffff1673ffffffffffffffffffffffffffffffffffffffff1681526020019081526020016000206004016000848152602001908152602001600020600082015481600001556001820154816001015560028201548160020155600382015481600301556004820160009054906101000a900473ffffffffffffffffffffffffffffffffffffffff168160040160006101000a81548173ffffffffffffffffffffffffffffffffffffffff021916908373ffffffffffffffffffffffffffffffffffffffff1602179055506004820160149054906101000a900460ff168160040160146101000a81548160ff0219169083151502179055506004820160159054906101000a900460ff168160040160156101000a81548160ff021916908315150217905550905050600460008573ffffffffffffffffffffffffffffffffffffffff1673ffffffffffffffffffffffffffffffffffffffff16815260200190815260200160002060040160008681526020019081526020016000206004016000815480929190612d8e90613bd3565b919050555034600460008673ffffffffffffffffffffffffffffffffffffffff1673ffffffffffffffffffffffffffffffffffffffff1681526020019081526020016000206006016000828254612de59190614845565b925050819055506001600460008673ffffffffffffffffffffffffffffffffffffffff1673ffffffffffffffffffffffffffffffffffffffff1681526020019081526020016000206007016000828254612e3f9190614845565b925050819055507f2a87cec993d23d666d1bf9abb68302d6a2d20ba6a5287439294d1050d92f094282868633600460008a73ffffffffffffffffffffffffffffffffffffffff1673ffffffffffffffffffffffffffffffffffffffff16815260200190815260200160002060040160008b815260200190815260200160002060030154604051612ed3959493929190614879565b60405180910390a15050505050565b60008054905090565b6000610180841115612f005760109350612f10565b601884612f0d919061438c565b93505b600260009054906101000a900473ffffffffffffffffffffffffffffffffffffffff1673ffffffffffffffffffffffffffffffffffffffff166339288c9b868686867f00000000000000000000000000000000000000000000000000000000000000007f00000000000000000000000000000000000000000000000000000000000000007f00000000000000000000000000000000000000000000000000000000000000006040518863ffffffff1660e01b8152600401612fd797969594939291906148cc565b602060405180830381865afa158015612ff4573d6000803e3d6000fd5b505050506040513d601f19601f820116820180604052508101906130189190614950565b9050949350505050565b6000600260009054906101000a900473ffffffffffffffffffffffffffffffffffffffff1673ffffffffffffffffffffffffffffffffffffffff166397d67bff7f00000000000000000000000000000000000000000000000000000000000000007f00000000000000000000000000000000000000000000000000000000000000007f0000000000000000000000000000000000000000000000000000000000000000866040518563ffffffff1660e01b81526004016130e5949392919061497d565b602060405180830381865afa158015613102573d6000803e3d6000fd5b505050506040513d601f19601f820116820180604052508101906131269190614950565b9050919050565b6000600260009054906101000a900473ffffffffffffffffffffffffffffffffffffffff1673ffffffffffffffffffffffffffffffffffffffff166348590bf1868686867f00000000000000000000000000000000000000000000000000000000000000006040518663ffffffff1660e01b81526004016131b29594939291906149c2565b602060405180830381865afa1580156131cf573d6000803e3d6000fd5b505050506040513d601f19601f820116820180604052508101906131f39190614950565b9050949350505050565b6000600260009054906101000a900473ffffffffffffffffffffffffffffffffffffffff1673ffffffffffffffffffffffffffffffffffffffff166397d67bff7f00000000000000000000000000000000000000000000000000000000000000007f00000000000000000000000000000000000000000000000000000000000000007f0000000000000000000000000000000000000000000000000000000000000000866040518563ffffffff1660e01b81526004016132c0949392919061497d565b602060405180830381865afa1580156132dd573d6000803e3d6000fd5b505050506040513d601f19601f820116820180604052508101906133019190614950565b9050919050565b6133a0828260405160240161331e929190614a15565b6040516020818303038152906040527f319af333000000000000000000000000000000000000000000000000000000007bffffffffffffffffffffffffffffffffffffffffffffffffffffffff19166020820180517bffffffffffffffffffffffffffffffffffffffffffffffffffffffff83818316178352505050506133a4565b5050565b6133bb816133b36133be6133df565b63ffffffff16565b50565b60006a636f6e736f6c652e6c6f679050600080835160208501845afa505050565b6133ea819050919050565b6133f2614a45565b565b6000604051905090565b600080fd5b600080fd5b600073ffffffffffffffffffffffffffffffffffffffff82169050919050565b600061343382613408565b9050919050565b61344381613428565b811461344e57600080fd5b50565b6000813590506134608161343a565b92915050565b6000819050919050565b61347981613466565b811461348457600080fd5b50565b60008135905061349681613470565b92915050565b600080604083850312156134b3576134b26133fe565b5b60006134c185828601613451565b92505060206134d285828601613487565b9150509250929050565b6134e581613466565b82525050565b600060208201905061350060008301846134dc565b92915050565b60006020828403121561351c5761351b6133fe565b5b600061352a84828501613451565b91505092915050565b61353c81613428565b82525050565b600081519050919050565b600082825260208201905092915050565b60005b8381101561357c578082015181840152602081019050613561565b60008484015250505050565b6000601f19601f8301169050919050565b60006135a482613542565b6135ae818561354d565b93506135be81856020860161355e565b6135c781613588565b840191505092915050565b60008115159050919050565b6135e7816135d2565b82525050565b600060e082019050613602600083018a613533565b81810360208301526136148189613599565b905061362360408301886134dc565b61363060608301876135de565b61363d60808301866134dc565b61364a60a08301856134dc565b61365760c08301846134dc565b98975050505050505050565b600080fd5b600080fd5b7f4e487b7100000000000000000000000000000000000000000000000000000000600052604160045260246000fd5b6136a582613588565b810181811067ffffffffffffffff821117156136c4576136c361366d565b5b80604052505050565b60006136d76133f4565b90506136e3828261369c565b919050565b600067ffffffffffffffff8211156137035761370261366d565b5b61370c82613588565b9050602081019050919050565b82818337600083830152505050565b600061373b613736846136e8565b6136cd565b90508281526020810184848401111561375757613756613668565b5b613762848285613719565b509392505050565b600082601f83011261377f5761377e613663565b5b813561378f848260208601613728565b91505092915050565b600080604083850312156137af576137ae6133fe565b5b600083013567ffffffffffffffff8111156137cd576137cc613403565b5b6137d98582860161376a565b92505060206137ea85828601613487565b9150509250929050565b6000806040838503121561380b5761380a6133fe565b5b600061381985828601613487565b925050602061382a85828601613487565b9150509250929050565b600060208201905061384960008301846135de565b92915050565b600060208201905081810360008301526138698184613599565b905092915050565b600060208284031215613887576138866133fe565b5b600082013567ffffffffffffffff8111156138a5576138a4613403565b5b6138b18482850161376a565b91505092915050565b6000610120820190506138d0600083018c613533565b81810360208301526138e2818b613599565b90506138f1604083018a6134dc565b6138fe60608301896135de565b61390b60808301886134dc565b61391860a08301876134dc565b61392560c08301866134dc565b61393260e08301856134dc565b6139406101008301846134dc565b9a9950505050505050505050565b60008060408385031215613965576139646133fe565b5b600061397385828601613487565b925050602061398485828601613451565b9150509250929050565b7f53656c6c6572207769746820746869732077616c6c657420646f6573206e6f7460008201527f2065786973747321200000000000000000000000000000000000000000000000602082015250565b60006139ea60298361354d565b91506139f58261398e565b604082019050919050565b60006020820190508181036000830152613a19816139dd565b9050919050565b7f53656c6c6572207769746820746869732070726f6475637420646f6573206e6f60008201527f7420657869737473212000000000000000000000000000000000000000000000602082015250565b6000613a7c602a8361354d565b9150613a8782613a20565b604082019050919050565b60006020820190508181036000830152613aab81613a6f565b9050919050565b7f4e487b7100000000000000000000000000000000000000000000000000000000600052602260045260246000fd5b60006002820490506001821680613af957607f821691505b602082108103613b0c57613b0b613ab2565b5b50919050565b7f53656c6c6572207769746820746869732077616c6c657420646f6573206e6f7460008201527f2065786973747321000000000000000000000000000000000000000000000000602082015250565b6000613b6e60288361354d565b9150613b7982613b12565b604082019050919050565b60006020820190508181036000830152613b9d81613b61565b9050919050565b7f4e487b7100000000000000000000000000000000000000000000000000000000600052601160045260246000fd5b6000613bde82613466565b91507fffffffffffffffffffffffffffffffffffffffffffffffffffffffffffffffff8203613c1057613c0f613ba4565b5b600182019050919050565b60008190508160005260206000209050919050565b60006020601f8301049050919050565b600082821b905092915050565b600060088302613c7d7fffffffffffffffffffffffffffffffffffffffffffffffffffffffffffffffff82613c40565b613c878683613c40565b95508019841693508086168417925050509392505050565b6000819050919050565b6000613cc4613cbf613cba84613466565b613c9f565b613466565b9050919050565b6000819050919050565b613cde83613ca9565b613cf2613cea82613ccb565b848454613c4d565b825550505050565b600090565b613d07613cfa565b613d12818484613cd5565b505050565b5b81811015613d3657613d2b600082613cff565b600181019050613d18565b5050565b601f821115613d7b57613d4c81613c1b565b613d5584613c30565b81016020851015613d64578190505b613d78613d7085613c30565b830182613d17565b50505b505050565b600082821c905092915050565b6000613d9e60001984600802613d80565b1980831691505092915050565b6000613db78383613d8d565b9150826002028217905092915050565b613dd082613542565b67ffffffffffffffff811115613de957613de861366d565b5b613df38254613ae1565b613dfe828285613d3a565b600060209050601f831160018114613e315760008415613e1f578287015190505b613e298582613dab565b865550613e91565b601f198416613e3f86613c1b565b60005b82811015613e6757848901518255600182019150602085019450602081019050613e42565b86831015613e845784890151613e80601f891682613d8d565b8355505b6001600288020188555050505b505050505050565b600081549050613ea881613ae1565b9050919050565b818103613ebd575050613f95565b613ec682613e99565b67ffffffffffffffff811115613edf57613ede61366d565b5b613ee98254613ae1565b613ef4828285613d3a565b6000601f831160018114613f235760008415613f11578287015490505b613f1b8582613dab565b865550613f8e565b601f198416613f3187613c1b565b9650613f3c86613c1b565b60005b82811015613f6457848901548255600182019150600185019450602081019050613f3f565b86831015613f815784890154613f7d601f891682613d8d565b8355505b6001600288020188555050505b5050505050505b565b60008154613fa481613ae1565b613fae818661354d565b94506001821660008114613fc95760018114613fdf57614012565b60ff198316865281151560200286019350614012565b613fe885613c1b565b60005b8381101561400a57815481890152600182019150602081019050613feb565b808801955050505b50505092915050565b600060a08201905081810360008301526140358188613f97565b905061404460208301876134dc565b61405160408301866134dc565b61405e6060830185613533565b61406b60808301846134dc565b9695505050505050565b7f4275796572207769746820746869732077616c6c657420646f6573206e6f742060008201527f6578697374732120000000000000000000000000000000000000000000000000602082015250565b60006140d160288361354d565b91506140dc82614075565b604082019050919050565b60006020820190508181036000830152614100816140c4565b9050919050565b7f54786e20494420696e207468652073656c6c657220646f6573206e6f7420657860008201527f6973747321200000000000000000000000000000000000000000000000000000602082015250565b600061416360268361354d565b915061416e82614107565b604082019050919050565b6000602082019050818103600083015261419281614156565b9050919050565b7f5468697320627579657220646f6573206e6f7420657869737421000000000000600082015250565b60006141cf601a8361354d565b91506141da82614199565b602082019050919050565b600060208201905081810360008301526141fe816141c2565b9050919050565b7f427579657220646f6573206e6f7420686176652074686973207472616e73616360008201527f74696f6e20494421000000000000000000000000000000000000000000000000602082015250565b600061426160288361354d565b915061426c82614205565b604082019050919050565b6000602082019050818103600083015261429081614254565b9050919050565b7f427579657220616c72656164792072657669657765642074686973207472616e60008201527f73616374696f6e20494421000000000000000000000000000000000000000000602082015250565b60006142f3602b8361354d565b91506142fe82614297565b604082019050919050565b60006020820190508181036000830152614322816142e6565b9050919050565b600061433482613466565b915061433f83613466565b925082820390508181111561435757614356613ba4565b5b92915050565b7f4e487b7100000000000000000000000000000000000000000000000000000000600052601260045260246000fd5b600061439782613466565b91506143a283613466565b9250826143b2576143b161435d565b5b828204905092915050565b60006143c882613466565b9150600082036143db576143da613ba4565b5b600182039050919050565b600060e0820190506143fb600083018a6134dc565b6144086020830189613533565b6144156040830188613533565b61442260608301876134dc565b61442f60808301866134dc565b61443c60a08301856134dc565b61444960c08301846134dc565b98975050505050505050565b7f53656c6c6572207769746820746869732077616c6c657420616c72656164792060008201527f6578697374732100000000000000000000000000000000000000000000000000602082015250565b60006144b160278361354d565b91506144bc82614455565b604082019050919050565b600060208201905081810360008301526144e0816144a4565b9050919050565b600060608201905081810360008301526145018186613f97565b90506145106020830185613533565b61451d60408301846134dc565b949350505050565b7f50726f64756374494420696e207468652073656c6c657220646f6573206e6f7460008201527f2065786973747321200000000000000000000000000000000000000000000000602082015250565b600061458160298361354d565b915061458c82614525565b604082019050919050565b600060208201905081810360008301526145b081614574565b9050919050565b7f4275796572207769746820746869732077616c6c657420616c7265616479206560008201527f7869737473210000000000000000000000000000000000000000000000000000602082015250565b600061461360268361354d565b915061461e826145b7565b604082019050919050565b6000602082019050818103600083015261464281614606565b9050919050565b600060808201905081810360008301526146638187613f97565b90506146726020830186613533565b61467f60408301856134dc565b61468c60608301846134dc565b95945050505050565b7f5468652050726f6475637420646f6573206e6f74206578697374210000000000600082015250565b60006146cb601b8361354d565b91506146d682614695565b602082019050919050565b600060208201905081810360008301526146fa816146be565b9050919050565b7f457468657273206e6f7420656e6f7567682f746f6f206d75636820746f20627560008201527f79207468652070726f6475637421000000000000000000000000000000000000602082015250565b600061475d602e8361354d565b915061476882614701565b604082019050919050565b6000602082019050818103600083015261478c81614750565b9050919050565b600081905092915050565b50565b60006147ae600083614793565b91506147b98261479e565b600082019050919050565b60006147cf826147a1565b9150819050919050565b7f4661696c656420746f2073656e64206574686572000000000000000000000000600082015250565b600061480f60148361354d565b915061481a826147d9565b602082019050919050565b6000602082019050818103600083015261483e81614802565b9050919050565b600061485082613466565b915061485b83613466565b925082820190508082111561487357614872613ba4565b5b92915050565b600060a08201905061488e60008301886134dc565b61489b60208301876134dc565b6148a86040830186613533565b6148b56060830185613533565b6148c260808301846134dc565b9695505050505050565b600060e0820190506148e1600083018a6134dc565b6148ee60208301896134dc565b6148fb60408301886134dc565b61490860608301876134dc565b61491560808301866134dc565b61492260a08301856134dc565b61492f60c08301846134dc565b98975050505050505050565b60008151905061494a81613470565b92915050565b600060208284031215614966576149656133fe565b5b60006149748482850161493b565b91505092915050565b600060808201905061499260008301876134dc565b61499f60208301866134dc565b6149ac60408301856134dc565b6149b960608301846134dc565b95945050505050565b600060a0820190506149d760008301886134dc565b6149e460208301876134dc565b6149f160408301866134dc565b6149fe60608301856134dc565b614a0b60808301846134dc565b9695505050505050565b60006040820190508181036000830152614a2f8185613599565b9050614a3e6020830184613533565b9392505050565b7f4e487b7100000000000000000000000000000000000000000000000000000000600052605160045260246000fdfea2646970667358221220edbfc719715e1a2962e634e1b39d66dae8da7ac58799d5d37ddaa8073d57123f64736f6c63430008150033608060405234801561001057600080fd5b50611535806100206000396000f3fe608060405234801561001057600080fd5b50600436106101005760003560e01c80637081c39c11610097578063b67d77c511610066578063b67d77c514610345578063b71d55d614610375578063c8a4ac9c146103a5578063fd57aafa146103d557610100565b80637081c39c14610285578063771602f7146102b557806397d67bff146102e5578063a391c15b1461031557610100565b806339288c9b116100d357806339288c9b146101c557806339cd63eb146101f557806348590bf114610225578063677342ce1461025557610100565b806302345e051461010557806303d0cea014610135578063071490b3146101655780632862b2e214610195575b600080fd5b61011f600480360381019061011a9190611105565b610405565b60405161012c9190611154565b60405180910390f35b61014f600480360381019061014a919061116f565b610440565b60405161015c9190611154565b60405180910390f35b61017f600480360381019061017a919061119c565b610457565b60405161018c9190611154565b60405180910390f35b6101af60048036038101906101aa9190611105565b61057a565b6040516101bc9190611154565b60405180910390f35b6101df60048036038101906101da9190611203565b6105a2565b6040516101ec9190611154565b60405180910390f35b61020f600480360381019061020a91906112a5565b6106ec565b60405161021c9190611154565b60405180910390f35b61023f600480360381019061023a91906112f8565b61071c565b60405161024c9190611154565b60405180910390f35b61026f600480360381019061026a919061116f565b610778565b60405161027c9190611154565b60405180910390f35b61029f600480360381019061029a919061119c565b61078a565b6040516102ac9190611154565b60405180910390f35b6102cf60048036038101906102ca9190611105565b610875565b6040516102dc9190611154565b60405180910390f35b6102ff60048036038101906102fa919061119c565b61089f565b60405161030c9190611154565b60405180910390f35b61032f600480360381019061032a9190611105565b6108f0565b60405161033c9190611154565b60405180910390f35b61035f600480360381019061035a9190611105565b61090d565b60405161036c9190611154565b60405180910390f35b61038f600480360381019061038a91906112f8565b610937565b60405161039c9190611154565b60405180910390f35b6103bf60048036038101906103ba9190611105565b610a19565b6040516103cc9190611154565b60405180910390f35b6103ef60048036038101906103ea9190611105565b610a36565b6040516103fc9190611154565b60405180910390f35b60008061041a83670de0b6b3a76400006108f0565b90506104376104298286610a19565b678ac7230489e800006108f0565b91505092915050565b60008082905061044f81610a7f565b915050919050565b600082850361047b57670de0b6b3a76400008461047491906113a2565b9050610572565b828511156104fa5760006104a0610492878661090d565b671bc16d674ec8000061057a565b905060006104b66104b18386610875565b610778565b905060006104cd6104c7898861090d565b836108f0565b905060006104e382670de0b6b3a7640000610875565b90506104ef8189610a19565b945050505050610572565b8285101561057157600061051f610511858861090d565b671bc16d674ec8000061057a565b905060006105356105308386610875565b610778565b9050600061054c610546878a61090d565b836108f0565b9050600061055a8289610a19565b9050610566888261090d565b945050505050610572565b5b949350505050565b60008083905060008390506105988183610cdb90919063ffffffff16565b9250505092915050565b600081851061064857600061062b6105e1670de0b6b3a76400008a6105c791906113a2565b8b670de0b6b3a7640000896105dc91906113a2565b6106ec565b610626670de0b6b3a7640000896105f891906113a2565b8c670de0b6b3a76400008861060d91906113a2565b670de0b6b3a76400008a61062191906113a2565b61078a565b610875565b90506106408161063b898c610a36565b610875565b9150506106e1565b600061068d61067e670de0b6b3a76400008a61066491906113a2565b8b670de0b6b3a76400008961067991906113a2565b6106ec565b610688898c610a36565b610875565b90506106dd816106d8670de0b6b3a7640000896106aa91906113a2565b8c670de0b6b3a7640000886106bf91906113a2565b670de0b6b3a76400008a6106d391906113a2565b61078a565b61090d565b9150505b979650505050505050565b600061071361070d6107078468056bc75e2d631000006108f0565b8661057a565b84610a19565b90509392505050565b600061076d86610768670de0b6b3a76400008561073991906113a2565b670de0b6b3a76400008861074d91906113a2565b670de0b6b3a76400008861076191906113a2565b8a8c610937565b610875565b905095945050505050565b600061078382610d14565b9050919050565b600082850361079c576000905061086d565b828511156108045760006107c16107b3878661090d565b671bc16d674ec8000061057a565b905060006107d76107d28386610875565b610778565b905060006107ee6107e8898861090d565b836108f0565b90506107fa8188610a19565b935050505061086d565b8483111561086c57600061082961081b858861090d565b671bc16d674ec8000061057a565b9050600061083f61083a8386610875565b610778565b90506000610856610850878a61090d565b836108f0565b90506108628188610a19565b935050505061086d565b5b949350505050565b600061088a8284610d8a90919063ffffffff16565b90508281101561089957600080fd5b92915050565b60006108e682670de0b6b3a7640000876108b991906113a2565b670de0b6b3a7640000876108cd91906113a2565b670de0b6b3a7640000876108e191906113a2565b610457565b9050949350505050565b60006109058284610d9790919063ffffffff16565b905092915050565b60008282111561091c57600080fd5b61092f8284610ddc90919063ffffffff16565b905092915050565b6000838511156109a257600061094d868661090d565b9050600061095b88836108f0565b9050600061098c61097d61097784670de0b6b3a7640000610875565b88610a19565b683635c9adc5dea000006108f0565b90506109988186610a19565b9350505050610a10565b83851015610a0b5760006109b6858761090d565b905060006109c488836108f0565b905060006109f56109e66109e084670de0b6b3a7640000610875565b88610a19565b683635c9adc5dea000006108f0565b9050610a018186610a19565b9350505050610a10565b600090505b95945050505050565b6000610a2e8284610de990919063ffffffff16565b905092915050565b600080610a4b84670de0b6b3a76400006108f0565b9050610a5f81670de0b6b3a7640000610875565b9050610a6a81610440565b9150610a768284610a19565b91505092915050565b6000816fffffffffffffffffffffffffffffffff1060071b905081811c67ffffffffffffffff1060061b8117905081811c63ffffffff1060051b8117905081811c61ffff1060041b8117905081811c60ff1060031b8117905060008213610aee57631615e6386000526004601cfd5b7ff8f9f9faf9fdfafbf9fdfcfdfafbfcfef9fafdfafcfcfbfefafafcfbffffffff6f8421084210842108cc6318c6db6d54be83831c1c601f161a8118905081811b609f1c91506c8c3f38e95a6b1ff2ab1c3b3437828384856c29508e458543d8aa4df2abee78010260601d6d0139601a2efabe717e604cbb4894010260601d6d02247f7a7b6594320649aa03aba1010260601d036d02384773bdf1ac5676facced609183820260601d0390506cb9a025d814b29c212b8b1a07ce83820260601d0390506c0a09507084cc699bb0e71ea86a60601b838202039050826c465772b2bbbb5f824b15207a300180840260601d6d0388eaa27412d5aca026815d636e01905080840260601d6d0df99ac502031bf953eff472fdcc01905080840260601d6d13cdffb29d51d99322bdff5f221101905080840260601d6d0a0f742023def783a307a986912e01905080840260601d6d01920d8043ca89b5239253284e4201905080840260601d6c0b7a86d7375468fac667a0a527019050808205915081711340daa0d5f769dba1915cef59f0815a55060291508183609f037d0267a36c0c95b3975ab3ee5b203a7614a3f75373f047d803ae7b6687f2b302019150817d57115e47018c7177eebf7cd370a3356a1b7863008a5ae8028c72b88642840191508160ae1d92505050919050565b6000610d0c670de0b6b3a764000083610cf386610a7f565b610cfd91906113ee565b610d079190611495565b610e1c565b905092915050565b6000633b9aca00905060016ec097ce7bc90715b34b9f10000000007fffffffffffffffffffffffffffffffffffffffffffffffffffffffffffffffff81610d5e57610d5d611466565b5b04038211610d7857670de0b6b3a764000082029150600190505b610d818261100c565b81029050919050565b6000818301905092915050565b6000670de0b6b3a7640000600019048311670de0b6b3a764000002158202610dc757637c5f487d6000526004601cfd5b81670de0b6b3a7640000840204905092915050565b6000818303905092915050565b600081600019048311820215610e075763bac65e5b6000526004601cfd5b670de0b6b3a764000082840204905092915050565b60007ffffffffffffffffffffffffffffffffffffffffffffffffdc0d0570925a462d782131561100757680755bf798b4a1bf1e58212610e645763a37bfec96000526004601cfd5b6503782dace9d9604e83901b81610e7e57610e7d611466565b5b059150600060606b8000000000000000000000006bb17217f7d1cf79abc9e3b398606086901b81610eb257610eb1611466565b5b0501901d90506bb17217f7d1cf79abc9e3b39881028303925060006c10fe68e7fd37d0007b713f7650840190506d02d16720577bd19bf614176fe9ea6060858302901d01905060006d04a4fd9f2a8b96949216d2255a6c8583010390506e0587f503bb6ea29d25fcb7401964506060838302901d01905079d835ebba824c98fb31b83b2ca45c00000000000000000000000085820201905060006c240c330e9fb2d9cbaf0fd5aafc860390506d0277594991cfc85f6e2461837cd96060878302901d0190506d1a521255e34f6a5061b25ef1c9c46060878302901d0390506db1bbb201f443cf962f1a1d3db4a56060878302901d0190506e02c72388d9f74f51a9331fed693f156060878302901d0390506e05180bb14799ab47a8a8cb2a527d576060878302901d01905080820594508360c30374029d9dc38563c32e5c2f6dc192ee70ef65f9978af38602901c9450505050505b919050565b600060b590508170ffffffffffffffffffffffffffffffffff1060071b82811c68ffffffffffffffffff1060061b8117905082811c64ffffffffff1060051b8117905082811c62ffffff1060041b81179050818160011c1b91506201000083821c01820260121c9150818304820160011c9150818304820160011c9150818304820160011c9150818304820160011c9150818304820160011c9150818304820160011c9150818304820160011c915081828404108203915050919050565b600080fd5b6000819050919050565b6110e2816110cf565b81146110ed57600080fd5b50565b6000813590506110ff816110d9565b92915050565b6000806040838503121561111c5761111b6110ca565b5b600061112a858286016110f0565b925050602061113b858286016110f0565b9150509250929050565b61114e816110cf565b82525050565b60006020820190506111696000830184611145565b92915050565b600060208284031215611185576111846110ca565b5b6000611193848285016110f0565b91505092915050565b600080600080608085870312156111b6576111b56110ca565b5b60006111c4878288016110f0565b94505060206111d5878288016110f0565b93505060406111e6878288016110f0565b92505060606111f7878288016110f0565b91505092959194509250565b600080600080600080600060e0888a031215611222576112216110ca565b5b60006112308a828b016110f0565b97505060206112418a828b016110f0565b96505060406112528a828b016110f0565b95505060606112638a828b016110f0565b94505060806112748a828b016110f0565b93505060a06112858a828b016110f0565b92505060c06112968a828b016110f0565b91505092959891949750929550565b6000806000606084860312156112be576112bd6110ca565b5b60006112cc868287016110f0565b93505060206112dd868287016110f0565b92505060406112ee868287016110f0565b9150509250925092565b600080600080600060a08688031215611314576113136110ca565b5b6000611322888289016110f0565b9550506020611333888289016110f0565b9450506040611344888289016110f0565b9350506060611355888289016110f0565b9250506080611366888289016110f0565b9150509295509295909350565b7f4e487b7100000000000000000000000000000000000000000000000000000000600052601160045260246000fd5b60006113ad826110cf565b91506113b8836110cf565b92508282026113c6816110cf565b915082820484148315176113dd576113dc611373565b5b5092915050565b6000819050919050565b60006113f9826113e4565b9150611404836113e4565b9250828202611412816113e4565b91507f8000000000000000000000000000000000000000000000000000000000000000841460008412161561144a57611449611373565b5b828205841483151761145f5761145e611373565b5b5092915050565b7f4e487b7100000000000000000000000000000000000000000000000000000000600052601260045260246000fd5b60006114a0826113e4565b91506114ab836113e4565b9250826114bb576114ba611466565b5b600160000383147f8000000000000000000000000000000000000000000000000000000000000000831416156114f4576114f3611373565b5b82820590509291505056fea26469706673582212203314f3efac1e6766abe09de9c84200e701acee6a9ba14a36f7094b598cefdc6364736f6c63430008150033",
  "devdoc": {
    "kind": "dev",
    "methods": {},
    "version": 1
  },
  "userdoc": {
    "kind": "user",
    "methods": {},
    "version": 1
  },
  "storageLayout": {
    "storage": [
      {
        "astId": 922,
        "contract": "Contracts/Store.sol:Store",
        "label": "totalSellers",
        "offset": 0,
        "slot": "0",
        "type": "t_uint256"
      },
      {
        "astId": 925,
        "contract": "Contracts/Store.sol:Store",
        "label": "totalBuyers",
        "offset": 0,
        "slot": "1",
        "type": "t_uint256"
      },
      {
        "astId": 958,
        "contract": "Contracts/Store.sol:Store",
        "label": "MathLib",
        "offset": 0,
        "slot": "2",
        "type": "t_contract(Math)915"
      },
      {
        "astId": 960,
        "contract": "Contracts/Store.sol:Store",
        "label": "MathLibAddress",
        "offset": 0,
        "slot": "3",
        "type": "t_address"
      },
      {
        "astId": 1043,
        "contract": "Contracts/Store.sol:Store",
        "label": "sellersList",
        "offset": 0,
        "slot": "4",
        "type": "t_mapping(t_address,t_struct(Seller)1014_storage)"
      },
      {
        "astId": 1048,
        "contract": "Contracts/Store.sol:Store",
        "label": "buyersList",
        "offset": 0,
        "slot": "5",
        "type": "t_mapping(t_address,t_struct(Buyer)1038_storage)"
      }
    ],
    "types": {
      "t_address": {
        "encoding": "inplace",
        "label": "address",
        "numberOfBytes": "20"
      },
      "t_bool": {
        "encoding": "inplace",
        "label": "bool",
        "numberOfBytes": "1"
      },
      "t_contract(Math)915": {
        "encoding": "inplace",
        "label": "contract Math",
        "numberOfBytes": "20"
      },
      "t_mapping(t_address,t_struct(Buyer)1038_storage)": {
        "encoding": "mapping",
        "key": "t_address",
        "label": "mapping(address => struct Store.Buyer)",
        "numberOfBytes": "32",
        "value": "t_struct(Buyer)1038_storage"
      },
      "t_mapping(t_address,t_struct(Seller)1014_storage)": {
        "encoding": "mapping",
        "key": "t_address",
        "label": "mapping(address => struct Store.Seller)",
        "numberOfBytes": "32",
        "value": "t_struct(Seller)1014_storage"
      },
      "t_mapping(t_uint256,t_struct(Product)979_storage)": {
        "encoding": "mapping",
        "key": "t_uint256",
        "label": "mapping(uint256 => struct Store.Product)",
        "numberOfBytes": "32",
        "value": "t_struct(Product)979_storage"
      },
      "t_mapping(t_uint256,t_struct(Transaction)994_storage)": {
        "encoding": "mapping",
        "key": "t_uint256",
        "label": "mapping(uint256 => struct Store.Transaction)",
        "numberOfBytes": "32",
        "value": "t_struct(Transaction)994_storage"
      },
      "t_string_storage": {
        "encoding": "bytes",
        "label": "string",
        "numberOfBytes": "32"
      },
      "t_struct(Buyer)1038_storage": {
        "encoding": "inplace",
        "label": "struct Store.Buyer",
        "members": [
          {
            "astId": 1016,
            "contract": "Contracts/Store.sol:Store",
            "label": "buyerAddress",
            "offset": 0,
            "slot": "0",
            "type": "t_address"
          },
          {
            "astId": 1018,
            "contract": "Contracts/Store.sol:Store",
            "label": "buyerName",
            "offset": 0,
            "slot": "1",
            "type": "t_string_storage"
          },
          {
            "astId": 1020,
            "contract": "Contracts/Store.sol:Store",
            "label": "buyerID",
            "offset": 0,
            "slot": "2",
            "type": "t_uint256"
          },
          {
            "astId": 1022,
            "contract": "Contracts/Store.sol:Store",
            "label": "isExist",
            "offset": 0,
            "slot": "3",
            "type": "t_bool"
          },
          {
            "astId": 1027,
            "contract": "Contracts/Store.sol:Store",
            "label": "txnMade",
            "offset": 0,
            "slot": "4",
            "type": "t_mapping(t_uint256,t_struct(Transaction)994_storage)"
          },
          {
            "astId": 1029,
            "contract": "Contracts/Store.sol:Store",
            "label": "numOfTxn",
            "offset": 0,
            "slot": "5",
            "type": "t_uint256"
          },
          {
            "astId": 1031,
            "contract": "Contracts/Store.sol:Store",
            "label": "numOfReviewsGiven",
            "offset": 0,
            "slot": "6",
            "type": "t_uint256"
          },
          {
            "astId": 1033,
            "contract": "Contracts/Store.sol:Store",
            "label": "lastReviewTime",
            "offset": 0,
            "slot": "7",
            "type": "t_uint256"
          },
          {
            "astId": 1035,
            "contract": "Contracts/Store.sol:Store",
            "label": "repScore",
            "offset": 0,
            "slot": "8",
            "type": "t_uint256"
          },
          {
            "astId": 1037,
            "contract": "Contracts/Store.sol:Store",
            "label": "X_Value",
            "offset": 0,
            "slot": "9",
            "type": "t_uint256"
          }
        ],
        "numberOfBytes": "320"
      },
      "t_struct(Product)979_storage": {
        "encoding": "inplace",
        "label": "struct Store.Product",
        "members": [
          {
            "astId": 962,
            "contract": "Contracts/Store.sol:Store",
            "label": "productID",
            "offset": 0,
            "slot": "0",
            "type": "t_uint256"
          },
          {
            "astId": 964,
            "contract": "Contracts/Store.sol:Store",
            "label": "productName",
            "offset": 0,
            "slot": "1",
            "type": "t_string_storage"
          },
          {
            "astId": 966,
            "contract": "Contracts/Store.sol:Store",
            "label": "sellerAddress",
            "offset": 0,
            "slot": "2",
            "type": "t_address"
          },
          {
            "astId": 968,
            "contract": "Contracts/Store.sol:Store",
            "label": "productPrice",
            "offset": 0,
            "slot": "3",
            "type": "t_uint256"
          },
          {
            "astId": 970,
            "contract": "Contracts/Store.sol:Store",
            "label": "totalSold",
            "offset": 0,
            "slot": "4",
            "type": "t_uint256"
          },
          {
            "astId": 972,
            "contract": "Contracts/Store.sol:Store",
            "label": "isExist",
            "offset": 0,
            "slot": "5",
            "type": "t_bool"
          },
          {
            "astId": 974,
            "contract": "Contracts/Store.sol:Store",
            "label": "numOfReviewsGiven",
            "offset": 0,
            "slot": "6",
            "type": "t_uint256"
          },
          {
            "astId": 976,
            "contract": "Contracts/Store.sol:Store",
            "label": "review",
            "offset": 0,
            "slot": "7",
            "type": "t_uint256"
          },
          {
            "astId": 978,
            "contract": "Contracts/Store.sol:Store",
            "label": "X_Value",
            "offset": 0,
            "slot": "8",
            "type": "t_uint256"
          }
        ],
        "numberOfBytes": "288"
      },
      "t_struct(Seller)1014_storage": {
        "encoding": "inplace",
        "label": "struct Store.Seller",
        "members": [
          {
            "astId": 996,
            "contract": "Contracts/Store.sol:Store",
            "label": "sellerAddress",
            "offset": 0,
            "slot": "0",
            "type": "t_address"
          },
          {
            "astId": 998,
            "contract": "Contracts/Store.sol:Store",
            "label": "sellerName",
            "offset": 0,
            "slot": "1",
            "type": "t_string_storage"
          },
          {
            "astId": 1000,
            "contract": "Contracts/Store.sol:Store",
            "label": "sellerID",
            "offset": 0,
            "slot": "2",
            "type": "t_uint256"
          },
          {
            "astId": 1002,
            "contract": "Contracts/Store.sol:Store",
            "label": "isExist",
            "offset": 0,
            "slot": "3",
            "type": "t_bool"
          },
          {
            "astId": 1007,
            "contract": "Contracts/Store.sol:Store",
            "label": "sellerProducts",
            "offset": 0,
            "slot": "4",
            "type": "t_mapping(t_uint256,t_struct(Product)979_storage)"
          },
          {
            "astId": 1009,
            "contract": "Contracts/Store.sol:Store",
            "label": "totalProducts",
            "offset": 0,
            "slot": "5",
            "type": "t_uint256"
          },
          {
            "astId": 1011,
            "contract": "Contracts/Store.sol:Store",
            "label": "totalRevenue",
            "offset": 0,
            "slot": "6",
            "type": "t_uint256"
          },
          {
            "astId": 1013,
            "contract": "Contracts/Store.sol:Store",
            "label": "numOfSales",
            "offset": 0,
            "slot": "7",
            "type": "t_uint256"
          }
        ],
        "numberOfBytes": "256"
      },
      "t_struct(Transaction)994_storage": {
        "encoding": "inplace",
        "label": "struct Store.Transaction",
        "members": [
          {
            "astId": 981,
            "contract": "Contracts/Store.sol:Store",
            "label": "txnID",
            "offset": 0,
            "slot": "0",
            "type": "t_uint256"
          },
          {
            "astId": 983,
            "contract": "Contracts/Store.sol:Store",
            "label": "timeStampBought",
            "offset": 0,
            "slot": "1",
            "type": "t_uint256"
          },
          {
            "astId": 985,
            "contract": "Contracts/Store.sol:Store",
            "label": "timeStampReviewed",
            "offset": 0,
            "slot": "2",
            "type": "t_uint256"
          },
          {
            "astId": 987,
            "contract": "Contracts/Store.sol:Store",
            "label": "purchasedProductID",
            "offset": 0,
            "slot": "3",
            "type": "t_uint256"
          },
          {
            "astId": 989,
            "contract": "Contracts/Store.sol:Store",
            "label": "sellerAddress",
            "offset": 0,
            "slot": "4",
            "type": "t_address"
          },
          {
            "astId": 991,
            "contract": "Contracts/Store.sol:Store",
            "label": "reviewed",
            "offset": 20,
            "slot": "4",
            "type": "t_bool"
          },
          {
            "astId": 993,
            "contract": "Contracts/Store.sol:Store",
            "label": "isExist",
            "offset": 21,
            "slot": "4",
            "type": "t_bool"
          }
        ],
        "numberOfBytes": "160"
      },
      "t_uint256": {
        "encoding": "inplace",
        "label": "uint256",
        "numberOfBytes": "32"
      }
    }
  }
}