{
  "address": "0x5FbDB2315678afecb367f032d93F642f64180aa3",
  "abi": [
    {
      "inputs": [],
      "stateMutability": "nonpayable",
      "type": "constructor"
    },
    {
      "anonymous": false,
      "inputs": [
        {
          "indexed": false,
          "internalType": "uint256",
          "name": "productID",
          "type": "uint256"
        },
        {
          "indexed": false,
          "internalType": "address",
          "name": "sellerAddress",
          "type": "address"
        },
        {
          "indexed": false,
          "internalType": "address",
          "name": "buyerAddress",
          "type": "address"
        },
        {
          "indexed": false,
          "internalType": "uint256",
          "name": "buyerRating",
          "type": "uint256"
        },
        {
          "indexed": false,
          "internalType": "uint256",
          "name": "timeStamp",
          "type": "uint256"
        },
        {
          "indexed": false,
          "internalType": "uint256",
          "name": "finalProductRating",
          "type": "uint256"
        },
        {
          "indexed": false,
          "internalType": "uint256",
          "name": "totalReviews",
          "type": "uint256"
        }
      ],
      "name": "buyerReviewEvent",
      "type": "event"
    },
    {
      "anonymous": false,
      "inputs": [
        {
          "indexed": false,
          "internalType": "string",
          "name": "buyerName",
          "type": "string"
        },
        {
          "indexed": false,
          "internalType": "address",
          "name": "buyerAddress",
          "type": "address"
        },
        {
          "indexed": false,
          "internalType": "uint256",
          "name": "buyerID",
          "type": "uint256"
        },
        {
          "indexed": false,
          "internalType": "uint256",
          "name": "repScore",
          "type": "uint256"
        }
      ],
      "name": "createBuyerEvent",
      "type": "event"
    },
    {
      "anonymous": false,
      "inputs": [
        {
          "indexed": false,
          "internalType": "string",
          "name": "sellerName",
          "type": "string"
        },
        {
          "indexed": false,
          "internalType": "address",
          "name": "sellerAddress",
          "type": "address"
        },
        {
          "indexed": false,
          "internalType": "uint256",
          "name": "sellerID",
          "type": "uint256"
        }
      ],
      "name": "createSellerEvent",
      "type": "event"
    },
    {
      "anonymous": false,
      "inputs": [
        {
          "indexed": false,
          "internalType": "uint256",
          "name": "txnID",
          "type": "uint256"
        },
        {
          "indexed": false,
          "internalType": "address",
          "name": "buyerAddress",
          "type": "address"
        },
        {
          "indexed": false,
          "internalType": "address",
          "name": "sellerAddress",
          "type": "address"
        },
        {
          "indexed": false,
          "internalType": "uint256",
          "name": "reward",
          "type": "uint256"
        }
      ],
      "name": "incentiveReceived",
      "type": "event"
    },
    {
      "anonymous": false,
      "inputs": [
        {
          "indexed": false,
          "internalType": "uint256",
          "name": "txnID",
          "type": "uint256"
        },
        {
          "indexed": false,
          "internalType": "uint256",
          "name": "productID",
          "type": "uint256"
        },
        {
          "indexed": false,
          "internalType": "address",
          "name": "sellerAddress",
          "type": "address"
        },
        {
          "indexed": false,
          "internalType": "address",
          "name": "buyerAddress",
          "type": "address"
        },
        {
          "indexed": false,
          "internalType": "uint256",
          "name": "price",
          "type": "uint256"
        }
      ],
      "name": "purchasedProductsEvent",
      "type": "event"
    },
    {
      "anonymous": false,
      "inputs": [
        {
          "indexed": false,
          "internalType": "string",
          "name": "productName",
          "type": "string"
        },
        {
          "indexed": false,
          "internalType": "uint256",
          "name": "price",
          "type": "uint256"
        },
        {
          "indexed": false,
          "internalType": "uint256",
          "name": "productID",
          "type": "uint256"
        },
        {
          "indexed": false,
          "internalType": "address",
          "name": "sellerAddress",
          "type": "address"
        },
        {
          "indexed": false,
          "internalType": "uint256",
          "name": "sellerID",
          "type": "uint256"
        }
      ],
      "name": "uploadProductEvent",
      "type": "event"
    },
    {
      "inputs": [
        {
          "internalType": "uint256",
          "name": "buyerRating",
          "type": "uint256"
        },
        {
          "internalType": "uint256",
          "name": "txnID",
          "type": "uint256"
        }
      ],
      "name": "buyerReview",
      "outputs": [],
      "stateMutability": "nonpayable",
      "type": "function"
    },
    {
      "inputs": [
        {
          "internalType": "address",
          "name": "buyerAddress",
          "type": "address"
        },
        {
          "internalType": "uint256",
          "name": "txnID",
          "type": "uint256"
        }
      ],
      "name": "calculateIncentive",
      "outputs": [
        {
          "internalType": "uint256",
          "name": "reward",
          "type": "uint256"
        }
      ],
      "stateMutability": "view",
      "type": "function"
    },
    {
      "inputs": [
        {
          "internalType": "string",
          "name": "_buyerName",
          "type": "string"
        }
      ],
      "name": "createBuyer",
      "outputs": [],
      "stateMutability": "nonpayable",
      "type": "function"
    },
    {
      "inputs": [
        {
          "internalType": "string",
          "name": "_sellerName",
          "type": "string"
        }
      ],
      "name": "createSeller",
      "outputs": [],
      "stateMutability": "nonpayable",
      "type": "function"
    },
    {
      "inputs": [
        {
          "internalType": "uint256",
          "name": "productID",
          "type": "uint256"
        },
        {
          "internalType": "address",
          "name": "sellerAddress",
          "type": "address"
        }
      ],
      "name": "purchaseProduct",
      "outputs": [],
      "stateMutability": "payable",
      "type": "function"
    },
    {
      "inputs": [
        {
          "internalType": "address",
          "name": "_buyerAddress",
          "type": "address"
        }
      ],
      "name": "retrieveBuyerID",
      "outputs": [
        {
          "internalType": "uint256",
          "name": "",
          "type": "uint256"
        }
      ],
      "stateMutability": "view",
      "type": "function"
    },
    {
      "inputs": [
        {
          "internalType": "address",
          "name": "buyerAddress",
          "type": "address"
        }
      ],
      "name": "retrieveBuyerName",
      "outputs": [
        {
          "internalType": "string",
          "name": "",
          "type": "string"
        }
      ],
      "stateMutability": "view",
      "type": "function"
    },
    {
      "inputs": [
        {
          "internalType": "address",
          "name": "_buyerAddress",
          "type": "address"
        }
      ],
      "name": "retrieveBuyerRepScore",
      "outputs": [
        {
          "internalType": "uint256",
          "name": "",
          "type": "uint256"
        }
      ],
      "stateMutability": "view",
      "type": "function"
    },
    {
      "inputs": [
        {
          "internalType": "address",
          "name": "_buyerAddress",
          "type": "address"
        }
      ],
      "name": "retrieveBuyerTotalTransactions",
      "outputs": [
        {
          "internalType": "uint256",
          "name": "",
          "type": "uint256"
        }
      ],
      "stateMutability": "view",
      "type": "function"
    },
    {
      "inputs": [
        {
          "internalType": "uint256",
          "name": "sellerID",
          "type": "uint256"
        }
      ],
      "name": "retrieveSellerAddress",
      "outputs": [
        {
          "internalType": "address",
          "name": "sellerAddress",
          "type": "address"
        }
      ],
      "stateMutability": "view",
      "type": "function"
    },
    {
      "inputs": [
        {
          "internalType": "address",
          "name": "_sellerAddress",
          "type": "address"
        }
      ],
      "name": "retrieveSellerID",
      "outputs": [
        {
          "internalType": "uint256",
          "name": "",
          "type": "uint256"
        }
      ],
      "stateMutability": "view",
      "type": "function"
    },
    {
      "inputs": [
        {
          "internalType": "address",
          "name": "_sellerAddress",
          "type": "address"
        }
      ],
      "name": "retrieveSellerName",
      "outputs": [
        {
          "internalType": "string",
          "name": "",
          "type": "string"
        }
      ],
      "stateMutability": "view",
      "type": "function"
    },
    {
      "inputs": [
        {
          "internalType": "address",
          "name": "_sellerAddress",
          "type": "address"
        }
      ],
      "name": "retrieveSellerTotalProducts",
      "outputs": [
        {
          "internalType": "uint256",
          "name": "",
          "type": "uint256"
        }
      ],
      "stateMutability": "view",
      "type": "function"
    },
    {
      "inputs": [],
      "name": "retrieveTotalBuyers",
      "outputs": [
        {
          "internalType": "uint256",
          "name": "",
          "type": "uint256"
        }
      ],
      "stateMutability": "view",
      "type": "function"
    },
    {
      "inputs": [],
      "name": "retrieveTotalSellers",
      "outputs": [
        {
          "internalType": "uint256",
          "name": "",
          "type": "uint256"
        }
      ],
      "stateMutability": "view",
      "type": "function"
    },
    {
      "inputs": [
        {
          "internalType": "address",
          "name": "buyerAddress",
          "type": "address"
        },
        {
          "internalType": "uint256",
          "name": "txnID",
          "type": "uint256"
        }
      ],
      "name": "sendIncentive",
      "outputs": [],
      "stateMutability": "payable",
      "type": "function"
    },
    {
      "inputs": [
        {
          "internalType": "string",
          "name": "_productName",
          "type": "string"
        },
        {
          "internalType": "uint256",
          "name": "price",
          "type": "uint256"
        }
      ],
      "name": "uploadProduct",
      "outputs": [],
      "stateMutability": "nonpayable",
      "type": "function"
    },
    {
      "inputs": [
        {
          "internalType": "address",
          "name": "_sellerAddress",
          "type": "address"
        },
        {
          "internalType": "uint256",
          "name": "_productID",
          "type": "uint256"
        }
      ],
      "name": "viewProductName",
      "outputs": [
        {
          "internalType": "string",
          "name": "",
          "type": "string"
        }
      ],
      "stateMutability": "view",
      "type": "function"
    },
    {
      "inputs": [
        {
          "internalType": "address",
          "name": "_sellerAddress",
          "type": "address"
        },
        {
          "internalType": "uint256",
          "name": "_productID",
          "type": "uint256"
        }
      ],
      "name": "viewProductPrice",
      "outputs": [
        {
          "internalType": "uint256",
          "name": "",
          "type": "uint256"
        }
      ],
      "stateMutability": "view",
      "type": "function"
    },
    {
      "inputs": [
        {
          "internalType": "address",
          "name": "_sellerAddress",
          "type": "address"
        },
        {
          "internalType": "uint256",
          "name": "_productID",
          "type": "uint256"
        }
      ],
      "name": "viewProductReview",
      "outputs": [
        {
          "internalType": "uint256",
          "name": "",
          "type": "uint256"
        }
      ],
      "stateMutability": "view",
      "type": "function"
    },
    {
      "inputs": [
        {
          "internalType": "address",
          "name": "_buyerAddress",
          "type": "address"
        },
        {
          "internalType": "uint256",
          "name": "_txnID",
          "type": "uint256"
        }
      ],
      "name": "viewTransactions_ProductID",
      "outputs": [
        {
          "internalType": "uint256",
          "name": "",
          "type": "uint256"
        }
      ],
      "stateMutability": "view",
      "type": "function"
    },
    {
      "inputs": [
        {
          "internalType": "address",
          "name": "_buyerAddress",
          "type": "address"
        },
        {
          "internalType": "uint256",
          "name": "_txnID",
          "type": "uint256"
        }
      ],
      "name": "viewTransactions_Reviewed",
      "outputs": [
        {
          "internalType": "bool",
          "name": "",
          "type": "bool"
        }
      ],
      "stateMutability": "view",
      "type": "function"
    },
    {
      "inputs": [
        {
          "internalType": "address",
          "name": "_buyerAddress",
          "type": "address"
        },
        {
          "internalType": "uint256",
          "name": "_txnID",
          "type": "uint256"
        }
      ],
      "name": "viewTransactions_SellerAddress",
      "outputs": [
        {
          "internalType": "address",
          "name": "sellerAddress",
          "type": "address"
        }
      ],
      "stateMutability": "view",
      "type": "function"
    },
    {
      "inputs": [
        {
          "internalType": "address",
          "name": "_buyerAddress",
          "type": "address"
        },
        {
          "internalType": "uint256",
          "name": "_txnID",
          "type": "uint256"
        }
      ],
      "name": "viewTransactions_SellerID",
      "outputs": [
        {
          "internalType": "uint256",
          "name": "",
          "type": "uint256"
        }
      ],
      "stateMutability": "view",
      "type": "function"
    }
  ],
  "transactionHash": "0x26adfab47153e14f44fcb927eeae1fde1127af009aa1bcf1a8f000d082a452f9",
  "args": [],
  "numDeployments": 1,
  "solcInputHash": "78983836a1d5a981d2ca48d3c38a4234",
  "bytecode": "0x6101c0604052600080556000600155603260809081525061012c60a09081525061038460c090815250600160e09081525060326101009081525060646101209081525061012c61014090815250606361016090815250610fa061018090815250600c6101a0908152503480156200007557600080fd5b5060405162000084906200014b565b604051809103906000f080158015620000a1573d6000803e3d6000fd5b50600260006101000a81548173ffffffffffffffffffffffffffffffffffffffff021916908373ffffffffffffffffffffffffffffffffffffffff160217905550600260009054906101000a900473ffffffffffffffffffffffffffffffffffffffff16600360006101000a81548173ffffffffffffffffffffffffffffffffffffffff021916908373ffffffffffffffffffffffffffffffffffffffff16021790555062000159565b6115928062005a6283390190565b60805160a05160c05160e05161010051610120516101405161016051610180516101a051615886620001dc600039600081816118370152613c5c01526000613c3b01526000613c1a01526000613d6c01526000613d4b01526000613d2a01526000613e3901526000613f4701526000613f2601526000613f0501526158866000f3fe60806040526004361061014b5760003560e01c806388b62b6a116100b6578063db5827831161006f578063db5827831461052b578063eacbdb3414610568578063eb4ebfd714610591578063f3fdf06b146105ce578063f881f0001461060b578063fb1a1790146106275761014b565b806388b62b6a146103d15780639a7ff3f21461040e5780639f40f36214610437578063bba97d7614610474578063ce4580c9146104b1578063d714b651146104ee5761014b565b806359fa878e1161010857806359fa878e1461028957806363abd5cf146102c65780636e105b68146102ef5780637a0039ba1461032c5780637fd67647146103695780638042659e146103945761014b565b806312f524e0146101505780632a79d77c1461018d5780633d1c1c53146101ca5780634c5d2c8b146101f3578063561cf7f51461023057806356dde06e1461026d575b600080fd5b34801561015c57600080fd5b5061017760048036038101906101729190614162565b610652565b60405161018491906141b1565b60405180910390f35b34801561019957600080fd5b506101b460048036038101906101af91906141cc565b6107e5565b6040516101c191906141b1565b60405180910390f35b3480156101d657600080fd5b506101f160048036038101906101ec919061433f565b6108c0565b005b3480156101ff57600080fd5b5061021a60048036038101906102159190614162565b610be8565b60405161022791906141b1565b60405180910390f35b34801561023c57600080fd5b50610257600480360381019061025291906141cc565b610de9565b60405161026491906141b1565b60405180910390f35b61028760048036038101906102829190614162565b610ec4565b005b34801561029557600080fd5b506102b060048036038101906102ab91906141cc565b6111ac565b6040516102bd91906141b1565b60405180910390f35b3480156102d257600080fd5b506102ed60048036038101906102e8919061439b565b611287565b005b3480156102fb57600080fd5b50610316600480360381019061031191906141cc565b611e20565b60405161032391906141b1565b60405180910390f35b34801561033857600080fd5b50610353600480360381019061034e9190614162565b611efb565b60405161036091906143f6565b60405180910390f35b34801561037557600080fd5b5061037e61209b565b60405161038b91906141b1565b60405180910390f35b3480156103a057600080fd5b506103bb60048036038101906103b691906141cc565b6120a5565b6040516103c89190614490565b60405180910390f35b3480156103dd57600080fd5b506103f860048036038101906103f391906141cc565b612208565b60405161040591906141b1565b60405180910390f35b34801561041a57600080fd5b50610435600480360381019061043091906144b2565b6122e3565b005b34801561044357600080fd5b5061045e60048036038101906104599190614162565b612585565b60405161046b9190614490565b60405180910390f35b34801561048057600080fd5b5061049b600480360381019061049691906141cc565b6127a0565b6040516104a89190614490565b60405180910390f35b3480156104bd57600080fd5b506104d860048036038101906104d39190614162565b612874565b6040516104e591906141b1565b60405180910390f35b3480156104fa57600080fd5b5061051560048036038101906105109190614162565b612a07565b604051610522919061450a565b60405180910390f35b34801561053757600080fd5b50610552600480360381019061054d9190614162565b612bba565b60405161055f91906141b1565b60405180910390f35b34801561057457600080fd5b5061058f600480360381019061058a91906144b2565b612d4d565b005b34801561059d57600080fd5b506105b860048036038101906105b39190614525565b612f57565b6040516105c5919061450a565b60405180910390f35b3480156105da57600080fd5b506105f560048036038101906105f09190614162565b612f94565b60405161060291906141b1565b60405180910390f35b61062560048036038101906106209190614552565b6134a5565b005b34801561063357600080fd5b5061063c613ba8565b60405161064991906141b1565b60405180910390f35b6000600460008473ffffffffffffffffffffffffffffffffffffffff1673ffffffffffffffffffffffffffffffffffffffff16815260200190815260200160002060030160009054906101000a900460ff166106e3576040517f08c379a00000000000000000000000000000000000000000000000000000000081526004016106da90614604565b60405180910390fd5b600460008473ffffffffffffffffffffffffffffffffffffffff1673ffffffffffffffffffffffffffffffffffffffff168152602001908152602001600020600401600083815260200190815260200160002060050160009054906101000a900460ff16610786576040517f08c379a000000000000000000000000000000000000000000000000000000000815260040161077d90614696565b60405180910390fd5b600460008473ffffffffffffffffffffffffffffffffffffffff1673ffffffffffffffffffffffffffffffffffffffff168152602001908152602001600020600401600083815260200190815260200160002060030154905092915050565b6000600560008373ffffffffffffffffffffffffffffffffffffffff1673ffffffffffffffffffffffffffffffffffffffff16815260200190815260200160002060030160009054906101000a900460ff16610876576040517f08c379a000000000000000000000000000000000000000000000000000000000815260040161086d90614728565b60405180910390fd5b600560008373ffffffffffffffffffffffffffffffffffffffff1673ffffffffffffffffffffffffffffffffffffffff168152602001908152602001600020600801549050919050565b600460003373ffffffffffffffffffffffffffffffffffffffff1673ffffffffffffffffffffffffffffffffffffffff16815260200190815260200160002060030160009054906101000a900460ff1661094f576040517f08c379a0000000000000000000000000000000000000000000000000000000008152600401610946906147ba565b60405180910390fd5b6000600460003373ffffffffffffffffffffffffffffffffffffffff1673ffffffffffffffffffffffffffffffffffffffff1681526020019081526020016000209050600081600401600083600501600081546109ab90614809565b9190508190558152602001908152602001600020905081600501548160000181905550838160010190816109df9190614a5d565b50338160020160006101000a81548173ffffffffffffffffffffffffffffffffffffffff021916908373ffffffffffffffffffffffffffffffffffffffff1602179055508281600301819055506000816004018190555060008160070181905550670de0b6b3a7640000816008018190555060018160050160006101000a81548160ff02191690831515021790555080826004016000846005015481526020019081526020016000206000820154816000015560018201816001019081610aa69190614b45565b506002820160009054906101000a900473ffffffffffffffffffffffffffffffffffffffff168160020160006101000a81548173ffffffffffffffffffffffffffffffffffffffff021916908373ffffffffffffffffffffffffffffffffffffffff16021790555060038201548160030155600482015481600401556005820160009054906101000a900460ff168160050160006101000a81548160ff0219169083151502179055506006820154816006015560078201548160070155600882015481600801559050507f827f91e7f4fbb905bd650f742c7af7b1b989f3eb56bb80e8faf09038583b72ef81600101826003015483600001548460020160009054906101000a900473ffffffffffffffffffffffffffffffffffffffff168660020154604051610bda959493929190614cb1565b60405180910390a150505050565b6000600560008473ffffffffffffffffffffffffffffffffffffffff1673ffffffffffffffffffffffffffffffffffffffff16815260200190815260200160002060030160009054906101000a900460ff16610c79576040517f08c379a0000000000000000000000000000000000000000000000000000000008152600401610c7090614728565b60405180910390fd5b600560008473ffffffffffffffffffffffffffffffffffffffff1673ffffffffffffffffffffffffffffffffffffffff168152602001908152602001600020600401600083815260200190815260200160002060040160169054906101000a900460ff16610d1c576040517f08c379a0000000000000000000000000000000000000000000000000000000008152600401610d1390614d7d565b60405180910390fd5b6000600560008573ffffffffffffffffffffffffffffffffffffffff1673ffffffffffffffffffffffffffffffffffffffff168152602001908152602001600020600401600084815260200190815260200160002060040160009054906101000a900473ffffffffffffffffffffffffffffffffffffffff1690506000600460008373ffffffffffffffffffffffffffffffffffffffff1673ffffffffffffffffffffffffffffffffffffffff168152602001908152602001600020600201549050809250505092915050565b6000600460008373ffffffffffffffffffffffffffffffffffffffff1673ffffffffffffffffffffffffffffffffffffffff16815260200190815260200160002060030160009054906101000a900460ff16610e7a576040517f08c379a0000000000000000000000000000000000000000000000000000000008152600401610e7190614604565b60405180910390fd5b600460008373ffffffffffffffffffffffffffffffffffffffff1673ffffffffffffffffffffffffffffffffffffffff168152602001908152602001600020600201549050919050565b6000610ed08383612f94565b90506000600560003373ffffffffffffffffffffffffffffffffffffffff1673ffffffffffffffffffffffffffffffffffffffff168152602001908152602001600020600401600084815260200190815260200160002060040160009054906101000a900473ffffffffffffffffffffffffffffffffffffffff169050813411610f8f576040517f08c379a0000000000000000000000000000000000000000000000000000000008152600401610f8690614e0f565b60405180910390fd5b60008473ffffffffffffffffffffffffffffffffffffffff1683604051610fb590614e60565b60006040518083038185875af1925050503d8060008114610ff2576040519150601f19603f3d011682016040523d82523d6000602084013e610ff7565b606091505b505090508061103b576040517f08c379a000000000000000000000000000000000000000000000000000000000815260040161103290614ec1565b60405180910390fd5b600083346110499190614ee1565b905060003373ffffffffffffffffffffffffffffffffffffffff168260405161107190614e60565b60006040518083038185875af1925050503d80600081146110ae576040519150601f19603f3d011682016040523d82523d6000602084013e6110b3565b606091505b50509050806110f7576040517f08c379a00000000000000000000000000000000000000000000000000000000081526004016110ee90614f61565b60405180910390fd5b6001600560003373ffffffffffffffffffffffffffffffffffffffff1673ffffffffffffffffffffffffffffffffffffffff168152602001908152602001600020600401600088815260200190815260200160002060040160156101000a81548160ff0219169083151502179055507fd697a942f4836e7ea497274ffed3f921bf1317a30ea1ede32f195e6b402a489a8688868860405161119b9493929190614f81565b60405180910390a150505050505050565b6000600560008373ffffffffffffffffffffffffffffffffffffffff1673ffffffffffffffffffffffffffffffffffffffff16815260200190815260200160002060030160009054906101000a900460ff1661123d576040517f08c379a000000000000000000000000000000000000000000000000000000000815260040161123490614728565b60405180910390fd5b600560008373ffffffffffffffffffffffffffffffffffffffff1673ffffffffffffffffffffffffffffffffffffffff168152602001908152602001600020600201549050919050565b600560003373ffffffffffffffffffffffffffffffffffffffff1673ffffffffffffffffffffffffffffffffffffffff16815260200190815260200160002060030160009054906101000a900460ff16611316576040517f08c379a000000000000000000000000000000000000000000000000000000000815260040161130d90615012565b60405180910390fd5b600560003373ffffffffffffffffffffffffffffffffffffffff1673ffffffffffffffffffffffffffffffffffffffff168152602001908152602001600020600401600082815260200190815260200160002060040160169054906101000a900460ff166113b9576040517f08c379a00000000000000000000000000000000000000000000000000000000081526004016113b0906150a4565b60405180910390fd5b60001515600560003373ffffffffffffffffffffffffffffffffffffffff1673ffffffffffffffffffffffffffffffffffffffff168152602001908152602001600020600401600083815260200190815260200160002060040160149054906101000a900460ff16151514611463576040517f08c379a000000000000000000000000000000000000000000000000000000000815260040161145a90615136565b60405180910390fd5b6000600560003373ffffffffffffffffffffffffffffffffffffffff1673ffffffffffffffffffffffffffffffffffffffff168152602001908152602001600020600401600083815260200190815260200160002060040160009054906101000a900473ffffffffffffffffffffffffffffffffffffffff1690506000600560003373ffffffffffffffffffffffffffffffffffffffff1673ffffffffffffffffffffffffffffffffffffffff16815260200190815260200160002060040160008481526020019081526020016000206003015490506000600460008473ffffffffffffffffffffffffffffffffffffffff1673ffffffffffffffffffffffffffffffffffffffff16815260200190815260200160002060040160008381526020019081526020016000206003015490506000603c600560003373ffffffffffffffffffffffffffffffffffffffff1673ffffffffffffffffffffffffffffffffffffffff16815260200190815260200160002060070154426115e69190614ee1565b6115f09190615185565b9050600080600560003373ffffffffffffffffffffffffffffffffffffffff1673ffffffffffffffffffffffffffffffffffffffff1681526020019081526020016000206005015490505b6001811061182b578573ffffffffffffffffffffffffffffffffffffffff16600560003373ffffffffffffffffffffffffffffffffffffffff1673ffffffffffffffffffffffffffffffffffffffff168152602001908152602001600020600401600089815260200190815260200160002060040160009054906101000a900473ffffffffffffffffffffffffffffffffffffffff1673ffffffffffffffffffffffffffffffffffffffff16148015611749575084600560003373ffffffffffffffffffffffffffffffffffffffff1673ffffffffffffffffffffffffffffffffffffffff168152602001908152602001600020600401600089815260200190815260200160002060030154145b80156117b55750600560003373ffffffffffffffffffffffffffffffffffffffff1673ffffffffffffffffffffffffffffffffffffffff168152602001908152602001600020600401600088815260200190815260200160002060040160149054906101000a900460ff165b1561181857600560003373ffffffffffffffffffffffffffffffffffffffff1673ffffffffffffffffffffffffffffffffffffffff168152602001908152602001600020600401600088815260200190815260200160002060020154915061182b565b8080611823906151b6565b91505061163b565b50600080820361185d577f00000000000000000000000000000000000000000000000000000000000000009050611878565b603c824261186b9190614ee1565b6118759190615185565b90505b6118c6600560003373ffffffffffffffffffffffffffffffffffffffff1673ffffffffffffffffffffffffffffffffffffffff16815260200190815260200160002060090154848684613bb1565b600560003373ffffffffffffffffffffffffffffffffffffffff1673ffffffffffffffffffffffffffffffffffffffff16815260200190815260200160002060090181905550611957600560003373ffffffffffffffffffffffffffffffffffffffff1673ffffffffffffffffffffffffffffffffffffffff16815260200190815260200160002060090154613ce8565b600560003373ffffffffffffffffffffffffffffffffffffffff1673ffffffffffffffffffffffffffffffffffffffff16815260200190815260200160002060080181905550611a97600460008873ffffffffffffffffffffffffffffffffffffffff1673ffffffffffffffffffffffffffffffffffffffff168152602001908152602001600020600401600087815260200190815260200160002060080154600560003373ffffffffffffffffffffffffffffffffffffffff1673ffffffffffffffffffffffffffffffffffffffff168152602001908152602001600020600801548a600460008b73ffffffffffffffffffffffffffffffffffffffff1673ffffffffffffffffffffffffffffffffffffffff16815260200190815260200160002060040160008a815260200190815260200160002060070154613df3565b600460008873ffffffffffffffffffffffffffffffffffffffff1673ffffffffffffffffffffffffffffffffffffffff168152602001908152602001600020600401600087815260200190815260200160002060080181905550611b50600460008873ffffffffffffffffffffffffffffffffffffffff1673ffffffffffffffffffffffffffffffffffffffff168152602001908152602001600020600401600087815260200190815260200160002060080154613ec3565b600460008873ffffffffffffffffffffffffffffffffffffffff1673ffffffffffffffffffffffffffffffffffffffff168152602001908152602001600020600401600087815260200190815260200160002060070181905550600460008773ffffffffffffffffffffffffffffffffffffffff1673ffffffffffffffffffffffffffffffffffffffff16815260200190815260200160002060040160008681526020019081526020016000206006016000815480929190611c1190614809565b91905055506001600560003373ffffffffffffffffffffffffffffffffffffffff1673ffffffffffffffffffffffffffffffffffffffff168152602001908152602001600020600401600089815260200190815260200160002060040160146101000a81548160ff02191690831515021790555042600560003373ffffffffffffffffffffffffffffffffffffffff1673ffffffffffffffffffffffffffffffffffffffff16815260200190815260200160002060040160008981526020019081526020016000206002018190555042600560003373ffffffffffffffffffffffffffffffffffffffff1673ffffffffffffffffffffffffffffffffffffffff168152602001908152602001600020600701819055507fc8eace918d73b100093f09590ebd3bd2e45fcbe6f7faf08b0a90855ea61edf858587338b42600460008d73ffffffffffffffffffffffffffffffffffffffff1673ffffffffffffffffffffffffffffffffffffffff16815260200190815260200160002060040160008c815260200190815260200160002060070154600460008e73ffffffffffffffffffffffffffffffffffffffff1673ffffffffffffffffffffffffffffffffffffffff16815260200190815260200160002060040160008d815260200190815260200160002060060154604051611e0e97969594939291906151df565b60405180910390a15050505050505050565b6000600560008373ffffffffffffffffffffffffffffffffffffffff1673ffffffffffffffffffffffffffffffffffffffff16815260200190815260200160002060030160009054906101000a900460ff16611eb1576040517f08c379a0000000000000000000000000000000000000000000000000000000008152600401611ea890614728565b60405180910390fd5b600560008373ffffffffffffffffffffffffffffffffffffffff1673ffffffffffffffffffffffffffffffffffffffff168152602001908152602001600020600501549050919050565b6000600560008473ffffffffffffffffffffffffffffffffffffffff1673ffffffffffffffffffffffffffffffffffffffff16815260200190815260200160002060030160009054906101000a900460ff16611f8c576040517f08c379a0000000000000000000000000000000000000000000000000000000008152600401611f8390614728565b60405180910390fd5b600560008473ffffffffffffffffffffffffffffffffffffffff1673ffffffffffffffffffffffffffffffffffffffff168152602001908152602001600020600401600083815260200190815260200160002060040160169054906101000a900460ff1661202f576040517f08c379a000000000000000000000000000000000000000000000000000000000815260040161202690614d7d565b60405180910390fd5b600560008473ffffffffffffffffffffffffffffffffffffffff1673ffffffffffffffffffffffffffffffffffffffff168152602001908152602001600020600401600083815260200190815260200160002060040160149054906101000a900460ff16905092915050565b6000600154905090565b6060600460008373ffffffffffffffffffffffffffffffffffffffff1673ffffffffffffffffffffffffffffffffffffffff16815260200190815260200160002060030160009054906101000a900460ff16612136576040517f08c379a000000000000000000000000000000000000000000000000000000000815260040161212d90614604565b60405180910390fd5b600460008373ffffffffffffffffffffffffffffffffffffffff1673ffffffffffffffffffffffffffffffffffffffff168152602001908152602001600020600101805461218390614880565b80601f01602080910402602001604051908101604052809291908181526020018280546121af90614880565b80156121fc5780601f106121d1576101008083540402835291602001916121fc565b820191906000526020600020905b8154815290600101906020018083116121df57829003601f168201915b50505050509050919050565b6000600460008373ffffffffffffffffffffffffffffffffffffffff1673ffffffffffffffffffffffffffffffffffffffff16815260200190815260200160002060030160009054906101000a900460ff16612299576040517f08c379a000000000000000000000000000000000000000000000000000000000815260040161229090614604565b60405180910390fd5b600460008373ffffffffffffffffffffffffffffffffffffffff1673ffffffffffffffffffffffffffffffffffffffff168152602001908152602001600020600501549050919050565b600460003373ffffffffffffffffffffffffffffffffffffffff1673ffffffffffffffffffffffffffffffffffffffff16815260200190815260200160002060030160009054906101000a900460ff1615612373576040517f08c379a000000000000000000000000000000000000000000000000000000000815260040161236a906152c0565b60405180910390fd5b6000600460003373ffffffffffffffffffffffffffffffffffffffff1673ffffffffffffffffffffffffffffffffffffffff1681526020019081526020016000209050338160000160006101000a81548173ffffffffffffffffffffffffffffffffffffffff021916908373ffffffffffffffffffffffffffffffffffffffff1602179055508181600101908161240a9190614a5d565b50600080815461241990614809565b919050819055816002018190555060018160030160006101000a81548160ff0219169083151502179055506000816005018190555060008160060181905550600081600701819055508060000160009054906101000a900473ffffffffffffffffffffffffffffffffffffffff16600660008360020154815260200190815260200160002060006101000a81548173ffffffffffffffffffffffffffffffffffffffff021916908373ffffffffffffffffffffffffffffffffffffffff1602179055507f2daf7e02bff4313b1e326e8f126cffd3ff7c437229109ce78a53951ac8d70638816001018260000160009054906101000a900473ffffffffffffffffffffffffffffffffffffffff16836002015460405161253a939291906152e0565b60405180910390a16125816040518060400160405280601281526020017f53656c6c657220437265617465642061743a000000000000000000000000000081525033613fce565b5050565b6060600460008473ffffffffffffffffffffffffffffffffffffffff1673ffffffffffffffffffffffffffffffffffffffff16815260200190815260200160002060030160009054906101000a900460ff16612616576040517f08c379a000000000000000000000000000000000000000000000000000000000815260040161260d90614604565b60405180910390fd5b600460008473ffffffffffffffffffffffffffffffffffffffff1673ffffffffffffffffffffffffffffffffffffffff168152602001908152602001600020600401600083815260200190815260200160002060050160009054906101000a900460ff166126b9576040517f08c379a00000000000000000000000000000000000000000000000000000000081526004016126b090615390565b60405180910390fd5b600460008473ffffffffffffffffffffffffffffffffffffffff1673ffffffffffffffffffffffffffffffffffffffff1681526020019081526020016000206004016000838152602001908152602001600020600101805461271a90614880565b80601f016020809104026020016040519081016040528092919081815260200182805461274690614880565b80156127935780601f1061276857610100808354040283529160200191612793565b820191906000526020600020905b81548152906001019060200180831161277657829003601f168201915b5050505050905092915050565b6060600560008373ffffffffffffffffffffffffffffffffffffffff1673ffffffffffffffffffffffffffffffffffffffff16815260200190815260200160002060010180546127ef90614880565b80601f016020809104026020016040519081016040528092919081815260200182805461281b90614880565b80156128685780601f1061283d57610100808354040283529160200191612868565b820191906000526020600020905b81548152906001019060200180831161284b57829003601f168201915b50505050509050919050565b6000600560008473ffffffffffffffffffffffffffffffffffffffff1673ffffffffffffffffffffffffffffffffffffffff16815260200190815260200160002060030160009054906101000a900460ff16612905576040517f08c379a00000000000000000000000000000000000000000000000000000000081526004016128fc90614728565b60405180910390fd5b600560008473ffffffffffffffffffffffffffffffffffffffff1673ffffffffffffffffffffffffffffffffffffffff168152602001908152602001600020600401600083815260200190815260200160002060040160169054906101000a900460ff166129a8576040517f08c379a000000000000000000000000000000000000000000000000000000000815260040161299f90614d7d565b60405180910390fd5b600560008473ffffffffffffffffffffffffffffffffffffffff1673ffffffffffffffffffffffffffffffffffffffff168152602001908152602001600020600401600083815260200190815260200160002060030154905092915050565b6000600560008473ffffffffffffffffffffffffffffffffffffffff1673ffffffffffffffffffffffffffffffffffffffff16815260200190815260200160002060030160009054906101000a900460ff16612a98576040517f08c379a0000000000000000000000000000000000000000000000000000000008152600401612a8f90614728565b60405180910390fd5b600560008473ffffffffffffffffffffffffffffffffffffffff1673ffffffffffffffffffffffffffffffffffffffff168152602001908152602001600020600401600083815260200190815260200160002060040160169054906101000a900460ff16612b3b576040517f08c379a0000000000000000000000000000000000000000000000000000000008152600401612b3290614d7d565b60405180910390fd5b600560008473ffffffffffffffffffffffffffffffffffffffff1673ffffffffffffffffffffffffffffffffffffffff168152602001908152602001600020600401600083815260200190815260200160002060040160009054906101000a900473ffffffffffffffffffffffffffffffffffffffff16905092915050565b6000600460008473ffffffffffffffffffffffffffffffffffffffff1673ffffffffffffffffffffffffffffffffffffffff16815260200190815260200160002060030160009054906101000a900460ff16612c4b576040517f08c379a0000000000000000000000000000000000000000000000000000000008152600401612c4290614604565b60405180910390fd5b600460008473ffffffffffffffffffffffffffffffffffffffff1673ffffffffffffffffffffffffffffffffffffffff168152602001908152602001600020600401600083815260200190815260200160002060050160009054906101000a900460ff16612cee576040517f08c379a0000000000000000000000000000000000000000000000000000000008152600401612ce590615390565b60405180910390fd5b600460008473ffffffffffffffffffffffffffffffffffffffff1673ffffffffffffffffffffffffffffffffffffffff168152602001908152602001600020600401600083815260200190815260200160002060070154905092915050565b600560003373ffffffffffffffffffffffffffffffffffffffff1673ffffffffffffffffffffffffffffffffffffffff16815260200190815260200160002060030160009054906101000a900460ff1615612ddd576040517f08c379a0000000000000000000000000000000000000000000000000000000008152600401612dd490615422565b60405180910390fd5b6000600560003373ffffffffffffffffffffffffffffffffffffffff1673ffffffffffffffffffffffffffffffffffffffff1681526020019081526020016000209050338160000160006101000a81548173ffffffffffffffffffffffffffffffffffffffff021916908373ffffffffffffffffffffffffffffffffffffffff16021790555081816001019081612e749190614a5d565b50600160008154612e8490614809565b919050819055816002018190555060018160030160006101000a81548160ff0219169083151502179055506000816006018190555060008160050181905550670de0b6b3a76400008160090181905550600081600801819055504281600701819055507f72d8d6c2563f662f27728e50439bc8ace9286edca723199ecc8b1e68b5f3c16a816001018260000160009054906101000a900473ffffffffffffffffffffffffffffffffffffffff1683600201548460080154604051612f4b9493929190615442565b60405180910390a15050565b60006006600083815260200190815260200160002060009054906101000a900473ffffffffffffffffffffffffffffffffffffffff169050919050565b6000600560008473ffffffffffffffffffffffffffffffffffffffff1673ffffffffffffffffffffffffffffffffffffffff16815260200190815260200160002060030160009054906101000a900460ff16613025576040517f08c379a000000000000000000000000000000000000000000000000000000000815260040161301c90615012565b60405180910390fd5b600560003373ffffffffffffffffffffffffffffffffffffffff1673ffffffffffffffffffffffffffffffffffffffff168152602001908152602001600020600401600083815260200190815260200160002060040160169054906101000a900460ff166130c8576040517f08c379a00000000000000000000000000000000000000000000000000000000081526004016130bf906150a4565b60405180910390fd5b60001515600560003373ffffffffffffffffffffffffffffffffffffffff1673ffffffffffffffffffffffffffffffffffffffff168152602001908152602001600020600401600084815260200190815260200160002060040160159054906101000a900460ff16151514613172576040517f08c379a000000000000000000000000000000000000000000000000000000000815260040161316990615500565b60405180910390fd5b6000600560003373ffffffffffffffffffffffffffffffffffffffff1673ffffffffffffffffffffffffffffffffffffffff168152602001908152602001600020600401600084815260200190815260200160002060040160009054906101000a900473ffffffffffffffffffffffffffffffffffffffff1690508073ffffffffffffffffffffffffffffffffffffffff163373ffffffffffffffffffffffffffffffffffffffff161461325b576040517f08c379a00000000000000000000000000000000000000000000000000000000081526004016132529061556c565b60405180910390fd5b6000600560003373ffffffffffffffffffffffffffffffffffffffff1673ffffffffffffffffffffffffffffffffffffffff1681526020019081526020016000206004016000858152602001908152602001600020600301549050600460003373ffffffffffffffffffffffffffffffffffffffff1673ffffffffffffffffffffffffffffffffffffffff168152602001908152602001600020600401600082815260200190815260200160002060050160009054906101000a900460ff16613359576040517f08c379a0000000000000000000000000000000000000000000000000000000008152600401613350906155d8565b60405180910390fd5b6000600460008473ffffffffffffffffffffffffffffffffffffffff1673ffffffffffffffffffffffffffffffffffffffff16815260200190815260200160002060040160008381526020019081526020016000206003015490506000600560003373ffffffffffffffffffffffffffffffffffffffff1673ffffffffffffffffffffffffffffffffffffffff168152602001908152602001600020600801549050600260009054906101000a900473ffffffffffffffffffffffffffffffffffffffff1673ffffffffffffffffffffffffffffffffffffffff166302345e0582846040518363ffffffff1660e01b81526004016134589291906155f8565b602060405180830381865afa158015613475573d6000803e3d6000fd5b505050506040513d601f19601f820116820180604052508101906134999190615636565b94505050505092915050565b600560003373ffffffffffffffffffffffffffffffffffffffff1673ffffffffffffffffffffffffffffffffffffffff16815260200190815260200160002060030160009054906101000a900460ff16613534576040517f08c379a000000000000000000000000000000000000000000000000000000000815260040161352b90615012565b60405180910390fd5b600460008273ffffffffffffffffffffffffffffffffffffffff1673ffffffffffffffffffffffffffffffffffffffff168152602001908152602001600020600401600083815260200190815260200160002060050160009054906101000a900460ff166135d7576040517f08c379a00000000000000000000000000000000000000000000000000000000081526004016135ce906155d8565b60405180910390fd5b600460008273ffffffffffffffffffffffffffffffffffffffff1673ffffffffffffffffffffffffffffffffffffffff168152602001908152602001600020600401600083815260200190815260200160002060030154341461366f576040517f08c379a000000000000000000000000000000000000000000000000000000000815260040161366690614e0f565b60405180910390fd5b60008173ffffffffffffffffffffffffffffffffffffffff163460405161369590614e60565b60006040518083038185875af1925050503d80600081146136d2576040519150601f19603f3d011682016040523d82523d6000602084013e6136d7565b606091505b505090508061371b576040517f08c379a000000000000000000000000000000000000000000000000000000000815260040161371290614ec1565b60405180910390fd5b6000600560003373ffffffffffffffffffffffffffffffffffffffff1673ffffffffffffffffffffffffffffffffffffffff1681526020019081526020016000206005016000815461376c90614809565b91905081905590506000600560003373ffffffffffffffffffffffffffffffffffffffff1673ffffffffffffffffffffffffffffffffffffffff16815260200190815260200160002060040160008381526020019081526020016000209050818160000181905550428160010181905550848160030181905550838160040160006101000a81548173ffffffffffffffffffffffffffffffffffffffff021916908373ffffffffffffffffffffffffffffffffffffffff16021790555060008160040160146101000a81548160ff02191690831515021790555060008160040160156101000a81548160ff02191690831515021790555060018160040160166101000a81548160ff02191690831515021790555080600560003373ffffffffffffffffffffffffffffffffffffffff1673ffffffffffffffffffffffffffffffffffffffff1681526020019081526020016000206004016000848152602001908152602001600020600082015481600001556001820154816001015560028201548160020155600382015481600301556004820160009054906101000a900473ffffffffffffffffffffffffffffffffffffffff168160040160006101000a81548173ffffffffffffffffffffffffffffffffffffffff021916908373ffffffffffffffffffffffffffffffffffffffff1602179055506004820160149054906101000a900460ff168160040160146101000a81548160ff0219169083151502179055506004820160159054906101000a900460ff168160040160156101000a81548160ff0219169083151502179055506004820160169054906101000a900460ff168160040160166101000a81548160ff021916908315150217905550905050600460008573ffffffffffffffffffffffffffffffffffffffff1673ffffffffffffffffffffffffffffffffffffffff16815260200190815260200160002060040160008681526020019081526020016000206004016000815480929190613a5490614809565b919050555034600460008673ffffffffffffffffffffffffffffffffffffffff1673ffffffffffffffffffffffffffffffffffffffff1681526020019081526020016000206006016000828254613aab9190615663565b925050819055506001600460008673ffffffffffffffffffffffffffffffffffffffff1673ffffffffffffffffffffffffffffffffffffffff1681526020019081526020016000206007016000828254613b059190615663565b925050819055507f2a87cec993d23d666d1bf9abb68302d6a2d20ba6a5287439294d1050d92f094282868633600460008a73ffffffffffffffffffffffffffffffffffffffff1673ffffffffffffffffffffffffffffffffffffffff16815260200190815260200160002060040160008b815260200190815260200160002060030154604051613b99959493929190615697565b60405180910390a15050505050565b60008054905090565b6000610180841115613bc65760109350613bd6565b601884613bd39190615185565b93505b600260009054906101000a900473ffffffffffffffffffffffffffffffffffffffff1673ffffffffffffffffffffffffffffffffffffffff166339288c9b868686867f00000000000000000000000000000000000000000000000000000000000000007f00000000000000000000000000000000000000000000000000000000000000007f00000000000000000000000000000000000000000000000000000000000000006040518863ffffffff1660e01b8152600401613c9d97969594939291906156ea565b602060405180830381865afa158015613cba573d6000803e3d6000fd5b505050506040513d601f19601f82011682018060405250810190613cde9190615636565b9050949350505050565b6000600260009054906101000a900473ffffffffffffffffffffffffffffffffffffffff1673ffffffffffffffffffffffffffffffffffffffff166397d67bff7f00000000000000000000000000000000000000000000000000000000000000007f00000000000000000000000000000000000000000000000000000000000000007f0000000000000000000000000000000000000000000000000000000000000000866040518563ffffffff1660e01b8152600401613dab9493929190615759565b602060405180830381865afa158015613dc8573d6000803e3d6000fd5b505050506040513d601f19601f82011682018060405250810190613dec9190615636565b9050919050565b6000600260009054906101000a900473ffffffffffffffffffffffffffffffffffffffff1673ffffffffffffffffffffffffffffffffffffffff166348590bf1868686867f00000000000000000000000000000000000000000000000000000000000000006040518663ffffffff1660e01b8152600401613e7895949392919061579e565b602060405180830381865afa158015613e95573d6000803e3d6000fd5b505050506040513d601f19601f82011682018060405250810190613eb99190615636565b9050949350505050565b6000600260009054906101000a900473ffffffffffffffffffffffffffffffffffffffff1673ffffffffffffffffffffffffffffffffffffffff166397d67bff7f00000000000000000000000000000000000000000000000000000000000000007f00000000000000000000000000000000000000000000000000000000000000007f0000000000000000000000000000000000000000000000000000000000000000866040518563ffffffff1660e01b8152600401613f869493929190615759565b602060405180830381865afa158015613fa3573d6000803e3d6000fd5b505050506040513d601f19601f82011682018060405250810190613fc79190615636565b9050919050565b6140668282604051602401613fe49291906157f1565b6040516020818303038152906040527f319af333000000000000000000000000000000000000000000000000000000007bffffffffffffffffffffffffffffffffffffffffffffffffffffffff19166020820180517bffffffffffffffffffffffffffffffffffffffffffffffffffffffff838183161783525050505061406a565b5050565b614081816140796140846140a5565b63ffffffff16565b50565b60006a636f6e736f6c652e6c6f679050600080835160208501845afa505050565b6140b0819050919050565b6140b8615821565b565b6000604051905090565b600080fd5b600080fd5b600073ffffffffffffffffffffffffffffffffffffffff82169050919050565b60006140f9826140ce565b9050919050565b614109816140ee565b811461411457600080fd5b50565b60008135905061412681614100565b92915050565b6000819050919050565b61413f8161412c565b811461414a57600080fd5b50565b60008135905061415c81614136565b92915050565b60008060408385031215614179576141786140c4565b5b600061418785828601614117565b92505060206141988582860161414d565b9150509250929050565b6141ab8161412c565b82525050565b60006020820190506141c660008301846141a2565b92915050565b6000602082840312156141e2576141e16140c4565b5b60006141f084828501614117565b91505092915050565b600080fd5b600080fd5b6000601f19601f8301169050919050565b7f4e487b7100000000000000000000000000000000000000000000000000000000600052604160045260246000fd5b61424c82614203565b810181811067ffffffffffffffff8211171561426b5761426a614214565b5b80604052505050565b600061427e6140ba565b905061428a8282614243565b919050565b600067ffffffffffffffff8211156142aa576142a9614214565b5b6142b382614203565b9050602081019050919050565b82818337600083830152505050565b60006142e26142dd8461428f565b614274565b9050828152602081018484840111156142fe576142fd6141fe565b5b6143098482856142c0565b509392505050565b600082601f830112614326576143256141f9565b5b81356143368482602086016142cf565b91505092915050565b60008060408385031215614356576143556140c4565b5b600083013567ffffffffffffffff811115614374576143736140c9565b5b61438085828601614311565b92505060206143918582860161414d565b9150509250929050565b600080604083850312156143b2576143b16140c4565b5b60006143c08582860161414d565b92505060206143d18582860161414d565b9150509250929050565b60008115159050919050565b6143f0816143db565b82525050565b600060208201905061440b60008301846143e7565b92915050565b600081519050919050565b600082825260208201905092915050565b60005b8381101561444b578082015181840152602081019050614430565b60008484015250505050565b600061446282614411565b61446c818561441c565b935061447c81856020860161442d565b61448581614203565b840191505092915050565b600060208201905081810360008301526144aa8184614457565b905092915050565b6000602082840312156144c8576144c76140c4565b5b600082013567ffffffffffffffff8111156144e6576144e56140c9565b5b6144f284828501614311565b91505092915050565b614504816140ee565b82525050565b600060208201905061451f60008301846144fb565b92915050565b60006020828403121561453b5761453a6140c4565b5b60006145498482850161414d565b91505092915050565b60008060408385031215614569576145686140c4565b5b60006145778582860161414d565b925050602061458885828601614117565b9150509250929050565b7f53656c6c6572207769746820746869732077616c6c657420646f6573206e6f7460008201527f2065786973747321200000000000000000000000000000000000000000000000602082015250565b60006145ee60298361441c565b91506145f982614592565b604082019050919050565b6000602082019050818103600083015261461d816145e1565b9050919050565b7f53656c6c6572207769746820746869732070726f6475637420646f6573206e6f60008201527f7420657869737473212000000000000000000000000000000000000000000000602082015250565b6000614680602a8361441c565b915061468b82614624565b604082019050919050565b600060208201905081810360008301526146af81614673565b9050919050565b7f4275796572207769746820746869732077616c6c657420646f6573206e6f742060008201527f6578697374732120000000000000000000000000000000000000000000000000602082015250565b600061471260288361441c565b915061471d826146b6565b604082019050919050565b6000602082019050818103600083015261474181614705565b9050919050565b7f53656c6c6572207769746820746869732077616c6c657420646f6573206e6f7460008201527f2065786973747321000000000000000000000000000000000000000000000000602082015250565b60006147a460288361441c565b91506147af82614748565b604082019050919050565b600060208201905081810360008301526147d381614797565b9050919050565b7f4e487b7100000000000000000000000000000000000000000000000000000000600052601160045260246000fd5b60006148148261412c565b91507fffffffffffffffffffffffffffffffffffffffffffffffffffffffffffffffff8203614846576148456147da565b5b600182019050919050565b7f4e487b7100000000000000000000000000000000000000000000000000000000600052602260045260246000fd5b6000600282049050600182168061489857607f821691505b6020821081036148ab576148aa614851565b5b50919050565b60008190508160005260206000209050919050565b60006020601f8301049050919050565b600082821b905092915050565b6000600883026149137fffffffffffffffffffffffffffffffffffffffffffffffffffffffffffffffff826148d6565b61491d86836148d6565b95508019841693508086168417925050509392505050565b6000819050919050565b600061495a6149556149508461412c565b614935565b61412c565b9050919050565b6000819050919050565b6149748361493f565b61498861498082614961565b8484546148e3565b825550505050565b600090565b61499d614990565b6149a881848461496b565b505050565b5b818110156149cc576149c1600082614995565b6001810190506149ae565b5050565b601f821115614a11576149e2816148b1565b6149eb846148c6565b810160208510156149fa578190505b614a0e614a06856148c6565b8301826149ad565b50505b505050565b600082821c905092915050565b6000614a3460001984600802614a16565b1980831691505092915050565b6000614a4d8383614a23565b9150826002028217905092915050565b614a6682614411565b67ffffffffffffffff811115614a7f57614a7e614214565b5b614a898254614880565b614a948282856149d0565b600060209050601f831160018114614ac75760008415614ab5578287015190505b614abf8582614a41565b865550614b27565b601f198416614ad5866148b1565b60005b82811015614afd57848901518255600182019150602085019450602081019050614ad8565b86831015614b1a5784890151614b16601f891682614a23565b8355505b6001600288020188555050505b505050505050565b600081549050614b3e81614880565b9050919050565b818103614b53575050614c2b565b614b5c82614b2f565b67ffffffffffffffff811115614b7557614b74614214565b5b614b7f8254614880565b614b8a8282856149d0565b6000601f831160018114614bb95760008415614ba7578287015490505b614bb18582614a41565b865550614c24565b601f198416614bc7876148b1565b9650614bd2866148b1565b60005b82811015614bfa57848901548255600182019150600185019450602081019050614bd5565b86831015614c175784890154614c13601f891682614a23565b8355505b6001600288020188555050505b5050505050505b565b60008154614c3a81614880565b614c44818661441c565b94506001821660008114614c5f5760018114614c7557614ca8565b60ff198316865281151560200286019350614ca8565b614c7e856148b1565b60005b83811015614ca057815481890152600182019150602081019050614c81565b808801955050505b50505092915050565b600060a0820190508181036000830152614ccb8188614c2d565b9050614cda60208301876141a2565b614ce760408301866141a2565b614cf460608301856144fb565b614d0160808301846141a2565b9695505050505050565b7f54786e20494420696e207468652073656c6c657220646f6573206e6f7420657860008201527f6973747321200000000000000000000000000000000000000000000000000000602082015250565b6000614d6760268361441c565b9150614d7282614d0b565b604082019050919050565b60006020820190508181036000830152614d9681614d5a565b9050919050565b7f457468657273206e6f7420656e6f7567682f746f6f206d75636820746f20627560008201527f79207468652070726f6475637421000000000000000000000000000000000000602082015250565b6000614df9602e8361441c565b9150614e0482614d9d565b604082019050919050565b60006020820190508181036000830152614e2881614dec565b9050919050565b600081905092915050565b50565b6000614e4a600083614e2f565b9150614e5582614e3a565b600082019050919050565b6000614e6b82614e3d565b9150819050919050565b7f4661696c656420746f2073656e64206574686572000000000000000000000000600082015250565b6000614eab60148361441c565b9150614eb682614e75565b602082019050919050565b60006020820190508181036000830152614eda81614e9e565b9050919050565b6000614eec8261412c565b9150614ef78361412c565b9250828203905081811115614f0f57614f0e6147da565b5b92915050565b7f4661696c656420746f2072657475726e2072656d61696e696e67206574686572600082015250565b6000614f4b60208361441c565b9150614f5682614f15565b602082019050919050565b60006020820190508181036000830152614f7a81614f3e565b9050919050565b6000608082019050614f9660008301876141a2565b614fa360208301866144fb565b614fb060408301856144fb565b614fbd60608301846141a2565b95945050505050565b7f5468697320627579657220646f6573206e6f7420657869737421000000000000600082015250565b6000614ffc601a8361441c565b915061500782614fc6565b602082019050919050565b6000602082019050818103600083015261502b81614fef565b9050919050565b7f427579657220646f6573206e6f7420686176652074686973207472616e73616360008201527f74696f6e20494421000000000000000000000000000000000000000000000000602082015250565b600061508e60288361441c565b915061509982615032565b604082019050919050565b600060208201905081810360008301526150bd81615081565b9050919050565b7f427579657220616c72656164792072657669657765642074686973207472616e60008201527f73616374696f6e20494421000000000000000000000000000000000000000000602082015250565b6000615120602b8361441c565b915061512b826150c4565b604082019050919050565b6000602082019050818103600083015261514f81615113565b9050919050565b7f4e487b7100000000000000000000000000000000000000000000000000000000600052601260045260246000fd5b60006151908261412c565b915061519b8361412c565b9250826151ab576151aa615156565b5b828204905092915050565b60006151c18261412c565b9150600082036151d4576151d36147da565b5b600182039050919050565b600060e0820190506151f4600083018a6141a2565b61520160208301896144fb565b61520e60408301886144fb565b61521b60608301876141a2565b61522860808301866141a2565b61523560a08301856141a2565b61524260c08301846141a2565b98975050505050505050565b7f53656c6c6572207769746820746869732077616c6c657420616c72656164792060008201527f6578697374732100000000000000000000000000000000000000000000000000602082015250565b60006152aa60278361441c565b91506152b58261524e565b604082019050919050565b600060208201905081810360008301526152d98161529d565b9050919050565b600060608201905081810360008301526152fa8186614c2d565b905061530960208301856144fb565b61531660408301846141a2565b949350505050565b7f50726f64756374494420696e207468652073656c6c657220646f6573206e6f7460008201527f2065786973747321200000000000000000000000000000000000000000000000602082015250565b600061537a60298361441c565b91506153858261531e565b604082019050919050565b600060208201905081810360008301526153a98161536d565b9050919050565b7f4275796572207769746820746869732077616c6c657420616c7265616479206560008201527f7869737473210000000000000000000000000000000000000000000000000000602082015250565b600061540c60268361441c565b9150615417826153b0565b604082019050919050565b6000602082019050818103600083015261543b816153ff565b9050919050565b6000608082019050818103600083015261545c8187614c2d565b905061546b60208301866144fb565b61547860408301856141a2565b61548560608301846141a2565b95945050505050565b7f427579657220616c726561647920676f7420696e63656e7469766520666f722060008201527f74686973207472616e73616374696f6e20494421000000000000000000000000602082015250565b60006154ea60348361441c565b91506154f58261548e565b604082019050919050565b60006020820190508181036000830152615519816154dd565b9050919050565b7f596f7520646964206e6f742073656c6c20746f20746869732062757965722100600082015250565b6000615556601f8361441c565b915061556182615520565b602082019050919050565b6000602082019050818103600083015261558581615549565b9050919050565b7f5468652050726f6475637420646f6573206e6f74206578697374210000000000600082015250565b60006155c2601b8361441c565b91506155cd8261558c565b602082019050919050565b600060208201905081810360008301526155f1816155b5565b9050919050565b600060408201905061560d60008301856141a2565b61561a60208301846141a2565b9392505050565b60008151905061563081614136565b92915050565b60006020828403121561564c5761564b6140c4565b5b600061565a84828501615621565b91505092915050565b600061566e8261412c565b91506156798361412c565b9250828201905080821115615691576156906147da565b5b92915050565b600060a0820190506156ac60008301886141a2565b6156b960208301876141a2565b6156c660408301866144fb565b6156d360608301856144fb565b6156e060808301846141a2565b9695505050505050565b600060e0820190506156ff600083018a6141a2565b61570c60208301896141a2565b61571960408301886141a2565b61572660608301876141a2565b61573360808301866141a2565b61574060a08301856141a2565b61574d60c08301846141a2565b98975050505050505050565b600060808201905061576e60008301876141a2565b61577b60208301866141a2565b61578860408301856141a2565b61579560608301846141a2565b95945050505050565b600060a0820190506157b360008301886141a2565b6157c060208301876141a2565b6157cd60408301866141a2565b6157da60608301856141a2565b6157e760808301846141a2565b9695505050505050565b6000604082019050818103600083015261580b8185614457565b905061581a60208301846144fb565b9392505050565b7f4e487b7100000000000000000000000000000000000000000000000000000000600052605160045260246000fdfea2646970667358221220deed08f8979ca55c37d5c9c8c6a6e0ca631a48c60173e6722b7cd67a1d9aeae164736f6c63430008150033608060405234801561001057600080fd5b50611572806100206000396000f3fe608060405234801561001057600080fd5b50600436106101005760003560e01c80637081c39c11610097578063b67d77c511610066578063b67d77c514610345578063b71d55d614610375578063c8a4ac9c146103a5578063fd57aafa146103d557610100565b80637081c39c14610285578063771602f7146102b557806397d67bff146102e5578063a391c15b1461031557610100565b806339288c9b116100d357806339288c9b146101c557806339cd63eb146101f557806348590bf114610225578063677342ce1461025557610100565b806302345e051461010557806303d0cea014610135578063071490b3146101655780632862b2e214610195575b600080fd5b61011f600480360381019061011a9190611142565b610405565b60405161012c9190611191565b60405180910390f35b61014f600480360381019061014a91906111ac565b610440565b60405161015c9190611191565b60405180910390f35b61017f600480360381019061017a91906111d9565b610457565b60405161018c9190611191565b60405180910390f35b6101af60048036038101906101aa9190611142565b61057a565b6040516101bc9190611191565b60405180910390f35b6101df60048036038101906101da9190611240565b6105a2565b6040516101ec9190611191565b60405180910390f35b61020f600480360381019061020a91906112e2565b6106ec565b60405161021c9190611191565b60405180910390f35b61023f600480360381019061023a9190611335565b61071c565b60405161024c9190611191565b60405180910390f35b61026f600480360381019061026a91906111ac565b6107d7565b60405161027c9190611191565b60405180910390f35b61029f600480360381019061029a91906111d9565b6107e9565b6040516102ac9190611191565b60405180910390f35b6102cf60048036038101906102ca9190611142565b6108d4565b6040516102dc9190611191565b60405180910390f35b6102ff60048036038101906102fa91906111d9565b6108fe565b60405161030c9190611191565b60405180910390f35b61032f600480360381019061032a9190611142565b61094f565b60405161033c9190611191565b60405180910390f35b61035f600480360381019061035a9190611142565b61096c565b60405161036c9190611191565b60405180910390f35b61038f600480360381019061038a9190611335565b610996565b60405161039c9190611191565b60405180910390f35b6103bf60048036038101906103ba9190611142565b610a56565b6040516103cc9190611191565b60405180910390f35b6103ef60048036038101906103ea9190611142565b610a73565b6040516103fc9190611191565b60405180910390f35b60008061041a83670de0b6b3a764000061094f565b90506104376104298286610a56565b678ac7230489e8000061094f565b91505092915050565b60008082905061044f81610abc565b915050919050565b600082850361047b57670de0b6b3a76400008461047491906113df565b9050610572565b828511156104fa5760006104a0610492878661096c565b671bc16d674ec8000061057a565b905060006104b66104b183866108d4565b6107d7565b905060006104cd6104c7898861096c565b8361094f565b905060006104e382670de0b6b3a76400006108d4565b90506104ef8189610a56565b945050505050610572565b8285101561057157600061051f610511858861096c565b671bc16d674ec8000061057a565b9050600061053561053083866108d4565b6107d7565b9050600061054c610546878a61096c565b8361094f565b9050600061055a8289610a56565b9050610566888261096c565b945050505050610572565b5b949350505050565b60008083905060008390506105988183610d1890919063ffffffff16565b9250505092915050565b600081851061064857600061062b6105e1670de0b6b3a76400008a6105c791906113df565b8b670de0b6b3a7640000896105dc91906113df565b6106ec565b610626670de0b6b3a7640000896105f891906113df565b8c670de0b6b3a76400008861060d91906113df565b670de0b6b3a76400008a61062191906113df565b6107e9565b6108d4565b90506106408161063b898c610a73565b6108d4565b9150506106e1565b600061068d61067e670de0b6b3a76400008a61066491906113df565b8b670de0b6b3a76400008961067991906113df565b6106ec565b610688898c610a73565b6108d4565b90506106dd816106d8670de0b6b3a7640000896106aa91906113df565b8c670de0b6b3a7640000886106bf91906113df565b670de0b6b3a76400008a6106d391906113df565b6107e9565b61096c565b9150505b979650505050505050565b600061071361070d6107078468056bc75e2d6310000061094f565b8661057a565b84610a56565b90509392505050565b60008284111561077c5761077586610770670de0b6b3a76400008561074191906113df565b670de0b6b3a76400008861075591906113df565b670de0b6b3a76400008861076991906113df565b8a8c610996565b6108d4565b90506107ce565b6107cb866107c6670de0b6b3a76400008561079791906113df565b670de0b6b3a7640000886107ab91906113df565b670de0b6b3a7640000886107bf91906113df565b8a8c610996565b61096c565b90505b95945050505050565b60006107e282610d51565b9050919050565b60008285036107fb57600090506108cc565b82851115610863576000610820610812878661096c565b671bc16d674ec8000061057a565b9050600061083661083183866108d4565b6107d7565b9050600061084d610847898861096c565b8361094f565b90506108598188610a56565b93505050506108cc565b848311156108cb57600061088861087a858861096c565b671bc16d674ec8000061057a565b9050600061089e61089983866108d4565b6107d7565b905060006108b56108af878a61096c565b8361094f565b90506108c18188610a56565b93505050506108cc565b5b949350505050565b60006108e98284610dc790919063ffffffff16565b9050828110156108f857600080fd5b92915050565b600061094582670de0b6b3a76400008761091891906113df565b670de0b6b3a76400008761092c91906113df565b670de0b6b3a76400008761094091906113df565b610457565b9050949350505050565b60006109648284610dd490919063ffffffff16565b905092915050565b60008282111561097b57600080fd5b61098e8284610e1990919063ffffffff16565b905092915050565b6000838511156109f05760006109ac868661096c565b905060006109ba888361094f565b905060006109da6109cb8388610a56565b683635c9adc5dea0000061094f565b90506109e68186610a56565b9350505050610a4d565b83851015610a48576000610a04858761096c565b90506000610a12888361094f565b90506000610a32610a238388610a56565b683635c9adc5dea0000061094f565b9050610a3e8186610a56565b9350505050610a4d565b600090505b95945050505050565b6000610a6b8284610e2690919063ffffffff16565b905092915050565b600080610a8884670de0b6b3a764000061094f565b9050610a9c81670de0b6b3a76400006108d4565b9050610aa781610440565b9150610ab38284610a56565b91505092915050565b6000816fffffffffffffffffffffffffffffffff1060071b905081811c67ffffffffffffffff1060061b8117905081811c63ffffffff1060051b8117905081811c61ffff1060041b8117905081811c60ff1060031b8117905060008213610b2b57631615e6386000526004601cfd5b7ff8f9f9faf9fdfafbf9fdfcfdfafbfcfef9fafdfafcfcfbfefafafcfbffffffff6f8421084210842108cc6318c6db6d54be83831c1c601f161a8118905081811b609f1c91506c8c3f38e95a6b1ff2ab1c3b3437828384856c29508e458543d8aa4df2abee78010260601d6d0139601a2efabe717e604cbb4894010260601d6d02247f7a7b6594320649aa03aba1010260601d036d02384773bdf1ac5676facced609183820260601d0390506cb9a025d814b29c212b8b1a07ce83820260601d0390506c0a09507084cc699bb0e71ea86a60601b838202039050826c465772b2bbbb5f824b15207a300180840260601d6d0388eaa27412d5aca026815d636e01905080840260601d6d0df99ac502031bf953eff472fdcc01905080840260601d6d13cdffb29d51d99322bdff5f221101905080840260601d6d0a0f742023def783a307a986912e01905080840260601d6d01920d8043ca89b5239253284e4201905080840260601d6c0b7a86d7375468fac667a0a527019050808205915081711340daa0d5f769dba1915cef59f0815a55060291508183609f037d0267a36c0c95b3975ab3ee5b203a7614a3f75373f047d803ae7b6687f2b302019150817d57115e47018c7177eebf7cd370a3356a1b7863008a5ae8028c72b88642840191508160ae1d92505050919050565b6000610d49670de0b6b3a764000083610d3086610abc565b610d3a919061142b565b610d4491906114d2565b610e59565b905092915050565b6000633b9aca00905060016ec097ce7bc90715b34b9f10000000007fffffffffffffffffffffffffffffffffffffffffffffffffffffffffffffffff81610d9b57610d9a6114a3565b5b04038211610db557670de0b6b3a764000082029150600190505b610dbe82611049565b81029050919050565b6000818301905092915050565b6000670de0b6b3a7640000600019048311670de0b6b3a764000002158202610e0457637c5f487d6000526004601cfd5b81670de0b6b3a7640000840204905092915050565b6000818303905092915050565b600081600019048311820215610e445763bac65e5b6000526004601cfd5b670de0b6b3a764000082840204905092915050565b60007ffffffffffffffffffffffffffffffffffffffffffffffffdc0d0570925a462d782131561104457680755bf798b4a1bf1e58212610ea15763a37bfec96000526004601cfd5b6503782dace9d9604e83901b81610ebb57610eba6114a3565b5b059150600060606b8000000000000000000000006bb17217f7d1cf79abc9e3b398606086901b81610eef57610eee6114a3565b5b0501901d90506bb17217f7d1cf79abc9e3b39881028303925060006c10fe68e7fd37d0007b713f7650840190506d02d16720577bd19bf614176fe9ea6060858302901d01905060006d04a4fd9f2a8b96949216d2255a6c8583010390506e0587f503bb6ea29d25fcb7401964506060838302901d01905079d835ebba824c98fb31b83b2ca45c00000000000000000000000085820201905060006c240c330e9fb2d9cbaf0fd5aafc860390506d0277594991cfc85f6e2461837cd96060878302901d0190506d1a521255e34f6a5061b25ef1c9c46060878302901d0390506db1bbb201f443cf962f1a1d3db4a56060878302901d0190506e02c72388d9f74f51a9331fed693f156060878302901d0390506e05180bb14799ab47a8a8cb2a527d576060878302901d01905080820594508360c30374029d9dc38563c32e5c2f6dc192ee70ef65f9978af38602901c9450505050505b919050565b600060b590508170ffffffffffffffffffffffffffffffffff1060071b82811c68ffffffffffffffffff1060061b8117905082811c64ffffffffff1060051b8117905082811c62ffffff1060041b81179050818160011c1b91506201000083821c01820260121c9150818304820160011c9150818304820160011c9150818304820160011c9150818304820160011c9150818304820160011c9150818304820160011c9150818304820160011c915081828404108203915050919050565b600080fd5b6000819050919050565b61111f8161110c565b811461112a57600080fd5b50565b60008135905061113c81611116565b92915050565b6000806040838503121561115957611158611107565b5b60006111678582860161112d565b92505060206111788582860161112d565b9150509250929050565b61118b8161110c565b82525050565b60006020820190506111a66000830184611182565b92915050565b6000602082840312156111c2576111c1611107565b5b60006111d08482850161112d565b91505092915050565b600080600080608085870312156111f3576111f2611107565b5b60006112018782880161112d565b94505060206112128782880161112d565b93505060406112238782880161112d565b92505060606112348782880161112d565b91505092959194509250565b600080600080600080600060e0888a03121561125f5761125e611107565b5b600061126d8a828b0161112d565b975050602061127e8a828b0161112d565b965050604061128f8a828b0161112d565b95505060606112a08a828b0161112d565b94505060806112b18a828b0161112d565b93505060a06112c28a828b0161112d565b92505060c06112d38a828b0161112d565b91505092959891949750929550565b6000806000606084860312156112fb576112fa611107565b5b60006113098682870161112d565b935050602061131a8682870161112d565b925050604061132b8682870161112d565b9150509250925092565b600080600080600060a0868803121561135157611350611107565b5b600061135f8882890161112d565b95505060206113708882890161112d565b94505060406113818882890161112d565b93505060606113928882890161112d565b92505060806113a38882890161112d565b9150509295509295909350565b7f4e487b7100000000000000000000000000000000000000000000000000000000600052601160045260246000fd5b60006113ea8261110c565b91506113f58361110c565b92508282026114038161110c565b9150828204841483151761141a576114196113b0565b5b5092915050565b6000819050919050565b600061143682611421565b915061144183611421565b925082820261144f81611421565b91507f80000000000000000000000000000000000000000000000000000000000000008414600084121615611487576114866113b0565b5b828205841483151761149c5761149b6113b0565b5b5092915050565b7f4e487b7100000000000000000000000000000000000000000000000000000000600052601260045260246000fd5b60006114dd82611421565b91506114e883611421565b9250826114f8576114f76114a3565b5b600160000383147f800000000000000000000000000000000000000000000000000000000000000083141615611531576115306113b0565b5b82820590509291505056fea2646970667358221220a72be3fd59a2cade2423761be1cba4ef51fbcfa2abcedfc4ff08d690049c4e7664736f6c63430008150033",
  "devdoc": {
    "kind": "dev",
    "methods": {},
    "version": 1
  },
  "userdoc": {
    "kind": "user",
    "methods": {
      "buyerReview(uint256,uint256)": {
        "notice": "The buyer review function allows for a registered buyer who has already made a purchase to leave a review "
      },
      "createBuyer(string)": {
        "notice": "The create buyer function allows the wallet to register itself as a buyer and give themselves a name"
      },
      "createSeller(string)": {
        "notice": "The create seller function allows the wallet to register itself as a seller and give themselves a name"
      },
      "purchaseProduct(uint256,address)": {
        "notice": "The purchase product function allows registered wallets to purchase a product "
      },
      "retrieveTotalBuyers()": {
        "notice": "View and Pure Functions  To access the private variables via the front end"
      },
      "sendIncentive(address,uint256)": {
        "notice": "The send incentive function allows a registered seller to send an incentive to the buyer who has left them a review "
      },
      "uploadProduct(string,uint256)": {
        "notice": "The upload product function allows for a registered seller to upload a product with a product name and price in wei"
      }
    },
    "version": 1
  },
  "storageLayout": {
    "storage": [
      {
        "astId": 941,
        "contract": "Contracts/Store.sol:Store",
        "label": "totalSellers",
        "offset": 0,
        "slot": "0",
        "type": "t_uint256"
      },
      {
        "astId": 944,
        "contract": "Contracts/Store.sol:Store",
        "label": "totalBuyers",
        "offset": 0,
        "slot": "1",
        "type": "t_uint256"
      },
      {
        "astId": 977,
        "contract": "Contracts/Store.sol:Store",
        "label": "MathLib",
        "offset": 0,
        "slot": "2",
        "type": "t_contract(Math)933"
      },
      {
        "astId": 979,
        "contract": "Contracts/Store.sol:Store",
        "label": "MathLibAddress",
        "offset": 0,
        "slot": "3",
        "type": "t_address"
      },
      {
        "astId": 1064,
        "contract": "Contracts/Store.sol:Store",
        "label": "sellersList",
        "offset": 0,
        "slot": "4",
        "type": "t_mapping(t_address,t_struct(Seller)1035_storage)"
      },
      {
        "astId": 1069,
        "contract": "Contracts/Store.sol:Store",
        "label": "buyersList",
        "offset": 0,
        "slot": "5",
        "type": "t_mapping(t_address,t_struct(Buyer)1059_storage)"
      },
      {
        "astId": 1073,
        "contract": "Contracts/Store.sol:Store",
        "label": "sellersListByID",
        "offset": 0,
        "slot": "6",
        "type": "t_mapping(t_uint256,t_address)"
      }
    ],
    "types": {
      "t_address": {
        "encoding": "inplace",
        "label": "address",
        "numberOfBytes": "20"
      },
      "t_bool": {
        "encoding": "inplace",
        "label": "bool",
        "numberOfBytes": "1"
      },
      "t_contract(Math)933": {
        "encoding": "inplace",
        "label": "contract Math",
        "numberOfBytes": "20"
      },
      "t_mapping(t_address,t_struct(Buyer)1059_storage)": {
        "encoding": "mapping",
        "key": "t_address",
        "label": "mapping(address => struct Store.Buyer)",
        "numberOfBytes": "32",
        "value": "t_struct(Buyer)1059_storage"
      },
      "t_mapping(t_address,t_struct(Seller)1035_storage)": {
        "encoding": "mapping",
        "key": "t_address",
        "label": "mapping(address => struct Store.Seller)",
        "numberOfBytes": "32",
        "value": "t_struct(Seller)1035_storage"
      },
      "t_mapping(t_uint256,t_address)": {
        "encoding": "mapping",
        "key": "t_uint256",
        "label": "mapping(uint256 => address)",
        "numberOfBytes": "32",
        "value": "t_address"
      },
      "t_mapping(t_uint256,t_struct(Product)998_storage)": {
        "encoding": "mapping",
        "key": "t_uint256",
        "label": "mapping(uint256 => struct Store.Product)",
        "numberOfBytes": "32",
        "value": "t_struct(Product)998_storage"
      },
      "t_mapping(t_uint256,t_struct(Transaction)1015_storage)": {
        "encoding": "mapping",
        "key": "t_uint256",
        "label": "mapping(uint256 => struct Store.Transaction)",
        "numberOfBytes": "32",
        "value": "t_struct(Transaction)1015_storage"
      },
      "t_string_storage": {
        "encoding": "bytes",
        "label": "string",
        "numberOfBytes": "32"
      },
      "t_struct(Buyer)1059_storage": {
        "encoding": "inplace",
        "label": "struct Store.Buyer",
        "members": [
          {
            "astId": 1037,
            "contract": "Contracts/Store.sol:Store",
            "label": "buyerAddress",
            "offset": 0,
            "slot": "0",
            "type": "t_address"
          },
          {
            "astId": 1039,
            "contract": "Contracts/Store.sol:Store",
            "label": "buyerName",
            "offset": 0,
            "slot": "1",
            "type": "t_string_storage"
          },
          {
            "astId": 1041,
            "contract": "Contracts/Store.sol:Store",
            "label": "buyerID",
            "offset": 0,
            "slot": "2",
            "type": "t_uint256"
          },
          {
            "astId": 1043,
            "contract": "Contracts/Store.sol:Store",
            "label": "isExist",
            "offset": 0,
            "slot": "3",
            "type": "t_bool"
          },
          {
            "astId": 1048,
            "contract": "Contracts/Store.sol:Store",
            "label": "txnMade",
            "offset": 0,
            "slot": "4",
            "type": "t_mapping(t_uint256,t_struct(Transaction)1015_storage)"
          },
          {
            "astId": 1050,
            "contract": "Contracts/Store.sol:Store",
            "label": "numOfTxn",
            "offset": 0,
            "slot": "5",
            "type": "t_uint256"
          },
          {
            "astId": 1052,
            "contract": "Contracts/Store.sol:Store",
            "label": "numOfReviewsGiven",
            "offset": 0,
            "slot": "6",
            "type": "t_uint256"
          },
          {
            "astId": 1054,
            "contract": "Contracts/Store.sol:Store",
            "label": "lastReviewTime",
            "offset": 0,
            "slot": "7",
            "type": "t_uint256"
          },
          {
            "astId": 1056,
            "contract": "Contracts/Store.sol:Store",
            "label": "repScore",
            "offset": 0,
            "slot": "8",
            "type": "t_uint256"
          },
          {
            "astId": 1058,
            "contract": "Contracts/Store.sol:Store",
            "label": "X_Value",
            "offset": 0,
            "slot": "9",
            "type": "t_uint256"
          }
        ],
        "numberOfBytes": "320"
      },
      "t_struct(Product)998_storage": {
        "encoding": "inplace",
        "label": "struct Store.Product",
        "members": [
          {
            "astId": 981,
            "contract": "Contracts/Store.sol:Store",
            "label": "productID",
            "offset": 0,
            "slot": "0",
            "type": "t_uint256"
          },
          {
            "astId": 983,
            "contract": "Contracts/Store.sol:Store",
            "label": "productName",
            "offset": 0,
            "slot": "1",
            "type": "t_string_storage"
          },
          {
            "astId": 985,
            "contract": "Contracts/Store.sol:Store",
            "label": "sellerAddress",
            "offset": 0,
            "slot": "2",
            "type": "t_address"
          },
          {
            "astId": 987,
            "contract": "Contracts/Store.sol:Store",
            "label": "productPrice",
            "offset": 0,
            "slot": "3",
            "type": "t_uint256"
          },
          {
            "astId": 989,
            "contract": "Contracts/Store.sol:Store",
            "label": "totalSold",
            "offset": 0,
            "slot": "4",
            "type": "t_uint256"
          },
          {
            "astId": 991,
            "contract": "Contracts/Store.sol:Store",
            "label": "isExist",
            "offset": 0,
            "slot": "5",
            "type": "t_bool"
          },
          {
            "astId": 993,
            "contract": "Contracts/Store.sol:Store",
            "label": "numOfReviewsGiven",
            "offset": 0,
            "slot": "6",
            "type": "t_uint256"
          },
          {
            "astId": 995,
            "contract": "Contracts/Store.sol:Store",
            "label": "review",
            "offset": 0,
            "slot": "7",
            "type": "t_uint256"
          },
          {
            "astId": 997,
            "contract": "Contracts/Store.sol:Store",
            "label": "X_Value",
            "offset": 0,
            "slot": "8",
            "type": "t_uint256"
          }
        ],
        "numberOfBytes": "288"
      },
      "t_struct(Seller)1035_storage": {
        "encoding": "inplace",
        "label": "struct Store.Seller",
        "members": [
          {
            "astId": 1017,
            "contract": "Contracts/Store.sol:Store",
            "label": "sellerAddress",
            "offset": 0,
            "slot": "0",
            "type": "t_address"
          },
          {
            "astId": 1019,
            "contract": "Contracts/Store.sol:Store",
            "label": "sellerName",
            "offset": 0,
            "slot": "1",
            "type": "t_string_storage"
          },
          {
            "astId": 1021,
            "contract": "Contracts/Store.sol:Store",
            "label": "sellerID",
            "offset": 0,
            "slot": "2",
            "type": "t_uint256"
          },
          {
            "astId": 1023,
            "contract": "Contracts/Store.sol:Store",
            "label": "isExist",
            "offset": 0,
            "slot": "3",
            "type": "t_bool"
          },
          {
            "astId": 1028,
            "contract": "Contracts/Store.sol:Store",
            "label": "sellerProducts",
            "offset": 0,
            "slot": "4",
            "type": "t_mapping(t_uint256,t_struct(Product)998_storage)"
          },
          {
            "astId": 1030,
            "contract": "Contracts/Store.sol:Store",
            "label": "totalProducts",
            "offset": 0,
            "slot": "5",
            "type": "t_uint256"
          },
          {
            "astId": 1032,
            "contract": "Contracts/Store.sol:Store",
            "label": "totalRevenue",
            "offset": 0,
            "slot": "6",
            "type": "t_uint256"
          },
          {
            "astId": 1034,
            "contract": "Contracts/Store.sol:Store",
            "label": "numOfSales",
            "offset": 0,
            "slot": "7",
            "type": "t_uint256"
          }
        ],
        "numberOfBytes": "256"
      },
      "t_struct(Transaction)1015_storage": {
        "encoding": "inplace",
        "label": "struct Store.Transaction",
        "members": [
          {
            "astId": 1000,
            "contract": "Contracts/Store.sol:Store",
            "label": "txnID",
            "offset": 0,
            "slot": "0",
            "type": "t_uint256"
          },
          {
            "astId": 1002,
            "contract": "Contracts/Store.sol:Store",
            "label": "timeStampBought",
            "offset": 0,
            "slot": "1",
            "type": "t_uint256"
          },
          {
            "astId": 1004,
            "contract": "Contracts/Store.sol:Store",
            "label": "timeStampReviewed",
            "offset": 0,
            "slot": "2",
            "type": "t_uint256"
          },
          {
            "astId": 1006,
            "contract": "Contracts/Store.sol:Store",
            "label": "purchasedProductID",
            "offset": 0,
            "slot": "3",
            "type": "t_uint256"
          },
          {
            "astId": 1008,
            "contract": "Contracts/Store.sol:Store",
            "label": "sellerAddress",
            "offset": 0,
            "slot": "4",
            "type": "t_address"
          },
          {
            "astId": 1010,
            "contract": "Contracts/Store.sol:Store",
            "label": "reviewed",
            "offset": 20,
            "slot": "4",
            "type": "t_bool"
          },
          {
            "astId": 1012,
            "contract": "Contracts/Store.sol:Store",
            "label": "receivedIncentive",
            "offset": 21,
            "slot": "4",
            "type": "t_bool"
          },
          {
            "astId": 1014,
            "contract": "Contracts/Store.sol:Store",
            "label": "isExist",
            "offset": 22,
            "slot": "4",
            "type": "t_bool"
          }
        ],
        "numberOfBytes": "160"
      },
      "t_uint256": {
        "encoding": "inplace",
        "label": "uint256",
        "numberOfBytes": "32"
      }
    }
  }
}