{
  "address": "0x5FbDB2315678afecb367f032d93F642f64180aa3",
  "abi": [
    {
      "inputs": [],
      "stateMutability": "nonpayable",
      "type": "constructor"
    },
    {
      "anonymous": false,
      "inputs": [
        {
          "indexed": false,
          "internalType": "uint256",
          "name": "productID",
          "type": "uint256"
        },
        {
          "indexed": false,
          "internalType": "address",
          "name": "sellerAddress",
          "type": "address"
        },
        {
          "indexed": false,
          "internalType": "address",
          "name": "buyerAddress",
          "type": "address"
        },
        {
          "indexed": false,
          "internalType": "uint256",
          "name": "buyerRating",
          "type": "uint256"
        },
        {
          "indexed": false,
          "internalType": "uint256",
          "name": "timeStamp",
          "type": "uint256"
        },
        {
          "indexed": false,
          "internalType": "uint256",
          "name": "finalProductRating",
          "type": "uint256"
        },
        {
          "indexed": false,
          "internalType": "uint256",
          "name": "totalReviews",
          "type": "uint256"
        }
      ],
      "name": "buyerReviewEvent",
      "type": "event"
    },
    {
      "anonymous": false,
      "inputs": [
        {
          "indexed": false,
          "internalType": "string",
          "name": "buyerName",
          "type": "string"
        },
        {
          "indexed": false,
          "internalType": "address",
          "name": "buyerAddress",
          "type": "address"
        },
        {
          "indexed": false,
          "internalType": "uint256",
          "name": "buyerID",
          "type": "uint256"
        },
        {
          "indexed": false,
          "internalType": "uint256",
          "name": "repScore",
          "type": "uint256"
        }
      ],
      "name": "createBuyerEvent",
      "type": "event"
    },
    {
      "anonymous": false,
      "inputs": [
        {
          "indexed": false,
          "internalType": "string",
          "name": "sellerName",
          "type": "string"
        },
        {
          "indexed": false,
          "internalType": "address",
          "name": "sellerAddress",
          "type": "address"
        },
        {
          "indexed": false,
          "internalType": "uint256",
          "name": "sellerID",
          "type": "uint256"
        }
      ],
      "name": "createSellerEvent",
      "type": "event"
    },
    {
      "anonymous": false,
      "inputs": [
        {
          "indexed": false,
          "internalType": "uint256",
          "name": "txnID",
          "type": "uint256"
        },
        {
          "indexed": false,
          "internalType": "address",
          "name": "buyerAddress",
          "type": "address"
        },
        {
          "indexed": false,
          "internalType": "address",
          "name": "sellerAddress",
          "type": "address"
        },
        {
          "indexed": false,
          "internalType": "uint256",
          "name": "reward",
          "type": "uint256"
        },
        {
          "indexed": false,
          "internalType": "uint256",
          "name": "sellerRefund",
          "type": "uint256"
        },
        {
          "indexed": false,
          "internalType": "uint256",
          "name": "RepScore",
          "type": "uint256"
        }
      ],
      "name": "incentiveReceived",
      "type": "event"
    },
    {
      "anonymous": false,
      "inputs": [
        {
          "indexed": false,
          "internalType": "uint256",
          "name": "txnID",
          "type": "uint256"
        },
        {
          "indexed": false,
          "internalType": "uint256",
          "name": "productID",
          "type": "uint256"
        },
        {
          "indexed": false,
          "internalType": "address",
          "name": "sellerAddress",
          "type": "address"
        },
        {
          "indexed": false,
          "internalType": "address",
          "name": "buyerAddress",
          "type": "address"
        },
        {
          "indexed": false,
          "internalType": "uint256",
          "name": "price",
          "type": "uint256"
        }
      ],
      "name": "purchasedProductsEvent",
      "type": "event"
    },
    {
      "anonymous": false,
      "inputs": [
        {
          "indexed": false,
          "internalType": "string",
          "name": "productName",
          "type": "string"
        },
        {
          "indexed": false,
          "internalType": "uint256",
          "name": "price",
          "type": "uint256"
        },
        {
          "indexed": false,
          "internalType": "uint256",
          "name": "productID",
          "type": "uint256"
        },
        {
          "indexed": false,
          "internalType": "address",
          "name": "sellerAddress",
          "type": "address"
        },
        {
          "indexed": false,
          "internalType": "uint256",
          "name": "sellerID",
          "type": "uint256"
        }
      ],
      "name": "uploadProductEvent",
      "type": "event"
    },
    {
      "inputs": [
        {
          "internalType": "uint256",
          "name": "buyerRating",
          "type": "uint256"
        },
        {
          "internalType": "uint256",
          "name": "txnID",
          "type": "uint256"
        }
      ],
      "name": "buyerReview",
      "outputs": [],
      "stateMutability": "nonpayable",
      "type": "function"
    },
    {
      "inputs": [
        {
          "internalType": "address",
          "name": "buyerAddress",
          "type": "address"
        },
        {
          "internalType": "uint256",
          "name": "txnID",
          "type": "uint256"
        }
      ],
      "name": "calculateIncentive",
      "outputs": [
        {
          "internalType": "uint256",
          "name": "reward",
          "type": "uint256"
        }
      ],
      "stateMutability": "view",
      "type": "function"
    },
    {
      "inputs": [
        {
          "internalType": "string",
          "name": "_buyerName",
          "type": "string"
        }
      ],
      "name": "createBuyer",
      "outputs": [],
      "stateMutability": "nonpayable",
      "type": "function"
    },
    {
      "inputs": [
        {
          "internalType": "string",
          "name": "_sellerName",
          "type": "string"
        }
      ],
      "name": "createSeller",
      "outputs": [],
      "stateMutability": "nonpayable",
      "type": "function"
    },
    {
      "inputs": [
        {
          "internalType": "uint256",
          "name": "productID",
          "type": "uint256"
        },
        {
          "internalType": "address",
          "name": "sellerAddress",
          "type": "address"
        }
      ],
      "name": "purchaseProduct",
      "outputs": [],
      "stateMutability": "payable",
      "type": "function"
    },
    {
      "inputs": [
        {
          "internalType": "address",
          "name": "_buyerAddress",
          "type": "address"
        }
      ],
      "name": "retrieveBuyerID",
      "outputs": [
        {
          "internalType": "uint256",
          "name": "",
          "type": "uint256"
        }
      ],
      "stateMutability": "view",
      "type": "function"
    },
    {
      "inputs": [
        {
          "internalType": "address",
          "name": "buyerAddress",
          "type": "address"
        }
      ],
      "name": "retrieveBuyerName",
      "outputs": [
        {
          "internalType": "string",
          "name": "",
          "type": "string"
        }
      ],
      "stateMutability": "view",
      "type": "function"
    },
    {
      "inputs": [
        {
          "internalType": "address",
          "name": "_buyerAddress",
          "type": "address"
        }
      ],
      "name": "retrieveBuyerRepScore",
      "outputs": [
        {
          "internalType": "uint256",
          "name": "",
          "type": "uint256"
        }
      ],
      "stateMutability": "view",
      "type": "function"
    },
    {
      "inputs": [
        {
          "internalType": "address",
          "name": "_buyerAddress",
          "type": "address"
        }
      ],
      "name": "retrieveBuyerTotalTransactions",
      "outputs": [
        {
          "internalType": "uint256",
          "name": "",
          "type": "uint256"
        }
      ],
      "stateMutability": "view",
      "type": "function"
    },
    {
      "inputs": [
        {
          "internalType": "uint256",
          "name": "sellerID",
          "type": "uint256"
        }
      ],
      "name": "retrieveSellerAddress",
      "outputs": [
        {
          "internalType": "address",
          "name": "sellerAddress",
          "type": "address"
        }
      ],
      "stateMutability": "view",
      "type": "function"
    },
    {
      "inputs": [
        {
          "internalType": "address",
          "name": "_sellerAddress",
          "type": "address"
        }
      ],
      "name": "retrieveSellerID",
      "outputs": [
        {
          "internalType": "uint256",
          "name": "",
          "type": "uint256"
        }
      ],
      "stateMutability": "view",
      "type": "function"
    },
    {
      "inputs": [
        {
          "internalType": "address",
          "name": "_sellerAddress",
          "type": "address"
        }
      ],
      "name": "retrieveSellerName",
      "outputs": [
        {
          "internalType": "string",
          "name": "",
          "type": "string"
        }
      ],
      "stateMutability": "view",
      "type": "function"
    },
    {
      "inputs": [
        {
          "internalType": "address",
          "name": "_sellerAddress",
          "type": "address"
        }
      ],
      "name": "retrieveSellerTotalProducts",
      "outputs": [
        {
          "internalType": "uint256",
          "name": "",
          "type": "uint256"
        }
      ],
      "stateMutability": "view",
      "type": "function"
    },
    {
      "inputs": [],
      "name": "retrieveTotalBuyers",
      "outputs": [
        {
          "internalType": "uint256",
          "name": "",
          "type": "uint256"
        }
      ],
      "stateMutability": "view",
      "type": "function"
    },
    {
      "inputs": [],
      "name": "retrieveTotalSellers",
      "outputs": [
        {
          "internalType": "uint256",
          "name": "",
          "type": "uint256"
        }
      ],
      "stateMutability": "view",
      "type": "function"
    },
    {
      "inputs": [
        {
          "internalType": "address",
          "name": "buyerAddress",
          "type": "address"
        },
        {
          "internalType": "uint256",
          "name": "txnID",
          "type": "uint256"
        }
      ],
      "name": "sendIncentive",
      "outputs": [],
      "stateMutability": "payable",
      "type": "function"
    },
    {
      "inputs": [
        {
          "internalType": "string",
          "name": "_productName",
          "type": "string"
        },
        {
          "internalType": "uint256",
          "name": "price",
          "type": "uint256"
        }
      ],
      "name": "uploadProduct",
      "outputs": [],
      "stateMutability": "nonpayable",
      "type": "function"
    },
    {
      "inputs": [
        {
          "internalType": "address",
          "name": "_sellerAddress",
          "type": "address"
        },
        {
          "internalType": "uint256",
          "name": "_productID",
          "type": "uint256"
        }
      ],
      "name": "viewProductName",
      "outputs": [
        {
          "internalType": "string",
          "name": "",
          "type": "string"
        }
      ],
      "stateMutability": "view",
      "type": "function"
    },
    {
      "inputs": [
        {
          "internalType": "address",
          "name": "_sellerAddress",
          "type": "address"
        },
        {
          "internalType": "uint256",
          "name": "_productID",
          "type": "uint256"
        }
      ],
      "name": "viewProductPrice",
      "outputs": [
        {
          "internalType": "uint256",
          "name": "",
          "type": "uint256"
        }
      ],
      "stateMutability": "view",
      "type": "function"
    },
    {
      "inputs": [
        {
          "internalType": "address",
          "name": "_sellerAddress",
          "type": "address"
        },
        {
          "internalType": "uint256",
          "name": "_productID",
          "type": "uint256"
        }
      ],
      "name": "viewProductReview",
      "outputs": [
        {
          "internalType": "uint256",
          "name": "",
          "type": "uint256"
        }
      ],
      "stateMutability": "view",
      "type": "function"
    },
    {
      "inputs": [
        {
          "internalType": "address",
          "name": "_buyerAddress",
          "type": "address"
        },
        {
          "internalType": "uint256",
          "name": "_txnID",
          "type": "uint256"
        }
      ],
      "name": "viewTransactions_ProductID",
      "outputs": [
        {
          "internalType": "uint256",
          "name": "",
          "type": "uint256"
        }
      ],
      "stateMutability": "view",
      "type": "function"
    },
    {
      "inputs": [
        {
          "internalType": "address",
          "name": "_buyerAddress",
          "type": "address"
        },
        {
          "internalType": "uint256",
          "name": "_txnID",
          "type": "uint256"
        }
      ],
      "name": "viewTransactions_Reviewed",
      "outputs": [
        {
          "internalType": "bool",
          "name": "",
          "type": "bool"
        }
      ],
      "stateMutability": "view",
      "type": "function"
    },
    {
      "inputs": [
        {
          "internalType": "address",
          "name": "_buyerAddress",
          "type": "address"
        },
        {
          "internalType": "uint256",
          "name": "_txnID",
          "type": "uint256"
        }
      ],
      "name": "viewTransactions_SellerAddress",
      "outputs": [
        {
          "internalType": "address",
          "name": "sellerAddress",
          "type": "address"
        }
      ],
      "stateMutability": "view",
      "type": "function"
    },
    {
      "inputs": [
        {
          "internalType": "address",
          "name": "_buyerAddress",
          "type": "address"
        },
        {
          "internalType": "uint256",
          "name": "_txnID",
          "type": "uint256"
        }
      ],
      "name": "viewTransactions_SellerID",
      "outputs": [
        {
          "internalType": "uint256",
          "name": "",
          "type": "uint256"
        }
      ],
      "stateMutability": "view",
      "type": "function"
    }
  ],
  "transactionHash": "0x8295e6479234caf2e7fbee3104a968a36828f4acdc67ac38a3508b8ee4378ce0",
  "args": [],
  "numDeployments": 1,
  "solcInputHash": "a621a794ce2046ccc1d319e7be209ed0",
  "bytecode": "0x6101c0604052600080556000600155603260809081525061012c60a09081525061038460c090815250600160e09081525060326101009081525060646101209081525061012c61014090815250606361016090815250610fa061018090815250600c6101a0908152503480156200007557600080fd5b5060405162000084906200014b565b604051809103906000f080158015620000a1573d6000803e3d6000fd5b50600260006101000a81548173ffffffffffffffffffffffffffffffffffffffff021916908373ffffffffffffffffffffffffffffffffffffffff160217905550600260009054906101000a900473ffffffffffffffffffffffffffffffffffffffff16600360006101000a81548173ffffffffffffffffffffffffffffffffffffffff021916908373ffffffffffffffffffffffffffffffffffffffff16021790555062000159565b6115d88062005aca83390190565b60805160a05160c05160e05161010051610120516101405161016051610180516101a0516158ee620001dc600039600081816118830152613ca801526000613c8701526000613c6601526000613db801526000613d9701526000613d7601526000613e8501526000613f9301526000613f7201526000613f5101526158ee6000f3fe60806040526004361061014b5760003560e01c806388b62b6a116100b6578063db5827831161006f578063db5827831461052b578063eacbdb3414610568578063eb4ebfd714610591578063f3fdf06b146105ce578063f881f0001461060b578063fb1a1790146106275761014b565b806388b62b6a146103d15780639a7ff3f21461040e5780639f40f36214610437578063bba97d7614610474578063ce4580c9146104b1578063d714b651146104ee5761014b565b806359fa878e1161010857806359fa878e1461028957806363abd5cf146102c65780636e105b68146102ef5780637a0039ba1461032c5780637fd67647146103695780638042659e146103945761014b565b806312f524e0146101505780632a79d77c1461018d5780633d1c1c53146101ca5780634c5d2c8b146101f3578063561cf7f51461023057806356dde06e1461026d575b600080fd5b34801561015c57600080fd5b50610177600480360381019061017291906141ae565b610652565b60405161018491906141fd565b60405180910390f35b34801561019957600080fd5b506101b460048036038101906101af9190614218565b6107e5565b6040516101c191906141fd565b60405180910390f35b3480156101d657600080fd5b506101f160048036038101906101ec919061438b565b6108c0565b005b3480156101ff57600080fd5b5061021a600480360381019061021591906141ae565b610be8565b60405161022791906141fd565b60405180910390f35b34801561023c57600080fd5b5061025760048036038101906102529190614218565b610de9565b60405161026491906141fd565b60405180910390f35b610287600480360381019061028291906141ae565b610ec4565b005b34801561029557600080fd5b506102b060048036038101906102ab9190614218565b6111f8565b6040516102bd91906141fd565b60405180910390f35b3480156102d257600080fd5b506102ed60048036038101906102e891906143e7565b6112d3565b005b3480156102fb57600080fd5b5061031660048036038101906103119190614218565b611e6c565b60405161032391906141fd565b60405180910390f35b34801561033857600080fd5b50610353600480360381019061034e91906141ae565b611f47565b6040516103609190614442565b60405180910390f35b34801561037557600080fd5b5061037e6120e7565b60405161038b91906141fd565b60405180910390f35b3480156103a057600080fd5b506103bb60048036038101906103b69190614218565b6120f1565b6040516103c891906144dc565b60405180910390f35b3480156103dd57600080fd5b506103f860048036038101906103f39190614218565b612254565b60405161040591906141fd565b60405180910390f35b34801561041a57600080fd5b50610435600480360381019061043091906144fe565b61232f565b005b34801561044357600080fd5b5061045e600480360381019061045991906141ae565b6125d1565b60405161046b91906144dc565b60405180910390f35b34801561048057600080fd5b5061049b60048036038101906104969190614218565b6127ec565b6040516104a891906144dc565b60405180910390f35b3480156104bd57600080fd5b506104d860048036038101906104d391906141ae565b6128c0565b6040516104e591906141fd565b60405180910390f35b3480156104fa57600080fd5b50610515600480360381019061051091906141ae565b612a53565b6040516105229190614556565b60405180910390f35b34801561053757600080fd5b50610552600480360381019061054d91906141ae565b612c06565b60405161055f91906141fd565b60405180910390f35b34801561057457600080fd5b5061058f600480360381019061058a91906144fe565b612d99565b005b34801561059d57600080fd5b506105b860048036038101906105b39190614571565b612fa3565b6040516105c59190614556565b60405180910390f35b3480156105da57600080fd5b506105f560048036038101906105f091906141ae565b612fe0565b60405161060291906141fd565b60405180910390f35b6106256004803603810190610620919061459e565b6134f1565b005b34801561063357600080fd5b5061063c613bf4565b60405161064991906141fd565b60405180910390f35b6000600460008473ffffffffffffffffffffffffffffffffffffffff1673ffffffffffffffffffffffffffffffffffffffff16815260200190815260200160002060030160009054906101000a900460ff166106e3576040517f08c379a00000000000000000000000000000000000000000000000000000000081526004016106da90614650565b60405180910390fd5b600460008473ffffffffffffffffffffffffffffffffffffffff1673ffffffffffffffffffffffffffffffffffffffff168152602001908152602001600020600401600083815260200190815260200160002060050160009054906101000a900460ff16610786576040517f08c379a000000000000000000000000000000000000000000000000000000000815260040161077d906146e2565b60405180910390fd5b600460008473ffffffffffffffffffffffffffffffffffffffff1673ffffffffffffffffffffffffffffffffffffffff168152602001908152602001600020600401600083815260200190815260200160002060030154905092915050565b6000600560008373ffffffffffffffffffffffffffffffffffffffff1673ffffffffffffffffffffffffffffffffffffffff16815260200190815260200160002060030160009054906101000a900460ff16610876576040517f08c379a000000000000000000000000000000000000000000000000000000000815260040161086d90614774565b60405180910390fd5b600560008373ffffffffffffffffffffffffffffffffffffffff1673ffffffffffffffffffffffffffffffffffffffff168152602001908152602001600020600801549050919050565b600460003373ffffffffffffffffffffffffffffffffffffffff1673ffffffffffffffffffffffffffffffffffffffff16815260200190815260200160002060030160009054906101000a900460ff1661094f576040517f08c379a000000000000000000000000000000000000000000000000000000000815260040161094690614806565b60405180910390fd5b6000600460003373ffffffffffffffffffffffffffffffffffffffff1673ffffffffffffffffffffffffffffffffffffffff1681526020019081526020016000209050600081600401600083600501600081546109ab90614855565b9190508190558152602001908152602001600020905081600501548160000181905550838160010190816109df9190614aa9565b50338160020160006101000a81548173ffffffffffffffffffffffffffffffffffffffff021916908373ffffffffffffffffffffffffffffffffffffffff1602179055508281600301819055506000816004018190555060008160070181905550670de0b6b3a7640000816008018190555060018160050160006101000a81548160ff02191690831515021790555080826004016000846005015481526020019081526020016000206000820154816000015560018201816001019081610aa69190614b91565b506002820160009054906101000a900473ffffffffffffffffffffffffffffffffffffffff168160020160006101000a81548173ffffffffffffffffffffffffffffffffffffffff021916908373ffffffffffffffffffffffffffffffffffffffff16021790555060038201548160030155600482015481600401556005820160009054906101000a900460ff168160050160006101000a81548160ff0219169083151502179055506006820154816006015560078201548160070155600882015481600801559050507f827f91e7f4fbb905bd650f742c7af7b1b989f3eb56bb80e8faf09038583b72ef81600101826003015483600001548460020160009054906101000a900473ffffffffffffffffffffffffffffffffffffffff168660020154604051610bda959493929190614cfd565b60405180910390a150505050565b6000600560008473ffffffffffffffffffffffffffffffffffffffff1673ffffffffffffffffffffffffffffffffffffffff16815260200190815260200160002060030160009054906101000a900460ff16610c79576040517f08c379a0000000000000000000000000000000000000000000000000000000008152600401610c7090614774565b60405180910390fd5b600560008473ffffffffffffffffffffffffffffffffffffffff1673ffffffffffffffffffffffffffffffffffffffff168152602001908152602001600020600401600083815260200190815260200160002060040160169054906101000a900460ff16610d1c576040517f08c379a0000000000000000000000000000000000000000000000000000000008152600401610d1390614dc9565b60405180910390fd5b6000600560008573ffffffffffffffffffffffffffffffffffffffff1673ffffffffffffffffffffffffffffffffffffffff168152602001908152602001600020600401600084815260200190815260200160002060040160009054906101000a900473ffffffffffffffffffffffffffffffffffffffff1690506000600460008373ffffffffffffffffffffffffffffffffffffffff1673ffffffffffffffffffffffffffffffffffffffff168152602001908152602001600020600201549050809250505092915050565b6000600460008373ffffffffffffffffffffffffffffffffffffffff1673ffffffffffffffffffffffffffffffffffffffff16815260200190815260200160002060030160009054906101000a900460ff16610e7a576040517f08c379a0000000000000000000000000000000000000000000000000000000008152600401610e7190614650565b60405180910390fd5b600460008373ffffffffffffffffffffffffffffffffffffffff1673ffffffffffffffffffffffffffffffffffffffff168152602001908152602001600020600201549050919050565b6000610ed08383612fe0565b90506000600560008573ffffffffffffffffffffffffffffffffffffffff1673ffffffffffffffffffffffffffffffffffffffff168152602001908152602001600020600401600084815260200190815260200160002060040160009054906101000a900473ffffffffffffffffffffffffffffffffffffffff169050813411610f8f576040517f08c379a0000000000000000000000000000000000000000000000000000000008152600401610f8690614e5b565b60405180910390fd5b60008473ffffffffffffffffffffffffffffffffffffffff1683604051610fb590614eac565b60006040518083038185875af1925050503d8060008114610ff2576040519150601f19603f3d011682016040523d82523d6000602084013e610ff7565b606091505b505090508061103b576040517f08c379a000000000000000000000000000000000000000000000000000000000815260040161103290614f0d565b60405180910390fd5b600083346110499190614f2d565b905060003373ffffffffffffffffffffffffffffffffffffffff168260405161107190614eac565b60006040518083038185875af1925050503d80600081146110ae576040519150601f19603f3d011682016040523d82523d6000602084013e6110b3565b606091505b50509050806110f7576040517f08c379a00000000000000000000000000000000000000000000000000000000081526004016110ee90614fad565b60405180910390fd5b6001600560008973ffffffffffffffffffffffffffffffffffffffff1673ffffffffffffffffffffffffffffffffffffffff168152602001908152602001600020600401600088815260200190815260200160002060040160156101000a81548160ff0219169083151502179055506000600560008973ffffffffffffffffffffffffffffffffffffffff1673ffffffffffffffffffffffffffffffffffffffff1681526020019081526020016000206008015490507fcf7cce922a7e02627042b0776b64a0cac0efc9bd2a27046d98d55323ed2950018789878987866040516111e696959493929190614fcd565b60405180910390a15050505050505050565b6000600560008373ffffffffffffffffffffffffffffffffffffffff1673ffffffffffffffffffffffffffffffffffffffff16815260200190815260200160002060030160009054906101000a900460ff16611289576040517f08c379a000000000000000000000000000000000000000000000000000000000815260040161128090614774565b60405180910390fd5b600560008373ffffffffffffffffffffffffffffffffffffffff1673ffffffffffffffffffffffffffffffffffffffff168152602001908152602001600020600201549050919050565b600560003373ffffffffffffffffffffffffffffffffffffffff1673ffffffffffffffffffffffffffffffffffffffff16815260200190815260200160002060030160009054906101000a900460ff16611362576040517f08c379a00000000000000000000000000000000000000000000000000000000081526004016113599061507a565b60405180910390fd5b600560003373ffffffffffffffffffffffffffffffffffffffff1673ffffffffffffffffffffffffffffffffffffffff168152602001908152602001600020600401600082815260200190815260200160002060040160169054906101000a900460ff16611405576040517f08c379a00000000000000000000000000000000000000000000000000000000081526004016113fc9061510c565b60405180910390fd5b60001515600560003373ffffffffffffffffffffffffffffffffffffffff1673ffffffffffffffffffffffffffffffffffffffff168152602001908152602001600020600401600083815260200190815260200160002060040160149054906101000a900460ff161515146114af576040517f08c379a00000000000000000000000000000000000000000000000000000000081526004016114a69061519e565b60405180910390fd5b6000600560003373ffffffffffffffffffffffffffffffffffffffff1673ffffffffffffffffffffffffffffffffffffffff168152602001908152602001600020600401600083815260200190815260200160002060040160009054906101000a900473ffffffffffffffffffffffffffffffffffffffff1690506000600560003373ffffffffffffffffffffffffffffffffffffffff1673ffffffffffffffffffffffffffffffffffffffff16815260200190815260200160002060040160008481526020019081526020016000206003015490506000600460008473ffffffffffffffffffffffffffffffffffffffff1673ffffffffffffffffffffffffffffffffffffffff16815260200190815260200160002060040160008381526020019081526020016000206003015490506000603c600560003373ffffffffffffffffffffffffffffffffffffffff1673ffffffffffffffffffffffffffffffffffffffff16815260200190815260200160002060070154426116329190614f2d565b61163c91906151ed565b9050600080600560003373ffffffffffffffffffffffffffffffffffffffff1673ffffffffffffffffffffffffffffffffffffffff1681526020019081526020016000206005015490505b60018110611877578573ffffffffffffffffffffffffffffffffffffffff16600560003373ffffffffffffffffffffffffffffffffffffffff1673ffffffffffffffffffffffffffffffffffffffff168152602001908152602001600020600401600089815260200190815260200160002060040160009054906101000a900473ffffffffffffffffffffffffffffffffffffffff1673ffffffffffffffffffffffffffffffffffffffff16148015611795575084600560003373ffffffffffffffffffffffffffffffffffffffff1673ffffffffffffffffffffffffffffffffffffffff168152602001908152602001600020600401600089815260200190815260200160002060030154145b80156118015750600560003373ffffffffffffffffffffffffffffffffffffffff1673ffffffffffffffffffffffffffffffffffffffff168152602001908152602001600020600401600088815260200190815260200160002060040160149054906101000a900460ff165b1561186457600560003373ffffffffffffffffffffffffffffffffffffffff1673ffffffffffffffffffffffffffffffffffffffff1681526020019081526020016000206004016000888152602001908152602001600020600201549150611877565b808061186f9061521e565b915050611687565b5060008082036118a9577f000000000000000000000000000000000000000000000000000000000000000090506118c4565b603c82426118b79190614f2d565b6118c191906151ed565b90505b611912600560003373ffffffffffffffffffffffffffffffffffffffff1673ffffffffffffffffffffffffffffffffffffffff16815260200190815260200160002060090154848684613bfd565b600560003373ffffffffffffffffffffffffffffffffffffffff1673ffffffffffffffffffffffffffffffffffffffff168152602001908152602001600020600901819055506119a3600560003373ffffffffffffffffffffffffffffffffffffffff1673ffffffffffffffffffffffffffffffffffffffff16815260200190815260200160002060090154613d34565b600560003373ffffffffffffffffffffffffffffffffffffffff1673ffffffffffffffffffffffffffffffffffffffff16815260200190815260200160002060080181905550611ae3600460008873ffffffffffffffffffffffffffffffffffffffff1673ffffffffffffffffffffffffffffffffffffffff168152602001908152602001600020600401600087815260200190815260200160002060080154600560003373ffffffffffffffffffffffffffffffffffffffff1673ffffffffffffffffffffffffffffffffffffffff168152602001908152602001600020600801548a600460008b73ffffffffffffffffffffffffffffffffffffffff1673ffffffffffffffffffffffffffffffffffffffff16815260200190815260200160002060040160008a815260200190815260200160002060070154613e3f565b600460008873ffffffffffffffffffffffffffffffffffffffff1673ffffffffffffffffffffffffffffffffffffffff168152602001908152602001600020600401600087815260200190815260200160002060080181905550611b9c600460008873ffffffffffffffffffffffffffffffffffffffff1673ffffffffffffffffffffffffffffffffffffffff168152602001908152602001600020600401600087815260200190815260200160002060080154613f0f565b600460008873ffffffffffffffffffffffffffffffffffffffff1673ffffffffffffffffffffffffffffffffffffffff168152602001908152602001600020600401600087815260200190815260200160002060070181905550600460008773ffffffffffffffffffffffffffffffffffffffff1673ffffffffffffffffffffffffffffffffffffffff16815260200190815260200160002060040160008681526020019081526020016000206006016000815480929190611c5d90614855565b91905055506001600560003373ffffffffffffffffffffffffffffffffffffffff1673ffffffffffffffffffffffffffffffffffffffff168152602001908152602001600020600401600089815260200190815260200160002060040160146101000a81548160ff02191690831515021790555042600560003373ffffffffffffffffffffffffffffffffffffffff1673ffffffffffffffffffffffffffffffffffffffff16815260200190815260200160002060040160008981526020019081526020016000206002018190555042600560003373ffffffffffffffffffffffffffffffffffffffff1673ffffffffffffffffffffffffffffffffffffffff168152602001908152602001600020600701819055507fc8eace918d73b100093f09590ebd3bd2e45fcbe6f7faf08b0a90855ea61edf858587338b42600460008d73ffffffffffffffffffffffffffffffffffffffff1673ffffffffffffffffffffffffffffffffffffffff16815260200190815260200160002060040160008c815260200190815260200160002060070154600460008e73ffffffffffffffffffffffffffffffffffffffff1673ffffffffffffffffffffffffffffffffffffffff16815260200190815260200160002060040160008d815260200190815260200160002060060154604051611e5a9796959493929190615247565b60405180910390a15050505050505050565b6000600560008373ffffffffffffffffffffffffffffffffffffffff1673ffffffffffffffffffffffffffffffffffffffff16815260200190815260200160002060030160009054906101000a900460ff16611efd576040517f08c379a0000000000000000000000000000000000000000000000000000000008152600401611ef490614774565b60405180910390fd5b600560008373ffffffffffffffffffffffffffffffffffffffff1673ffffffffffffffffffffffffffffffffffffffff168152602001908152602001600020600501549050919050565b6000600560008473ffffffffffffffffffffffffffffffffffffffff1673ffffffffffffffffffffffffffffffffffffffff16815260200190815260200160002060030160009054906101000a900460ff16611fd8576040517f08c379a0000000000000000000000000000000000000000000000000000000008152600401611fcf90614774565b60405180910390fd5b600560008473ffffffffffffffffffffffffffffffffffffffff1673ffffffffffffffffffffffffffffffffffffffff168152602001908152602001600020600401600083815260200190815260200160002060040160169054906101000a900460ff1661207b576040517f08c379a000000000000000000000000000000000000000000000000000000000815260040161207290614dc9565b60405180910390fd5b600560008473ffffffffffffffffffffffffffffffffffffffff1673ffffffffffffffffffffffffffffffffffffffff168152602001908152602001600020600401600083815260200190815260200160002060040160149054906101000a900460ff16905092915050565b6000600154905090565b6060600460008373ffffffffffffffffffffffffffffffffffffffff1673ffffffffffffffffffffffffffffffffffffffff16815260200190815260200160002060030160009054906101000a900460ff16612182576040517f08c379a000000000000000000000000000000000000000000000000000000000815260040161217990614650565b60405180910390fd5b600460008373ffffffffffffffffffffffffffffffffffffffff1673ffffffffffffffffffffffffffffffffffffffff16815260200190815260200160002060010180546121cf906148cc565b80601f01602080910402602001604051908101604052809291908181526020018280546121fb906148cc565b80156122485780601f1061221d57610100808354040283529160200191612248565b820191906000526020600020905b81548152906001019060200180831161222b57829003601f168201915b50505050509050919050565b6000600460008373ffffffffffffffffffffffffffffffffffffffff1673ffffffffffffffffffffffffffffffffffffffff16815260200190815260200160002060030160009054906101000a900460ff166122e5576040517f08c379a00000000000000000000000000000000000000000000000000000000081526004016122dc90614650565b60405180910390fd5b600460008373ffffffffffffffffffffffffffffffffffffffff1673ffffffffffffffffffffffffffffffffffffffff168152602001908152602001600020600501549050919050565b600460003373ffffffffffffffffffffffffffffffffffffffff1673ffffffffffffffffffffffffffffffffffffffff16815260200190815260200160002060030160009054906101000a900460ff16156123bf576040517f08c379a00000000000000000000000000000000000000000000000000000000081526004016123b690615328565b60405180910390fd5b6000600460003373ffffffffffffffffffffffffffffffffffffffff1673ffffffffffffffffffffffffffffffffffffffff1681526020019081526020016000209050338160000160006101000a81548173ffffffffffffffffffffffffffffffffffffffff021916908373ffffffffffffffffffffffffffffffffffffffff160217905550818160010190816124569190614aa9565b50600080815461246590614855565b919050819055816002018190555060018160030160006101000a81548160ff0219169083151502179055506000816005018190555060008160060181905550600081600701819055508060000160009054906101000a900473ffffffffffffffffffffffffffffffffffffffff16600660008360020154815260200190815260200160002060006101000a81548173ffffffffffffffffffffffffffffffffffffffff021916908373ffffffffffffffffffffffffffffffffffffffff1602179055507f2daf7e02bff4313b1e326e8f126cffd3ff7c437229109ce78a53951ac8d70638816001018260000160009054906101000a900473ffffffffffffffffffffffffffffffffffffffff16836002015460405161258693929190615348565b60405180910390a16125cd6040518060400160405280601281526020017f53656c6c657220437265617465642061743a00000000000000000000000000008152503361401a565b5050565b6060600460008473ffffffffffffffffffffffffffffffffffffffff1673ffffffffffffffffffffffffffffffffffffffff16815260200190815260200160002060030160009054906101000a900460ff16612662576040517f08c379a000000000000000000000000000000000000000000000000000000000815260040161265990614650565b60405180910390fd5b600460008473ffffffffffffffffffffffffffffffffffffffff1673ffffffffffffffffffffffffffffffffffffffff168152602001908152602001600020600401600083815260200190815260200160002060050160009054906101000a900460ff16612705576040517f08c379a00000000000000000000000000000000000000000000000000000000081526004016126fc906153f8565b60405180910390fd5b600460008473ffffffffffffffffffffffffffffffffffffffff1673ffffffffffffffffffffffffffffffffffffffff16815260200190815260200160002060040160008381526020019081526020016000206001018054612766906148cc565b80601f0160208091040260200160405190810160405280929190818152602001828054612792906148cc565b80156127df5780601f106127b4576101008083540402835291602001916127df565b820191906000526020600020905b8154815290600101906020018083116127c257829003601f168201915b5050505050905092915050565b6060600560008373ffffffffffffffffffffffffffffffffffffffff1673ffffffffffffffffffffffffffffffffffffffff168152602001908152602001600020600101805461283b906148cc565b80601f0160208091040260200160405190810160405280929190818152602001828054612867906148cc565b80156128b45780601f10612889576101008083540402835291602001916128b4565b820191906000526020600020905b81548152906001019060200180831161289757829003601f168201915b50505050509050919050565b6000600560008473ffffffffffffffffffffffffffffffffffffffff1673ffffffffffffffffffffffffffffffffffffffff16815260200190815260200160002060030160009054906101000a900460ff16612951576040517f08c379a000000000000000000000000000000000000000000000000000000000815260040161294890614774565b60405180910390fd5b600560008473ffffffffffffffffffffffffffffffffffffffff1673ffffffffffffffffffffffffffffffffffffffff168152602001908152602001600020600401600083815260200190815260200160002060040160169054906101000a900460ff166129f4576040517f08c379a00000000000000000000000000000000000000000000000000000000081526004016129eb90614dc9565b60405180910390fd5b600560008473ffffffffffffffffffffffffffffffffffffffff1673ffffffffffffffffffffffffffffffffffffffff168152602001908152602001600020600401600083815260200190815260200160002060030154905092915050565b6000600560008473ffffffffffffffffffffffffffffffffffffffff1673ffffffffffffffffffffffffffffffffffffffff16815260200190815260200160002060030160009054906101000a900460ff16612ae4576040517f08c379a0000000000000000000000000000000000000000000000000000000008152600401612adb90614774565b60405180910390fd5b600560008473ffffffffffffffffffffffffffffffffffffffff1673ffffffffffffffffffffffffffffffffffffffff168152602001908152602001600020600401600083815260200190815260200160002060040160169054906101000a900460ff16612b87576040517f08c379a0000000000000000000000000000000000000000000000000000000008152600401612b7e90614dc9565b60405180910390fd5b600560008473ffffffffffffffffffffffffffffffffffffffff1673ffffffffffffffffffffffffffffffffffffffff168152602001908152602001600020600401600083815260200190815260200160002060040160009054906101000a900473ffffffffffffffffffffffffffffffffffffffff16905092915050565b6000600460008473ffffffffffffffffffffffffffffffffffffffff1673ffffffffffffffffffffffffffffffffffffffff16815260200190815260200160002060030160009054906101000a900460ff16612c97576040517f08c379a0000000000000000000000000000000000000000000000000000000008152600401612c8e90614650565b60405180910390fd5b600460008473ffffffffffffffffffffffffffffffffffffffff1673ffffffffffffffffffffffffffffffffffffffff168152602001908152602001600020600401600083815260200190815260200160002060050160009054906101000a900460ff16612d3a576040517f08c379a0000000000000000000000000000000000000000000000000000000008152600401612d31906153f8565b60405180910390fd5b600460008473ffffffffffffffffffffffffffffffffffffffff1673ffffffffffffffffffffffffffffffffffffffff168152602001908152602001600020600401600083815260200190815260200160002060070154905092915050565b600560003373ffffffffffffffffffffffffffffffffffffffff1673ffffffffffffffffffffffffffffffffffffffff16815260200190815260200160002060030160009054906101000a900460ff1615612e29576040517f08c379a0000000000000000000000000000000000000000000000000000000008152600401612e209061548a565b60405180910390fd5b6000600560003373ffffffffffffffffffffffffffffffffffffffff1673ffffffffffffffffffffffffffffffffffffffff1681526020019081526020016000209050338160000160006101000a81548173ffffffffffffffffffffffffffffffffffffffff021916908373ffffffffffffffffffffffffffffffffffffffff16021790555081816001019081612ec09190614aa9565b50600160008154612ed090614855565b919050819055816002018190555060018160030160006101000a81548160ff0219169083151502179055506000816006018190555060008160050181905550670de0b6b3a76400008160090181905550600081600801819055504281600701819055507f72d8d6c2563f662f27728e50439bc8ace9286edca723199ecc8b1e68b5f3c16a816001018260000160009054906101000a900473ffffffffffffffffffffffffffffffffffffffff1683600201548460080154604051612f9794939291906154aa565b60405180910390a15050565b60006006600083815260200190815260200160002060009054906101000a900473ffffffffffffffffffffffffffffffffffffffff169050919050565b6000600560008473ffffffffffffffffffffffffffffffffffffffff1673ffffffffffffffffffffffffffffffffffffffff16815260200190815260200160002060030160009054906101000a900460ff16613071576040517f08c379a00000000000000000000000000000000000000000000000000000000081526004016130689061507a565b60405180910390fd5b600560008473ffffffffffffffffffffffffffffffffffffffff1673ffffffffffffffffffffffffffffffffffffffff168152602001908152602001600020600401600083815260200190815260200160002060040160169054906101000a900460ff16613114576040517f08c379a000000000000000000000000000000000000000000000000000000000815260040161310b9061510c565b60405180910390fd5b60001515600560008573ffffffffffffffffffffffffffffffffffffffff1673ffffffffffffffffffffffffffffffffffffffff168152602001908152602001600020600401600084815260200190815260200160002060040160159054906101000a900460ff161515146131be576040517f08c379a00000000000000000000000000000000000000000000000000000000081526004016131b590615568565b60405180910390fd5b6000600560008573ffffffffffffffffffffffffffffffffffffffff1673ffffffffffffffffffffffffffffffffffffffff168152602001908152602001600020600401600084815260200190815260200160002060040160009054906101000a900473ffffffffffffffffffffffffffffffffffffffff1690508073ffffffffffffffffffffffffffffffffffffffff163373ffffffffffffffffffffffffffffffffffffffff16146132a7576040517f08c379a000000000000000000000000000000000000000000000000000000000815260040161329e906155d4565b60405180910390fd5b6000600560008673ffffffffffffffffffffffffffffffffffffffff1673ffffffffffffffffffffffffffffffffffffffff1681526020019081526020016000206004016000858152602001908152602001600020600301549050600460003373ffffffffffffffffffffffffffffffffffffffff1673ffffffffffffffffffffffffffffffffffffffff168152602001908152602001600020600401600082815260200190815260200160002060050160009054906101000a900460ff166133a5576040517f08c379a000000000000000000000000000000000000000000000000000000000815260040161339c90615640565b60405180910390fd5b6000600460008473ffffffffffffffffffffffffffffffffffffffff1673ffffffffffffffffffffffffffffffffffffffff16815260200190815260200160002060040160008381526020019081526020016000206003015490506000600560008873ffffffffffffffffffffffffffffffffffffffff1673ffffffffffffffffffffffffffffffffffffffff168152602001908152602001600020600801549050600260009054906101000a900473ffffffffffffffffffffffffffffffffffffffff1673ffffffffffffffffffffffffffffffffffffffff166313ed084682846040518363ffffffff1660e01b81526004016134a4929190615660565b602060405180830381865afa1580156134c1573d6000803e3d6000fd5b505050506040513d601f19601f820116820180604052508101906134e5919061569e565b94505050505092915050565b600560003373ffffffffffffffffffffffffffffffffffffffff1673ffffffffffffffffffffffffffffffffffffffff16815260200190815260200160002060030160009054906101000a900460ff16613580576040517f08c379a00000000000000000000000000000000000000000000000000000000081526004016135779061507a565b60405180910390fd5b600460008273ffffffffffffffffffffffffffffffffffffffff1673ffffffffffffffffffffffffffffffffffffffff168152602001908152602001600020600401600083815260200190815260200160002060050160009054906101000a900460ff16613623576040517f08c379a000000000000000000000000000000000000000000000000000000000815260040161361a90615640565b60405180910390fd5b600460008273ffffffffffffffffffffffffffffffffffffffff1673ffffffffffffffffffffffffffffffffffffffff16815260200190815260200160002060040160008381526020019081526020016000206003015434146136bb576040517f08c379a00000000000000000000000000000000000000000000000000000000081526004016136b290614e5b565b60405180910390fd5b60008173ffffffffffffffffffffffffffffffffffffffff16346040516136e190614eac565b60006040518083038185875af1925050503d806000811461371e576040519150601f19603f3d011682016040523d82523d6000602084013e613723565b606091505b5050905080613767576040517f08c379a000000000000000000000000000000000000000000000000000000000815260040161375e90614f0d565b60405180910390fd5b6000600560003373ffffffffffffffffffffffffffffffffffffffff1673ffffffffffffffffffffffffffffffffffffffff168152602001908152602001600020600501600081546137b890614855565b91905081905590506000600560003373ffffffffffffffffffffffffffffffffffffffff1673ffffffffffffffffffffffffffffffffffffffff16815260200190815260200160002060040160008381526020019081526020016000209050818160000181905550428160010181905550848160030181905550838160040160006101000a81548173ffffffffffffffffffffffffffffffffffffffff021916908373ffffffffffffffffffffffffffffffffffffffff16021790555060008160040160146101000a81548160ff02191690831515021790555060008160040160156101000a81548160ff02191690831515021790555060018160040160166101000a81548160ff02191690831515021790555080600560003373ffffffffffffffffffffffffffffffffffffffff1673ffffffffffffffffffffffffffffffffffffffff1681526020019081526020016000206004016000848152602001908152602001600020600082015481600001556001820154816001015560028201548160020155600382015481600301556004820160009054906101000a900473ffffffffffffffffffffffffffffffffffffffff168160040160006101000a81548173ffffffffffffffffffffffffffffffffffffffff021916908373ffffffffffffffffffffffffffffffffffffffff1602179055506004820160149054906101000a900460ff168160040160146101000a81548160ff0219169083151502179055506004820160159054906101000a900460ff168160040160156101000a81548160ff0219169083151502179055506004820160169054906101000a900460ff168160040160166101000a81548160ff021916908315150217905550905050600460008573ffffffffffffffffffffffffffffffffffffffff1673ffffffffffffffffffffffffffffffffffffffff16815260200190815260200160002060040160008681526020019081526020016000206004016000815480929190613aa090614855565b919050555034600460008673ffffffffffffffffffffffffffffffffffffffff1673ffffffffffffffffffffffffffffffffffffffff1681526020019081526020016000206006016000828254613af791906156cb565b925050819055506001600460008673ffffffffffffffffffffffffffffffffffffffff1673ffffffffffffffffffffffffffffffffffffffff1681526020019081526020016000206007016000828254613b5191906156cb565b925050819055507f2a87cec993d23d666d1bf9abb68302d6a2d20ba6a5287439294d1050d92f094282868633600460008a73ffffffffffffffffffffffffffffffffffffffff1673ffffffffffffffffffffffffffffffffffffffff16815260200190815260200160002060040160008b815260200190815260200160002060030154604051613be59594939291906156ff565b60405180910390a15050505050565b60008054905090565b6000610180841115613c125760109350613c22565b601884613c1f91906151ed565b93505b600260009054906101000a900473ffffffffffffffffffffffffffffffffffffffff1673ffffffffffffffffffffffffffffffffffffffff166339288c9b868686867f00000000000000000000000000000000000000000000000000000000000000007f00000000000000000000000000000000000000000000000000000000000000007f00000000000000000000000000000000000000000000000000000000000000006040518863ffffffff1660e01b8152600401613ce99796959493929190615752565b602060405180830381865afa158015613d06573d6000803e3d6000fd5b505050506040513d601f19601f82011682018060405250810190613d2a919061569e565b9050949350505050565b6000600260009054906101000a900473ffffffffffffffffffffffffffffffffffffffff1673ffffffffffffffffffffffffffffffffffffffff166397d67bff7f00000000000000000000000000000000000000000000000000000000000000007f00000000000000000000000000000000000000000000000000000000000000007f0000000000000000000000000000000000000000000000000000000000000000866040518563ffffffff1660e01b8152600401613df794939291906157c1565b602060405180830381865afa158015613e14573d6000803e3d6000fd5b505050506040513d601f19601f82011682018060405250810190613e38919061569e565b9050919050565b6000600260009054906101000a900473ffffffffffffffffffffffffffffffffffffffff1673ffffffffffffffffffffffffffffffffffffffff166348590bf1868686867f00000000000000000000000000000000000000000000000000000000000000006040518663ffffffff1660e01b8152600401613ec4959493929190615806565b602060405180830381865afa158015613ee1573d6000803e3d6000fd5b505050506040513d601f19601f82011682018060405250810190613f05919061569e565b9050949350505050565b6000600260009054906101000a900473ffffffffffffffffffffffffffffffffffffffff1673ffffffffffffffffffffffffffffffffffffffff166397d67bff7f00000000000000000000000000000000000000000000000000000000000000007f00000000000000000000000000000000000000000000000000000000000000007f0000000000000000000000000000000000000000000000000000000000000000866040518563ffffffff1660e01b8152600401613fd294939291906157c1565b602060405180830381865afa158015613fef573d6000803e3d6000fd5b505050506040513d601f19601f82011682018060405250810190614013919061569e565b9050919050565b6140b28282604051602401614030929190615859565b6040516020818303038152906040527f319af333000000000000000000000000000000000000000000000000000000007bffffffffffffffffffffffffffffffffffffffffffffffffffffffff19166020820180517bffffffffffffffffffffffffffffffffffffffffffffffffffffffff83818316178352505050506140b6565b5050565b6140cd816140c56140d06140f1565b63ffffffff16565b50565b60006a636f6e736f6c652e6c6f679050600080835160208501845afa505050565b6140fc819050919050565b614104615889565b565b6000604051905090565b600080fd5b600080fd5b600073ffffffffffffffffffffffffffffffffffffffff82169050919050565b60006141458261411a565b9050919050565b6141558161413a565b811461416057600080fd5b50565b6000813590506141728161414c565b92915050565b6000819050919050565b61418b81614178565b811461419657600080fd5b50565b6000813590506141a881614182565b92915050565b600080604083850312156141c5576141c4614110565b5b60006141d385828601614163565b92505060206141e485828601614199565b9150509250929050565b6141f781614178565b82525050565b600060208201905061421260008301846141ee565b92915050565b60006020828403121561422e5761422d614110565b5b600061423c84828501614163565b91505092915050565b600080fd5b600080fd5b6000601f19601f8301169050919050565b7f4e487b7100000000000000000000000000000000000000000000000000000000600052604160045260246000fd5b6142988261424f565b810181811067ffffffffffffffff821117156142b7576142b6614260565b5b80604052505050565b60006142ca614106565b90506142d6828261428f565b919050565b600067ffffffffffffffff8211156142f6576142f5614260565b5b6142ff8261424f565b9050602081019050919050565b82818337600083830152505050565b600061432e614329846142db565b6142c0565b90508281526020810184848401111561434a5761434961424a565b5b61435584828561430c565b509392505050565b600082601f83011261437257614371614245565b5b813561438284826020860161431b565b91505092915050565b600080604083850312156143a2576143a1614110565b5b600083013567ffffffffffffffff8111156143c0576143bf614115565b5b6143cc8582860161435d565b92505060206143dd85828601614199565b9150509250929050565b600080604083850312156143fe576143fd614110565b5b600061440c85828601614199565b925050602061441d85828601614199565b9150509250929050565b60008115159050919050565b61443c81614427565b82525050565b60006020820190506144576000830184614433565b92915050565b600081519050919050565b600082825260208201905092915050565b60005b8381101561449757808201518184015260208101905061447c565b60008484015250505050565b60006144ae8261445d565b6144b88185614468565b93506144c8818560208601614479565b6144d18161424f565b840191505092915050565b600060208201905081810360008301526144f681846144a3565b905092915050565b60006020828403121561451457614513614110565b5b600082013567ffffffffffffffff81111561453257614531614115565b5b61453e8482850161435d565b91505092915050565b6145508161413a565b82525050565b600060208201905061456b6000830184614547565b92915050565b60006020828403121561458757614586614110565b5b600061459584828501614199565b91505092915050565b600080604083850312156145b5576145b4614110565b5b60006145c385828601614199565b92505060206145d485828601614163565b9150509250929050565b7f53656c6c6572207769746820746869732077616c6c657420646f6573206e6f7460008201527f2065786973747321200000000000000000000000000000000000000000000000602082015250565b600061463a602983614468565b9150614645826145de565b604082019050919050565b600060208201905081810360008301526146698161462d565b9050919050565b7f53656c6c6572207769746820746869732070726f6475637420646f6573206e6f60008201527f7420657869737473212000000000000000000000000000000000000000000000602082015250565b60006146cc602a83614468565b91506146d782614670565b604082019050919050565b600060208201905081810360008301526146fb816146bf565b9050919050565b7f4275796572207769746820746869732077616c6c657420646f6573206e6f742060008201527f6578697374732120000000000000000000000000000000000000000000000000602082015250565b600061475e602883614468565b915061476982614702565b604082019050919050565b6000602082019050818103600083015261478d81614751565b9050919050565b7f53656c6c6572207769746820746869732077616c6c657420646f6573206e6f7460008201527f2065786973747321000000000000000000000000000000000000000000000000602082015250565b60006147f0602883614468565b91506147fb82614794565b604082019050919050565b6000602082019050818103600083015261481f816147e3565b9050919050565b7f4e487b7100000000000000000000000000000000000000000000000000000000600052601160045260246000fd5b600061486082614178565b91507fffffffffffffffffffffffffffffffffffffffffffffffffffffffffffffffff820361489257614891614826565b5b600182019050919050565b7f4e487b7100000000000000000000000000000000000000000000000000000000600052602260045260246000fd5b600060028204905060018216806148e457607f821691505b6020821081036148f7576148f661489d565b5b50919050565b60008190508160005260206000209050919050565b60006020601f8301049050919050565b600082821b905092915050565b60006008830261495f7fffffffffffffffffffffffffffffffffffffffffffffffffffffffffffffffff82614922565b6149698683614922565b95508019841693508086168417925050509392505050565b6000819050919050565b60006149a66149a161499c84614178565b614981565b614178565b9050919050565b6000819050919050565b6149c08361498b565b6149d46149cc826149ad565b84845461492f565b825550505050565b600090565b6149e96149dc565b6149f48184846149b7565b505050565b5b81811015614a1857614a0d6000826149e1565b6001810190506149fa565b5050565b601f821115614a5d57614a2e816148fd565b614a3784614912565b81016020851015614a46578190505b614a5a614a5285614912565b8301826149f9565b50505b505050565b600082821c905092915050565b6000614a8060001984600802614a62565b1980831691505092915050565b6000614a998383614a6f565b9150826002028217905092915050565b614ab28261445d565b67ffffffffffffffff811115614acb57614aca614260565b5b614ad582546148cc565b614ae0828285614a1c565b600060209050601f831160018114614b135760008415614b01578287015190505b614b0b8582614a8d565b865550614b73565b601f198416614b21866148fd565b60005b82811015614b4957848901518255600182019150602085019450602081019050614b24565b86831015614b665784890151614b62601f891682614a6f565b8355505b6001600288020188555050505b505050505050565b600081549050614b8a816148cc565b9050919050565b818103614b9f575050614c77565b614ba882614b7b565b67ffffffffffffffff811115614bc157614bc0614260565b5b614bcb82546148cc565b614bd6828285614a1c565b6000601f831160018114614c055760008415614bf3578287015490505b614bfd8582614a8d565b865550614c70565b601f198416614c13876148fd565b9650614c1e866148fd565b60005b82811015614c4657848901548255600182019150600185019450602081019050614c21565b86831015614c635784890154614c5f601f891682614a6f565b8355505b6001600288020188555050505b5050505050505b565b60008154614c86816148cc565b614c908186614468565b94506001821660008114614cab5760018114614cc157614cf4565b60ff198316865281151560200286019350614cf4565b614cca856148fd565b60005b83811015614cec57815481890152600182019150602081019050614ccd565b808801955050505b50505092915050565b600060a0820190508181036000830152614d178188614c79565b9050614d2660208301876141ee565b614d3360408301866141ee565b614d406060830185614547565b614d4d60808301846141ee565b9695505050505050565b7f54786e20494420696e207468652073656c6c657220646f6573206e6f7420657860008201527f6973747321200000000000000000000000000000000000000000000000000000602082015250565b6000614db3602683614468565b9150614dbe82614d57565b604082019050919050565b60006020820190508181036000830152614de281614da6565b9050919050565b7f457468657273206e6f7420656e6f7567682f746f6f206d75636820746f20627560008201527f79207468652070726f6475637421000000000000000000000000000000000000602082015250565b6000614e45602e83614468565b9150614e5082614de9565b604082019050919050565b60006020820190508181036000830152614e7481614e38565b9050919050565b600081905092915050565b50565b6000614e96600083614e7b565b9150614ea182614e86565b600082019050919050565b6000614eb782614e89565b9150819050919050565b7f4661696c656420746f2073656e64206574686572000000000000000000000000600082015250565b6000614ef7601483614468565b9150614f0282614ec1565b602082019050919050565b60006020820190508181036000830152614f2681614eea565b9050919050565b6000614f3882614178565b9150614f4383614178565b9250828203905081811115614f5b57614f5a614826565b5b92915050565b7f4661696c656420746f2072657475726e2072656d61696e696e67206574686572600082015250565b6000614f97602083614468565b9150614fa282614f61565b602082019050919050565b60006020820190508181036000830152614fc681614f8a565b9050919050565b600060c082019050614fe260008301896141ee565b614fef6020830188614547565b614ffc6040830187614547565b61500960608301866141ee565b61501660808301856141ee565b61502360a08301846141ee565b979650505050505050565b7f5468697320627579657220646f6573206e6f7420657869737421000000000000600082015250565b6000615064601a83614468565b915061506f8261502e565b602082019050919050565b6000602082019050818103600083015261509381615057565b9050919050565b7f427579657220646f6573206e6f7420686176652074686973207472616e73616360008201527f74696f6e20494421000000000000000000000000000000000000000000000000602082015250565b60006150f6602883614468565b91506151018261509a565b604082019050919050565b60006020820190508181036000830152615125816150e9565b9050919050565b7f427579657220616c72656164792072657669657765642074686973207472616e60008201527f73616374696f6e20494421000000000000000000000000000000000000000000602082015250565b6000615188602b83614468565b91506151938261512c565b604082019050919050565b600060208201905081810360008301526151b78161517b565b9050919050565b7f4e487b7100000000000000000000000000000000000000000000000000000000600052601260045260246000fd5b60006151f882614178565b915061520383614178565b925082615213576152126151be565b5b828204905092915050565b600061522982614178565b91506000820361523c5761523b614826565b5b600182039050919050565b600060e08201905061525c600083018a6141ee565b6152696020830189614547565b6152766040830188614547565b61528360608301876141ee565b61529060808301866141ee565b61529d60a08301856141ee565b6152aa60c08301846141ee565b98975050505050505050565b7f53656c6c6572207769746820746869732077616c6c657420616c72656164792060008201527f6578697374732100000000000000000000000000000000000000000000000000602082015250565b6000615312602783614468565b915061531d826152b6565b604082019050919050565b6000602082019050818103600083015261534181615305565b9050919050565b600060608201905081810360008301526153628186614c79565b90506153716020830185614547565b61537e60408301846141ee565b949350505050565b7f50726f64756374494420696e207468652073656c6c657220646f6573206e6f7460008201527f2065786973747321200000000000000000000000000000000000000000000000602082015250565b60006153e2602983614468565b91506153ed82615386565b604082019050919050565b60006020820190508181036000830152615411816153d5565b9050919050565b7f4275796572207769746820746869732077616c6c657420616c7265616479206560008201527f7869737473210000000000000000000000000000000000000000000000000000602082015250565b6000615474602683614468565b915061547f82615418565b604082019050919050565b600060208201905081810360008301526154a381615467565b9050919050565b600060808201905081810360008301526154c48187614c79565b90506154d36020830186614547565b6154e060408301856141ee565b6154ed60608301846141ee565b95945050505050565b7f427579657220616c726561647920676f7420696e63656e7469766520666f722060008201527f74686973207472616e73616374696f6e20494421000000000000000000000000602082015250565b6000615552603483614468565b915061555d826154f6565b604082019050919050565b6000602082019050818103600083015261558181615545565b9050919050565b7f596f7520646964206e6f742073656c6c20746f20746869732062757965722100600082015250565b60006155be601f83614468565b91506155c982615588565b602082019050919050565b600060208201905081810360008301526155ed816155b1565b9050919050565b7f5468652050726f6475637420646f6573206e6f74206578697374210000000000600082015250565b600061562a601b83614468565b9150615635826155f4565b602082019050919050565b600060208201905081810360008301526156598161561d565b9050919050565b600060408201905061567560008301856141ee565b61568260208301846141ee565b9392505050565b60008151905061569881614182565b92915050565b6000602082840312156156b4576156b3614110565b5b60006156c284828501615689565b91505092915050565b60006156d682614178565b91506156e183614178565b92508282019050808211156156f9576156f8614826565b5b92915050565b600060a08201905061571460008301886141ee565b61572160208301876141ee565b61572e6040830186614547565b61573b6060830185614547565b61574860808301846141ee565b9695505050505050565b600060e082019050615767600083018a6141ee565b61577460208301896141ee565b61578160408301886141ee565b61578e60608301876141ee565b61579b60808301866141ee565b6157a860a08301856141ee565b6157b560c08301846141ee565b98975050505050505050565b60006080820190506157d660008301876141ee565b6157e360208301866141ee565b6157f060408301856141ee565b6157fd60608301846141ee565b95945050505050565b600060a08201905061581b60008301886141ee565b61582860208301876141ee565b61583560408301866141ee565b61584260608301856141ee565b61584f60808301846141ee565b9695505050505050565b6000604082019050818103600083015261587381856144a3565b90506158826020830184614547565b9392505050565b7f4e487b7100000000000000000000000000000000000000000000000000000000600052605160045260246000fdfea2646970667358221220f294ca15f0f02f36f1ac9bde7e1a60a7893ccfed9dffef72a670c726bf8c29e564736f6c63430008150033608060405234801561001057600080fd5b506115b8806100206000396000f3fe608060405234801561001057600080fd5b50600436106101005760003560e01c80637081c39c11610097578063b67d77c511610066578063b67d77c514610345578063b71d55d614610375578063c8a4ac9c146103a5578063fd57aafa146103d557610100565b80637081c39c14610285578063771602f7146102b557806397d67bff146102e5578063a391c15b1461031557610100565b806339288c9b116100d357806339288c9b146101c557806339cd63eb146101f557806348590bf114610225578063677342ce1461025557610100565b806303d0cea014610105578063071490b31461013557806313ed0846146101655780632862b2e214610195575b600080fd5b61011f600480360381019061011a9190611188565b610405565b60405161012c91906111c4565b60405180910390f35b61014f600480360381019061014a91906111df565b61041c565b60405161015c91906111c4565b60405180910390f35b61017f600480360381019061017a9190611246565b610563565b60405161018c91906111c4565b60405180910390f35b6101af60048036038101906101aa9190611246565b61059e565b6040516101bc91906111c4565b60405180910390f35b6101df60048036038101906101da9190611286565b6105c6565b6040516101ec91906111c4565b60405180910390f35b61020f600480360381019061020a9190611328565b610710565b60405161021c91906111c4565b60405180910390f35b61023f600480360381019061023a919061137b565b610740565b60405161024c91906111c4565b60405180910390f35b61026f600480360381019061026a9190611188565b61081d565b60405161027c91906111c4565b60405180910390f35b61029f600480360381019061029a91906111df565b61082f565b6040516102ac91906111c4565b60405180910390f35b6102cf60048036038101906102ca9190611246565b61091a565b6040516102dc91906111c4565b60405180910390f35b6102ff60048036038101906102fa91906111df565b610944565b60405161030c91906111c4565b60405180910390f35b61032f600480360381019061032a9190611246565b610995565b60405161033c91906111c4565b60405180910390f35b61035f600480360381019061035a9190611246565b6109b2565b60405161036c91906111c4565b60405180910390f35b61038f600480360381019061038a919061137b565b6109dc565b60405161039c91906111c4565b60405180910390f35b6103bf60048036038101906103ba9190611246565b610a9c565b6040516103cc91906111c4565b60405180910390f35b6103ef60048036038101906103ea9190611246565b610ab9565b6040516103fc91906111c4565b60405180910390f35b60008082905061041481610b02565b915050919050565b60006b033b2e3c9fd0803ce8000000851115610442576b033b2e3c9fd0803ce800000094505b82850361046457670de0b6b3a76400008461045d9190611425565b905061055b565b828511156104e357600061048961047b87866109b2565b671bc16d674ec8000061059e565b9050600061049f61049a838661091a565b61081d565b905060006104b66104b089886109b2565b83610995565b905060006104cc82670de0b6b3a764000061091a565b90506104d88189610a9c565b94505050505061055b565b8285101561055a5760006105086104fa85886109b2565b671bc16d674ec8000061059e565b9050600061051e610519838661091a565b61081d565b9050600061053561052f878a6109b2565b83610995565b905060006105438289610a9c565b905061054f88826109b2565b94505050505061055b565b5b949350505050565b60008061057883670de0b6b3a7640000610995565b90506105956105878286610a9c565b678ac7230489e80000610995565b91505092915050565b60008083905060008390506105bc8183610d5e90919063ffffffff16565b9250505092915050565b600081851061066c57600061064f610605670de0b6b3a76400008a6105eb9190611425565b8b670de0b6b3a7640000896106009190611425565b610710565b61064a670de0b6b3a76400008961061c9190611425565b8c670de0b6b3a7640000886106319190611425565b670de0b6b3a76400008a6106459190611425565b61082f565b61091a565b90506106648161065f898c610ab9565b61091a565b915050610705565b60006106b16106a2670de0b6b3a76400008a6106889190611425565b8b670de0b6b3a76400008961069d9190611425565b610710565b6106ac898c610ab9565b61091a565b9050610701816106fc670de0b6b3a7640000896106ce9190611425565b8c670de0b6b3a7640000886106e39190611425565b670de0b6b3a76400008a6106f79190611425565b61082f565b6109b2565b9150505b979650505050505050565b600061073761073161072b8468056bc75e2d63100000610995565b8661059e565b84610a9c565b90509392505050565b6000828411156107b1576107aa866107a5610776670de0b6b3a7640000866107689190611425565b678ac7230489e80000610995565b670de0b6b3a76400008861078a9190611425565b670de0b6b3a76400008861079e9190611425565b8a8c6109dc565b61091a565b9050610814565b6108118661080c6107dd670de0b6b3a7640000866107cf9190611425565b678ac7230489e80000610995565b670de0b6b3a7640000886107f19190611425565b670de0b6b3a7640000886108059190611425565b8a8c6109dc565b6109b2565b90505b95945050505050565b600061082882610d97565b9050919050565b60008285036108415760009050610912565b828511156108a957600061086661085887866109b2565b671bc16d674ec8000061059e565b9050600061087c610877838661091a565b61081d565b9050600061089361088d89886109b2565b83610995565b905061089f8188610a9c565b9350505050610912565b848311156109115760006108ce6108c085886109b2565b671bc16d674ec8000061059e565b905060006108e46108df838661091a565b61081d565b905060006108fb6108f5878a6109b2565b83610995565b90506109078188610a9c565b9350505050610912565b5b949350505050565b600061092f8284610e0d90919063ffffffff16565b90508281101561093e57600080fd5b92915050565b600061098b82670de0b6b3a76400008761095e9190611425565b670de0b6b3a7640000876109729190611425565b670de0b6b3a7640000876109869190611425565b61041c565b9050949350505050565b60006109aa8284610e1a90919063ffffffff16565b905092915050565b6000828211156109c157600080fd5b6109d48284610e5f90919063ffffffff16565b905092915050565b600083851115610a365760006109f286866109b2565b90506000610a008883610995565b90506000610a20610a118388610a9c565b683635c9adc5dea00000610995565b9050610a2c8186610a9c565b9350505050610a93565b83851015610a8e576000610a4a85876109b2565b90506000610a588883610995565b90506000610a78610a698388610a9c565b683635c9adc5dea00000610995565b9050610a848186610a9c565b9350505050610a93565b600090505b95945050505050565b6000610ab18284610e6c90919063ffffffff16565b905092915050565b600080610ace84670de0b6b3a7640000610995565b9050610ae281670de0b6b3a764000061091a565b9050610aed81610405565b9150610af98284610a9c565b91505092915050565b6000816fffffffffffffffffffffffffffffffff1060071b905081811c67ffffffffffffffff1060061b8117905081811c63ffffffff1060051b8117905081811c61ffff1060041b8117905081811c60ff1060031b8117905060008213610b7157631615e6386000526004601cfd5b7ff8f9f9faf9fdfafbf9fdfcfdfafbfcfef9fafdfafcfcfbfefafafcfbffffffff6f8421084210842108cc6318c6db6d54be83831c1c601f161a8118905081811b609f1c91506c8c3f38e95a6b1ff2ab1c3b3437828384856c29508e458543d8aa4df2abee78010260601d6d0139601a2efabe717e604cbb4894010260601d6d02247f7a7b6594320649aa03aba1010260601d036d02384773bdf1ac5676facced609183820260601d0390506cb9a025d814b29c212b8b1a07ce83820260601d0390506c0a09507084cc699bb0e71ea86a60601b838202039050826c465772b2bbbb5f824b15207a300180840260601d6d0388eaa27412d5aca026815d636e01905080840260601d6d0df99ac502031bf953eff472fdcc01905080840260601d6d13cdffb29d51d99322bdff5f221101905080840260601d6d0a0f742023def783a307a986912e01905080840260601d6d01920d8043ca89b5239253284e4201905080840260601d6c0b7a86d7375468fac667a0a527019050808205915081711340daa0d5f769dba1915cef59f0815a55060291508183609f037d0267a36c0c95b3975ab3ee5b203a7614a3f75373f047d803ae7b6687f2b302019150817d57115e47018c7177eebf7cd370a3356a1b7863008a5ae8028c72b88642840191508160ae1d92505050919050565b6000610d8f670de0b6b3a764000083610d7686610b02565b610d809190611471565b610d8a9190611518565b610e9f565b905092915050565b6000633b9aca00905060016ec097ce7bc90715b34b9f10000000007fffffffffffffffffffffffffffffffffffffffffffffffffffffffffffffffff81610de157610de06114e9565b5b04038211610dfb57670de0b6b3a764000082029150600190505b610e048261108f565b81029050919050565b6000818301905092915050565b6000670de0b6b3a7640000600019048311670de0b6b3a764000002158202610e4a57637c5f487d6000526004601cfd5b81670de0b6b3a7640000840204905092915050565b6000818303905092915050565b600081600019048311820215610e8a5763bac65e5b6000526004601cfd5b670de0b6b3a764000082840204905092915050565b60007ffffffffffffffffffffffffffffffffffffffffffffffffdc0d0570925a462d782131561108a57680755bf798b4a1bf1e58212610ee75763a37bfec96000526004601cfd5b6503782dace9d9604e83901b81610f0157610f006114e9565b5b059150600060606b8000000000000000000000006bb17217f7d1cf79abc9e3b398606086901b81610f3557610f346114e9565b5b0501901d90506bb17217f7d1cf79abc9e3b39881028303925060006c10fe68e7fd37d0007b713f7650840190506d02d16720577bd19bf614176fe9ea6060858302901d01905060006d04a4fd9f2a8b96949216d2255a6c8583010390506e0587f503bb6ea29d25fcb7401964506060838302901d01905079d835ebba824c98fb31b83b2ca45c00000000000000000000000085820201905060006c240c330e9fb2d9cbaf0fd5aafc860390506d0277594991cfc85f6e2461837cd96060878302901d0190506d1a521255e34f6a5061b25ef1c9c46060878302901d0390506db1bbb201f443cf962f1a1d3db4a56060878302901d0190506e02c72388d9f74f51a9331fed693f156060878302901d0390506e05180bb14799ab47a8a8cb2a527d576060878302901d01905080820594508360c30374029d9dc38563c32e5c2f6dc192ee70ef65f9978af38602901c9450505050505b919050565b600060b590508170ffffffffffffffffffffffffffffffffff1060071b82811c68ffffffffffffffffff1060061b8117905082811c64ffffffffff1060051b8117905082811c62ffffff1060041b81179050818160011c1b91506201000083821c01820260121c9150818304820160011c9150818304820160011c9150818304820160011c9150818304820160011c9150818304820160011c9150818304820160011c9150818304820160011c915081828404108203915050919050565b600080fd5b6000819050919050565b61116581611152565b811461117057600080fd5b50565b6000813590506111828161115c565b92915050565b60006020828403121561119e5761119d61114d565b5b60006111ac84828501611173565b91505092915050565b6111be81611152565b82525050565b60006020820190506111d960008301846111b5565b92915050565b600080600080608085870312156111f9576111f861114d565b5b600061120787828801611173565b945050602061121887828801611173565b935050604061122987828801611173565b925050606061123a87828801611173565b91505092959194509250565b6000806040838503121561125d5761125c61114d565b5b600061126b85828601611173565b925050602061127c85828601611173565b9150509250929050565b600080600080600080600060e0888a0312156112a5576112a461114d565b5b60006112b38a828b01611173565b97505060206112c48a828b01611173565b96505060406112d58a828b01611173565b95505060606112e68a828b01611173565b94505060806112f78a828b01611173565b93505060a06113088a828b01611173565b92505060c06113198a828b01611173565b91505092959891949750929550565b6000806000606084860312156113415761134061114d565b5b600061134f86828701611173565b935050602061136086828701611173565b925050604061137186828701611173565b9150509250925092565b600080600080600060a086880312156113975761139661114d565b5b60006113a588828901611173565b95505060206113b688828901611173565b94505060406113c788828901611173565b93505060606113d888828901611173565b92505060806113e988828901611173565b9150509295509295909350565b7f4e487b7100000000000000000000000000000000000000000000000000000000600052601160045260246000fd5b600061143082611152565b915061143b83611152565b925082820261144981611152565b915082820484148315176114605761145f6113f6565b5b5092915050565b6000819050919050565b600061147c82611467565b915061148783611467565b925082820261149581611467565b91507f800000000000000000000000000000000000000000000000000000000000000084146000841216156114cd576114cc6113f6565b5b82820584148315176114e2576114e16113f6565b5b5092915050565b7f4e487b7100000000000000000000000000000000000000000000000000000000600052601260045260246000fd5b600061152382611467565b915061152e83611467565b92508261153e5761153d6114e9565b5b600160000383147f800000000000000000000000000000000000000000000000000000000000000083141615611577576115766113f6565b5b82820590509291505056fea2646970667358221220bc74b226b733f6e7d29b661b6e0c67cd60042aaeee737354715424745f4cf95864736f6c63430008150033",
  "devdoc": {
    "kind": "dev",
    "methods": {},
    "version": 1
  },
  "userdoc": {
    "kind": "user",
    "methods": {
      "buyerReview(uint256,uint256)": {
        "notice": "The buyer review function allows for a registered buyer who has already made a purchase to leave a review "
      },
      "createBuyer(string)": {
        "notice": "The create buyer function allows the wallet to register itself as a buyer and give themselves a name"
      },
      "createSeller(string)": {
        "notice": "The create seller function allows the wallet to register itself as a seller and give themselves a name"
      },
      "purchaseProduct(uint256,address)": {
        "notice": "The purchase product function allows registered wallets to purchase a product "
      },
      "retrieveTotalBuyers()": {
        "notice": "View and Pure Functions  To access the private variables via the front end"
      },
      "sendIncentive(address,uint256)": {
        "notice": "The send incentive function allows a registered seller to send an incentive to the buyer who has left them a review "
      },
      "uploadProduct(string,uint256)": {
        "notice": "The upload product function allows for a registered seller to upload a product with a product name and price in wei"
      }
    },
    "version": 1
  },
  "storageLayout": {
    "storage": [
      {
        "astId": 974,
        "contract": "Contracts/Store.sol:Store",
        "label": "totalSellers",
        "offset": 0,
        "slot": "0",
        "type": "t_uint256"
      },
      {
        "astId": 977,
        "contract": "Contracts/Store.sol:Store",
        "label": "totalBuyers",
        "offset": 0,
        "slot": "1",
        "type": "t_uint256"
      },
      {
        "astId": 1010,
        "contract": "Contracts/Store.sol:Store",
        "label": "MathLib",
        "offset": 0,
        "slot": "2",
        "type": "t_contract(Math)966"
      },
      {
        "astId": 1012,
        "contract": "Contracts/Store.sol:Store",
        "label": "MathLibAddress",
        "offset": 0,
        "slot": "3",
        "type": "t_address"
      },
      {
        "astId": 1097,
        "contract": "Contracts/Store.sol:Store",
        "label": "sellersList",
        "offset": 0,
        "slot": "4",
        "type": "t_mapping(t_address,t_struct(Seller)1068_storage)"
      },
      {
        "astId": 1102,
        "contract": "Contracts/Store.sol:Store",
        "label": "buyersList",
        "offset": 0,
        "slot": "5",
        "type": "t_mapping(t_address,t_struct(Buyer)1092_storage)"
      },
      {
        "astId": 1106,
        "contract": "Contracts/Store.sol:Store",
        "label": "sellersListByID",
        "offset": 0,
        "slot": "6",
        "type": "t_mapping(t_uint256,t_address)"
      }
    ],
    "types": {
      "t_address": {
        "encoding": "inplace",
        "label": "address",
        "numberOfBytes": "20"
      },
      "t_bool": {
        "encoding": "inplace",
        "label": "bool",
        "numberOfBytes": "1"
      },
      "t_contract(Math)966": {
        "encoding": "inplace",
        "label": "contract Math",
        "numberOfBytes": "20"
      },
      "t_mapping(t_address,t_struct(Buyer)1092_storage)": {
        "encoding": "mapping",
        "key": "t_address",
        "label": "mapping(address => struct Store.Buyer)",
        "numberOfBytes": "32",
        "value": "t_struct(Buyer)1092_storage"
      },
      "t_mapping(t_address,t_struct(Seller)1068_storage)": {
        "encoding": "mapping",
        "key": "t_address",
        "label": "mapping(address => struct Store.Seller)",
        "numberOfBytes": "32",
        "value": "t_struct(Seller)1068_storage"
      },
      "t_mapping(t_uint256,t_address)": {
        "encoding": "mapping",
        "key": "t_uint256",
        "label": "mapping(uint256 => address)",
        "numberOfBytes": "32",
        "value": "t_address"
      },
      "t_mapping(t_uint256,t_struct(Product)1031_storage)": {
        "encoding": "mapping",
        "key": "t_uint256",
        "label": "mapping(uint256 => struct Store.Product)",
        "numberOfBytes": "32",
        "value": "t_struct(Product)1031_storage"
      },
      "t_mapping(t_uint256,t_struct(Transaction)1048_storage)": {
        "encoding": "mapping",
        "key": "t_uint256",
        "label": "mapping(uint256 => struct Store.Transaction)",
        "numberOfBytes": "32",
        "value": "t_struct(Transaction)1048_storage"
      },
      "t_string_storage": {
        "encoding": "bytes",
        "label": "string",
        "numberOfBytes": "32"
      },
      "t_struct(Buyer)1092_storage": {
        "encoding": "inplace",
        "label": "struct Store.Buyer",
        "members": [
          {
            "astId": 1070,
            "contract": "Contracts/Store.sol:Store",
            "label": "buyerAddress",
            "offset": 0,
            "slot": "0",
            "type": "t_address"
          },
          {
            "astId": 1072,
            "contract": "Contracts/Store.sol:Store",
            "label": "buyerName",
            "offset": 0,
            "slot": "1",
            "type": "t_string_storage"
          },
          {
            "astId": 1074,
            "contract": "Contracts/Store.sol:Store",
            "label": "buyerID",
            "offset": 0,
            "slot": "2",
            "type": "t_uint256"
          },
          {
            "astId": 1076,
            "contract": "Contracts/Store.sol:Store",
            "label": "isExist",
            "offset": 0,
            "slot": "3",
            "type": "t_bool"
          },
          {
            "astId": 1081,
            "contract": "Contracts/Store.sol:Store",
            "label": "txnMade",
            "offset": 0,
            "slot": "4",
            "type": "t_mapping(t_uint256,t_struct(Transaction)1048_storage)"
          },
          {
            "astId": 1083,
            "contract": "Contracts/Store.sol:Store",
            "label": "numOfTxn",
            "offset": 0,
            "slot": "5",
            "type": "t_uint256"
          },
          {
            "astId": 1085,
            "contract": "Contracts/Store.sol:Store",
            "label": "numOfReviewsGiven",
            "offset": 0,
            "slot": "6",
            "type": "t_uint256"
          },
          {
            "astId": 1087,
            "contract": "Contracts/Store.sol:Store",
            "label": "lastReviewTime",
            "offset": 0,
            "slot": "7",
            "type": "t_uint256"
          },
          {
            "astId": 1089,
            "contract": "Contracts/Store.sol:Store",
            "label": "repScore",
            "offset": 0,
            "slot": "8",
            "type": "t_uint256"
          },
          {
            "astId": 1091,
            "contract": "Contracts/Store.sol:Store",
            "label": "X_Value",
            "offset": 0,
            "slot": "9",
            "type": "t_uint256"
          }
        ],
        "numberOfBytes": "320"
      },
      "t_struct(Product)1031_storage": {
        "encoding": "inplace",
        "label": "struct Store.Product",
        "members": [
          {
            "astId": 1014,
            "contract": "Contracts/Store.sol:Store",
            "label": "productID",
            "offset": 0,
            "slot": "0",
            "type": "t_uint256"
          },
          {
            "astId": 1016,
            "contract": "Contracts/Store.sol:Store",
            "label": "productName",
            "offset": 0,
            "slot": "1",
            "type": "t_string_storage"
          },
          {
            "astId": 1018,
            "contract": "Contracts/Store.sol:Store",
            "label": "sellerAddress",
            "offset": 0,
            "slot": "2",
            "type": "t_address"
          },
          {
            "astId": 1020,
            "contract": "Contracts/Store.sol:Store",
            "label": "productPrice",
            "offset": 0,
            "slot": "3",
            "type": "t_uint256"
          },
          {
            "astId": 1022,
            "contract": "Contracts/Store.sol:Store",
            "label": "totalSold",
            "offset": 0,
            "slot": "4",
            "type": "t_uint256"
          },
          {
            "astId": 1024,
            "contract": "Contracts/Store.sol:Store",
            "label": "isExist",
            "offset": 0,
            "slot": "5",
            "type": "t_bool"
          },
          {
            "astId": 1026,
            "contract": "Contracts/Store.sol:Store",
            "label": "numOfReviewsGiven",
            "offset": 0,
            "slot": "6",
            "type": "t_uint256"
          },
          {
            "astId": 1028,
            "contract": "Contracts/Store.sol:Store",
            "label": "review",
            "offset": 0,
            "slot": "7",
            "type": "t_uint256"
          },
          {
            "astId": 1030,
            "contract": "Contracts/Store.sol:Store",
            "label": "X_Value",
            "offset": 0,
            "slot": "8",
            "type": "t_uint256"
          }
        ],
        "numberOfBytes": "288"
      },
      "t_struct(Seller)1068_storage": {
        "encoding": "inplace",
        "label": "struct Store.Seller",
        "members": [
          {
            "astId": 1050,
            "contract": "Contracts/Store.sol:Store",
            "label": "sellerAddress",
            "offset": 0,
            "slot": "0",
            "type": "t_address"
          },
          {
            "astId": 1052,
            "contract": "Contracts/Store.sol:Store",
            "label": "sellerName",
            "offset": 0,
            "slot": "1",
            "type": "t_string_storage"
          },
          {
            "astId": 1054,
            "contract": "Contracts/Store.sol:Store",
            "label": "sellerID",
            "offset": 0,
            "slot": "2",
            "type": "t_uint256"
          },
          {
            "astId": 1056,
            "contract": "Contracts/Store.sol:Store",
            "label": "isExist",
            "offset": 0,
            "slot": "3",
            "type": "t_bool"
          },
          {
            "astId": 1061,
            "contract": "Contracts/Store.sol:Store",
            "label": "sellerProducts",
            "offset": 0,
            "slot": "4",
            "type": "t_mapping(t_uint256,t_struct(Product)1031_storage)"
          },
          {
            "astId": 1063,
            "contract": "Contracts/Store.sol:Store",
            "label": "totalProducts",
            "offset": 0,
            "slot": "5",
            "type": "t_uint256"
          },
          {
            "astId": 1065,
            "contract": "Contracts/Store.sol:Store",
            "label": "totalRevenue",
            "offset": 0,
            "slot": "6",
            "type": "t_uint256"
          },
          {
            "astId": 1067,
            "contract": "Contracts/Store.sol:Store",
            "label": "numOfSales",
            "offset": 0,
            "slot": "7",
            "type": "t_uint256"
          }
        ],
        "numberOfBytes": "256"
      },
      "t_struct(Transaction)1048_storage": {
        "encoding": "inplace",
        "label": "struct Store.Transaction",
        "members": [
          {
            "astId": 1033,
            "contract": "Contracts/Store.sol:Store",
            "label": "txnID",
            "offset": 0,
            "slot": "0",
            "type": "t_uint256"
          },
          {
            "astId": 1035,
            "contract": "Contracts/Store.sol:Store",
            "label": "timeStampBought",
            "offset": 0,
            "slot": "1",
            "type": "t_uint256"
          },
          {
            "astId": 1037,
            "contract": "Contracts/Store.sol:Store",
            "label": "timeStampReviewed",
            "offset": 0,
            "slot": "2",
            "type": "t_uint256"
          },
          {
            "astId": 1039,
            "contract": "Contracts/Store.sol:Store",
            "label": "purchasedProductID",
            "offset": 0,
            "slot": "3",
            "type": "t_uint256"
          },
          {
            "astId": 1041,
            "contract": "Contracts/Store.sol:Store",
            "label": "sellerAddress",
            "offset": 0,
            "slot": "4",
            "type": "t_address"
          },
          {
            "astId": 1043,
            "contract": "Contracts/Store.sol:Store",
            "label": "reviewed",
            "offset": 20,
            "slot": "4",
            "type": "t_bool"
          },
          {
            "astId": 1045,
            "contract": "Contracts/Store.sol:Store",
            "label": "receivedIncentive",
            "offset": 21,
            "slot": "4",
            "type": "t_bool"
          },
          {
            "astId": 1047,
            "contract": "Contracts/Store.sol:Store",
            "label": "isExist",
            "offset": 22,
            "slot": "4",
            "type": "t_bool"
          }
        ],
        "numberOfBytes": "160"
      },
      "t_uint256": {
        "encoding": "inplace",
        "label": "uint256",
        "numberOfBytes": "32"
      }
    }
  }
}