{
  "address": "0x5FbDB2315678afecb367f032d93F642f64180aa3",
  "abi": [
    {
      "anonymous": false,
      "inputs": [
        {
          "indexed": false,
          "internalType": "uint256",
          "name": "productID",
          "type": "uint256"
        },
        {
          "indexed": false,
          "internalType": "address",
          "name": "sellerAddress",
          "type": "address"
        },
        {
          "indexed": false,
          "internalType": "address",
          "name": "buyerAddress",
          "type": "address"
        },
        {
          "indexed": false,
          "internalType": "uint256",
          "name": "buyerRating",
          "type": "uint256"
        },
        {
          "indexed": false,
          "internalType": "uint256",
          "name": "timeStamp",
          "type": "uint256"
        },
        {
          "indexed": false,
          "internalType": "uint256",
          "name": "finalProductRating",
          "type": "uint256"
        },
        {
          "indexed": false,
          "internalType": "uint256",
          "name": "totalReviews",
          "type": "uint256"
        }
      ],
      "name": "buyerReviewEvent",
      "type": "event"
    },
    {
      "anonymous": false,
      "inputs": [
        {
          "indexed": false,
          "internalType": "string",
          "name": "buyerName",
          "type": "string"
        },
        {
          "indexed": false,
          "internalType": "address",
          "name": "buyerAddress",
          "type": "address"
        },
        {
          "indexed": false,
          "internalType": "uint256",
          "name": "buyerID",
          "type": "uint256"
        }
      ],
      "name": "createBuyerEvent",
      "type": "event"
    },
    {
      "anonymous": false,
      "inputs": [
        {
          "indexed": false,
          "internalType": "string",
          "name": "sellerName",
          "type": "string"
        },
        {
          "indexed": false,
          "internalType": "address",
          "name": "sellerAddress",
          "type": "address"
        },
        {
          "indexed": false,
          "internalType": "uint256",
          "name": "sellerID",
          "type": "uint256"
        }
      ],
      "name": "createSellerEvent",
      "type": "event"
    },
    {
      "anonymous": false,
      "inputs": [
        {
          "indexed": false,
          "internalType": "uint256",
          "name": "txnID",
          "type": "uint256"
        },
        {
          "indexed": false,
          "internalType": "uint256",
          "name": "productID",
          "type": "uint256"
        },
        {
          "indexed": false,
          "internalType": "address",
          "name": "sellerAddress",
          "type": "address"
        },
        {
          "indexed": false,
          "internalType": "address",
          "name": "buyerAddress",
          "type": "address"
        },
        {
          "indexed": false,
          "internalType": "uint256",
          "name": "price",
          "type": "uint256"
        }
      ],
      "name": "purchasedProductsEvent",
      "type": "event"
    },
    {
      "anonymous": false,
      "inputs": [
        {
          "indexed": false,
          "internalType": "string",
          "name": "productName",
          "type": "string"
        },
        {
          "indexed": false,
          "internalType": "uint256",
          "name": "price",
          "type": "uint256"
        },
        {
          "indexed": false,
          "internalType": "uint256",
          "name": "productID",
          "type": "uint256"
        },
        {
          "indexed": false,
          "internalType": "address",
          "name": "sellerAddress",
          "type": "address"
        },
        {
          "indexed": false,
          "internalType": "uint256",
          "name": "sellerID",
          "type": "uint256"
        }
      ],
      "name": "uploadProductEvent",
      "type": "event"
    },
    {
      "inputs": [
        {
          "internalType": "uint256",
          "name": "buyerRating",
          "type": "uint256"
        },
        {
          "internalType": "uint256",
          "name": "txnID",
          "type": "uint256"
        }
      ],
      "name": "buyerReview",
      "outputs": [],
      "stateMutability": "nonpayable",
      "type": "function"
    },
    {
      "inputs": [
        {
          "internalType": "address",
          "name": "",
          "type": "address"
        }
      ],
      "name": "buyersList",
      "outputs": [
        {
          "internalType": "address",
          "name": "buyerAddress",
          "type": "address"
        },
        {
          "internalType": "string",
          "name": "buyerName",
          "type": "string"
        },
        {
          "internalType": "uint256",
          "name": "buyerID",
          "type": "uint256"
        },
        {
          "internalType": "bool",
          "name": "isExist",
          "type": "bool"
        },
        {
          "internalType": "uint256",
          "name": "numOfTxn",
          "type": "uint256"
        },
        {
          "internalType": "uint256",
          "name": "numOfReviewsGiven",
          "type": "uint256"
        }
      ],
      "stateMutability": "view",
      "type": "function"
    },
    {
      "inputs": [
        {
          "internalType": "string",
          "name": "_buyerName",
          "type": "string"
        }
      ],
      "name": "createBuyer",
      "outputs": [],
      "stateMutability": "nonpayable",
      "type": "function"
    },
    {
      "inputs": [
        {
          "internalType": "string",
          "name": "_sellerName",
          "type": "string"
        }
      ],
      "name": "createSeller",
      "outputs": [],
      "stateMutability": "nonpayable",
      "type": "function"
    },
    {
      "inputs": [
        {
          "internalType": "uint256",
          "name": "productID",
          "type": "uint256"
        },
        {
          "internalType": "address",
          "name": "sellerAddress",
          "type": "address"
        }
      ],
      "name": "purchaseProduct",
      "outputs": [],
      "stateMutability": "payable",
      "type": "function"
    },
    {
      "inputs": [
        {
          "internalType": "address",
          "name": "_buyerAddress",
          "type": "address"
        }
      ],
      "name": "retrieveBuyerID",
      "outputs": [
        {
          "internalType": "uint256",
          "name": "",
          "type": "uint256"
        }
      ],
      "stateMutability": "view",
      "type": "function"
    },
    {
      "inputs": [
        {
          "internalType": "address",
          "name": "buyerAddress",
          "type": "address"
        }
      ],
      "name": "retrieveBuyerName",
      "outputs": [
        {
          "internalType": "string",
          "name": "",
          "type": "string"
        }
      ],
      "stateMutability": "view",
      "type": "function"
    },
    {
      "inputs": [
        {
          "internalType": "address",
          "name": "_sellerAddress",
          "type": "address"
        }
      ],
      "name": "retrieveSellerID",
      "outputs": [
        {
          "internalType": "uint256",
          "name": "",
          "type": "uint256"
        }
      ],
      "stateMutability": "view",
      "type": "function"
    },
    {
      "inputs": [
        {
          "internalType": "address",
          "name": "_sellerAddress",
          "type": "address"
        }
      ],
      "name": "retrieveSellerName",
      "outputs": [
        {
          "internalType": "string",
          "name": "",
          "type": "string"
        }
      ],
      "stateMutability": "view",
      "type": "function"
    },
    {
      "inputs": [],
      "name": "retrieveTotalBuyers",
      "outputs": [
        {
          "internalType": "uint256",
          "name": "",
          "type": "uint256"
        }
      ],
      "stateMutability": "view",
      "type": "function"
    },
    {
      "inputs": [],
      "name": "retrieveTotalSellers",
      "outputs": [
        {
          "internalType": "uint256",
          "name": "",
          "type": "uint256"
        }
      ],
      "stateMutability": "view",
      "type": "function"
    },
    {
      "inputs": [
        {
          "internalType": "address",
          "name": "",
          "type": "address"
        }
      ],
      "name": "sellersList",
      "outputs": [
        {
          "internalType": "address",
          "name": "sellerAddress",
          "type": "address"
        },
        {
          "internalType": "string",
          "name": "sellerName",
          "type": "string"
        },
        {
          "internalType": "uint256",
          "name": "sellerID",
          "type": "uint256"
        },
        {
          "internalType": "bool",
          "name": "isExist",
          "type": "bool"
        },
        {
          "internalType": "uint256",
          "name": "totalProducts",
          "type": "uint256"
        },
        {
          "internalType": "uint256",
          "name": "totalRevenue",
          "type": "uint256"
        },
        {
          "internalType": "uint256",
          "name": "numOfSales",
          "type": "uint256"
        }
      ],
      "stateMutability": "view",
      "type": "function"
    },
    {
      "inputs": [
        {
          "internalType": "string",
          "name": "_productName",
          "type": "string"
        },
        {
          "internalType": "uint256",
          "name": "price",
          "type": "uint256"
        }
      ],
      "name": "uploadProduct",
      "outputs": [],
      "stateMutability": "nonpayable",
      "type": "function"
    },
    {
      "inputs": [
        {
          "internalType": "address",
          "name": "_sellerAddress",
          "type": "address"
        },
        {
          "internalType": "uint256",
          "name": "_productID",
          "type": "uint256"
        }
      ],
      "name": "viewProductName",
      "outputs": [
        {
          "internalType": "string",
          "name": "",
          "type": "string"
        }
      ],
      "stateMutability": "view",
      "type": "function"
    },
    {
      "inputs": [
        {
          "internalType": "address",
          "name": "_sellerAddress",
          "type": "address"
        },
        {
          "internalType": "uint256",
          "name": "_productID",
          "type": "uint256"
        }
      ],
      "name": "viewProductPrice",
      "outputs": [
        {
          "internalType": "uint256",
          "name": "",
          "type": "uint256"
        }
      ],
      "stateMutability": "view",
      "type": "function"
    },
    {
      "inputs": [
        {
          "internalType": "address",
          "name": "_sellerAddress",
          "type": "address"
        },
        {
          "internalType": "uint256",
          "name": "_productID",
          "type": "uint256"
        }
      ],
      "name": "viewProductReview",
      "outputs": [
        {
          "internalType": "uint256",
          "name": "",
          "type": "uint256"
        }
      ],
      "stateMutability": "view",
      "type": "function"
    },
    {
      "inputs": [
        {
          "internalType": "address",
          "name": "_buyerAddress",
          "type": "address"
        },
        {
          "internalType": "uint256",
          "name": "_txnID",
          "type": "uint256"
        }
      ],
      "name": "viewTransactions_ProductID",
      "outputs": [
        {
          "internalType": "uint256",
          "name": "",
          "type": "uint256"
        }
      ],
      "stateMutability": "view",
      "type": "function"
    },
    {
      "inputs": [
        {
          "internalType": "address",
          "name": "_buyerAddress",
          "type": "address"
        },
        {
          "internalType": "uint256",
          "name": "_txnID",
          "type": "uint256"
        }
      ],
      "name": "viewTransactions_SellerID",
      "outputs": [
        {
          "internalType": "uint256",
          "name": "",
          "type": "uint256"
        }
      ],
      "stateMutability": "view",
      "type": "function"
    }
  ],
  "transactionHash": "0x0e816f1027107d4db38078300f4dda65aa61a4d8e6c4f0f55dd7231f00dc9900",
  "args": [],
  "numDeployments": 1,
  "solcInputHash": "c6190f481c633c40a1a40b079b840f30",
  "bytecode": "0x608060405260008055600060015534801561001957600080fd5b50613e02806100296000396000f3fe6080604052600436106101095760003560e01c80639a7ff3f211610095578063ce4580c911610064578063ce4580c9146103e4578063db58278314610421578063eacbdb341461045e578063f881f00014610487578063fb1a1790146104a357610109565b80639a7ff3f2146102ff5780639f40f36214610328578063bba97d7614610365578063cc6c41e6146103a257610109565b8063561cf7f5116100dc578063561cf7f5146101f457806359fa878e1461023157806363abd5cf1461026e5780637fd67647146102975780638042659e146102c257610109565b806312f524e01461010e57806316415a021461014b5780633d1c1c531461018e5780634c5d2c8b146101b7575b600080fd5b34801561011a57600080fd5b5061013560048036038101906101309190612a4a565b6104ce565b6040516101429190612a99565b60405180910390f35b34801561015757600080fd5b50610172600480360381019061016d9190612ab4565b610661565b6040516101859796959493929190612b9b565b60405180910390f35b34801561019a57600080fd5b506101b560048036038101906101b09190612d46565b610758565b005b3480156101c357600080fd5b506101de60048036038101906101d99190612a4a565b610a5b565b6040516101eb9190612a99565b60405180910390f35b34801561020057600080fd5b5061021b60048036038101906102169190612ab4565b610d86565b6040516102289190612a99565b60405180910390f35b34801561023d57600080fd5b5061025860048036038101906102539190612ab4565b610e61565b6040516102659190612a99565b60405180910390f35b34801561027a57600080fd5b5061029560048036038101906102909190612da2565b610f3c565b005b3480156102a357600080fd5b506102ac61154e565b6040516102b99190612a99565b60405180910390f35b3480156102ce57600080fd5b506102e960048036038101906102e49190612ab4565b611558565b6040516102f69190612de2565b60405180910390f35b34801561030b57600080fd5b5061032660048036038101906103219190612e04565b6116bb565b005b34801561033457600080fd5b5061034f600480360381019061034a9190612a4a565b6118a4565b60405161035c9190612de2565b60405180910390f35b34801561037157600080fd5b5061038c60048036038101906103879190612ab4565b611abf565b6040516103999190612de2565b60405180910390f35b3480156103ae57600080fd5b506103c960048036038101906103c49190612ab4565b611b93565b6040516103db96959493929190612e4d565b60405180910390f35b3480156103f057600080fd5b5061040b60048036038101906104069190612a4a565b611c84565b6040516104189190612a99565b60405180910390f35b34801561042d57600080fd5b5061044860048036038101906104439190612a4a565b611e1a565b6040516104559190612a99565b60405180910390f35b34801561046a57600080fd5b5061048560048036038101906104809190612e04565b611fad565b005b6104a1600480360381019061049c9190612eb5565b61218d565b005b3480156104af57600080fd5b506104b8612999565b6040516104c59190612a99565b60405180910390f35b6000600260008473ffffffffffffffffffffffffffffffffffffffff1673ffffffffffffffffffffffffffffffffffffffff16815260200190815260200160002060030160009054906101000a900460ff1661055f576040517f08c379a000000000000000000000000000000000000000000000000000000000815260040161055690612f67565b60405180910390fd5b600260008473ffffffffffffffffffffffffffffffffffffffff1673ffffffffffffffffffffffffffffffffffffffff168152602001908152602001600020600401600083815260200190815260200160002060050160009054906101000a900460ff16610602576040517f08c379a00000000000000000000000000000000000000000000000000000000081526004016105f990612ff9565b60405180910390fd5b600260008473ffffffffffffffffffffffffffffffffffffffff1673ffffffffffffffffffffffffffffffffffffffff168152602001908152602001600020600401600083815260200190815260200160002060030154905092915050565b60026020528060005260406000206000915090508060000160009054906101000a900473ffffffffffffffffffffffffffffffffffffffff16908060010180546106aa90613048565b80601f01602080910402602001604051908101604052809291908181526020018280546106d690613048565b80156107235780601f106106f857610100808354040283529160200191610723565b820191906000526020600020905b81548152906001019060200180831161070657829003601f168201915b5050505050908060020154908060030160009054906101000a900460ff16908060050154908060060154908060070154905087565b600260003373ffffffffffffffffffffffffffffffffffffffff1673ffffffffffffffffffffffffffffffffffffffff16815260200190815260200160002060030160009054906101000a900460ff166107e7576040517f08c379a00000000000000000000000000000000000000000000000000000000081526004016107de906130eb565b60405180910390fd5b6000600260003373ffffffffffffffffffffffffffffffffffffffff1673ffffffffffffffffffffffffffffffffffffffff1681526020019081526020016000209050600081600401600083600501600081546108439061313a565b919050819055815260200190815260200160002090508160050154816000018190555083816001019081610877919061332e565b50338160020160006101000a81548173ffffffffffffffffffffffffffffffffffffffff021916908373ffffffffffffffffffffffffffffffffffffffff1602179055508281600301819055506000816004018190555060018160050160006101000a81548160ff021916908315150217905550808260040160008460050154815260200190815260200160002060008201548160000155600182018160010190816109239190613416565b506002820160009054906101000a900473ffffffffffffffffffffffffffffffffffffffff168160020160006101000a81548173ffffffffffffffffffffffffffffffffffffffff021916908373ffffffffffffffffffffffffffffffffffffffff16021790555060038201548160030155600482015481600401556005820160009054906101000a900460ff168160050160006101000a81548160ff02191690831515021790555060068201548160060155600782015481600701559050507f827f91e7f4fbb905bd650f742c7af7b1b989f3eb56bb80e8faf09038583b72ef81600101826003015483600001548460020160009054906101000a900473ffffffffffffffffffffffffffffffffffffffff168660020154604051610a4d959493929190613582565b60405180910390a150505050565b6000600360008473ffffffffffffffffffffffffffffffffffffffff1673ffffffffffffffffffffffffffffffffffffffff16815260200190815260200160002060030160009054906101000a900460ff16610aec576040517f08c379a0000000000000000000000000000000000000000000000000000000008152600401610ae39061364e565b60405180910390fd5b600360008473ffffffffffffffffffffffffffffffffffffffff1673ffffffffffffffffffffffffffffffffffffffff1681526020019081526020016000206004016000838152602001908152602001600020600a0160019054906101000a900460ff16610b8f576040517f08c379a0000000000000000000000000000000000000000000000000000000008152600401610b86906136e0565b60405180910390fd5b6000600360008573ffffffffffffffffffffffffffffffffffffffff1673ffffffffffffffffffffffffffffffffffffffff16815260200190815260200160002060040160008481526020019081526020016000206002016040518061010001604052908160008201548152602001600182018054610c0d90613048565b80601f0160208091040260200160405190810160405280929190818152602001828054610c3990613048565b8015610c865780601f10610c5b57610100808354040283529160200191610c86565b820191906000526020600020905b815481529060010190602001808311610c6957829003601f168201915b505050505081526020016002820160009054906101000a900473ffffffffffffffffffffffffffffffffffffffff1673ffffffffffffffffffffffffffffffffffffffff1673ffffffffffffffffffffffffffffffffffffffff16815260200160038201548152602001600482015481526020016005820160009054906101000a900460ff161515151581526020016006820154815260200160078201548152505090506000816040015190506000600260008373ffffffffffffffffffffffffffffffffffffffff1673ffffffffffffffffffffffffffffffffffffffff16815260200190815260200160002060020154905080935050505092915050565b6000600260008373ffffffffffffffffffffffffffffffffffffffff1673ffffffffffffffffffffffffffffffffffffffff16815260200190815260200160002060030160009054906101000a900460ff16610e17576040517f08c379a0000000000000000000000000000000000000000000000000000000008152600401610e0e90612f67565b60405180910390fd5b600260008373ffffffffffffffffffffffffffffffffffffffff1673ffffffffffffffffffffffffffffffffffffffff168152602001908152602001600020600201549050919050565b6000600360008373ffffffffffffffffffffffffffffffffffffffff1673ffffffffffffffffffffffffffffffffffffffff16815260200190815260200160002060030160009054906101000a900460ff16610ef2576040517f08c379a0000000000000000000000000000000000000000000000000000000008152600401610ee99061364e565b60405180910390fd5b600360008373ffffffffffffffffffffffffffffffffffffffff1673ffffffffffffffffffffffffffffffffffffffff168152602001908152602001600020600201549050919050565b600360003373ffffffffffffffffffffffffffffffffffffffff1673ffffffffffffffffffffffffffffffffffffffff16815260200190815260200160002060030160009054906101000a900460ff16610fcb576040517f08c379a0000000000000000000000000000000000000000000000000000000008152600401610fc29061374c565b60405180910390fd5b600360003373ffffffffffffffffffffffffffffffffffffffff1673ffffffffffffffffffffffffffffffffffffffff1681526020019081526020016000206004016000828152602001908152602001600020600a0160019054906101000a900460ff1661106e576040517f08c379a0000000000000000000000000000000000000000000000000000000008152600401611065906137de565b60405180910390fd5b60001515600360003373ffffffffffffffffffffffffffffffffffffffff1673ffffffffffffffffffffffffffffffffffffffff1681526020019081526020016000206004016000838152602001908152602001600020600a0160009054906101000a900460ff16151514611118576040517f08c379a000000000000000000000000000000000000000000000000000000000815260040161110f90613870565b60405180910390fd5b6000600360003373ffffffffffffffffffffffffffffffffffffffff1673ffffffffffffffffffffffffffffffffffffffff168152602001908152602001600020600401600083815260200190815260200160002060020160020160009054906101000a900473ffffffffffffffffffffffffffffffffffffffff1690506000600360003373ffffffffffffffffffffffffffffffffffffffff1673ffffffffffffffffffffffffffffffffffffffff16815260200190815260200160002060040160008481526020019081526020016000206002016000015490506001600260008473ffffffffffffffffffffffffffffffffffffffff1673ffffffffffffffffffffffffffffffffffffffff1681526020019081526020016000206004016000838152602001908152602001600020600601546112579190613890565b84600260008573ffffffffffffffffffffffffffffffffffffffff1673ffffffffffffffffffffffffffffffffffffffff168152602001908152602001600020600401600084815260200190815260200160002060060154600260008673ffffffffffffffffffffffffffffffffffffffff1673ffffffffffffffffffffffffffffffffffffffff16815260200190815260200160002060040160008581526020019081526020016000206007015461131091906138c4565b61131a9190613890565b6113249190613935565b600260008473ffffffffffffffffffffffffffffffffffffffff1673ffffffffffffffffffffffffffffffffffffffff168152602001908152602001600020600401600083815260200190815260200160002060070181905550600260008373ffffffffffffffffffffffffffffffffffffffff1673ffffffffffffffffffffffffffffffffffffffff168152602001908152602001600020600401600082815260200190815260200160002060060160008154809291906113e59061313a565b91905055506001600360003373ffffffffffffffffffffffffffffffffffffffff1673ffffffffffffffffffffffffffffffffffffffff1681526020019081526020016000206004016000858152602001908152602001600020600a0160006101000a81548160ff0219169083151502179055507fc8eace918d73b100093f09590ebd3bd2e45fcbe6f7faf08b0a90855ea61edf858183338742600260008973ffffffffffffffffffffffffffffffffffffffff1673ffffffffffffffffffffffffffffffffffffffff168152602001908152602001600020600401600088815260200190815260200160002060070154600260008a73ffffffffffffffffffffffffffffffffffffffff1673ffffffffffffffffffffffffffffffffffffffff1681526020019081526020016000206004016000898152602001908152602001600020600601546040516115409796959493929190613966565b60405180910390a150505050565b6000600154905090565b6060600260008373ffffffffffffffffffffffffffffffffffffffff1673ffffffffffffffffffffffffffffffffffffffff16815260200190815260200160002060030160009054906101000a900460ff166115e9576040517f08c379a00000000000000000000000000000000000000000000000000000000081526004016115e090612f67565b60405180910390fd5b600260008373ffffffffffffffffffffffffffffffffffffffff1673ffffffffffffffffffffffffffffffffffffffff168152602001908152602001600020600101805461163690613048565b80601f016020809104026020016040519081016040528092919081815260200182805461166290613048565b80156116af5780601f10611684576101008083540402835291602001916116af565b820191906000526020600020905b81548152906001019060200180831161169257829003601f168201915b50505050509050919050565b600260003373ffffffffffffffffffffffffffffffffffffffff1673ffffffffffffffffffffffffffffffffffffffff16815260200190815260200160002060030160009054906101000a900460ff161561174b576040517f08c379a000000000000000000000000000000000000000000000000000000000815260040161174290613a47565b60405180910390fd5b6000600260003373ffffffffffffffffffffffffffffffffffffffff1673ffffffffffffffffffffffffffffffffffffffff1681526020019081526020016000209050338160000160006101000a81548173ffffffffffffffffffffffffffffffffffffffff021916908373ffffffffffffffffffffffffffffffffffffffff160217905550818160010190816117e2919061332e565b5060008081546117f19061313a565b919050819055816002018190555060018160030160006101000a81548160ff0219169083151502179055506000816005018190555060008160060181905550600081600701819055507f2daf7e02bff4313b1e326e8f126cffd3ff7c437229109ce78a53951ac8d70638816001018260000160009054906101000a900473ffffffffffffffffffffffffffffffffffffffff16836002015460405161189893929190613a67565b60405180910390a15050565b6060600260008473ffffffffffffffffffffffffffffffffffffffff1673ffffffffffffffffffffffffffffffffffffffff16815260200190815260200160002060030160009054906101000a900460ff16611935576040517f08c379a000000000000000000000000000000000000000000000000000000000815260040161192c90612f67565b60405180910390fd5b600260008473ffffffffffffffffffffffffffffffffffffffff1673ffffffffffffffffffffffffffffffffffffffff168152602001908152602001600020600401600083815260200190815260200160002060050160009054906101000a900460ff166119d8576040517f08c379a00000000000000000000000000000000000000000000000000000000081526004016119cf90613b17565b60405180910390fd5b600260008473ffffffffffffffffffffffffffffffffffffffff1673ffffffffffffffffffffffffffffffffffffffff16815260200190815260200160002060040160008381526020019081526020016000206001018054611a3990613048565b80601f0160208091040260200160405190810160405280929190818152602001828054611a6590613048565b8015611ab25780601f10611a8757610100808354040283529160200191611ab2565b820191906000526020600020905b815481529060010190602001808311611a9557829003601f168201915b5050505050905092915050565b6060600360008373ffffffffffffffffffffffffffffffffffffffff1673ffffffffffffffffffffffffffffffffffffffff1681526020019081526020016000206001018054611b0e90613048565b80601f0160208091040260200160405190810160405280929190818152602001828054611b3a90613048565b8015611b875780601f10611b5c57610100808354040283529160200191611b87565b820191906000526020600020905b815481529060010190602001808311611b6a57829003601f168201915b50505050509050919050565b60036020528060005260406000206000915090508060000160009054906101000a900473ffffffffffffffffffffffffffffffffffffffff1690806001018054611bdc90613048565b80601f0160208091040260200160405190810160405280929190818152602001828054611c0890613048565b8015611c555780601f10611c2a57610100808354040283529160200191611c55565b820191906000526020600020905b815481529060010190602001808311611c3857829003601f168201915b5050505050908060020154908060030160009054906101000a900460ff16908060050154908060060154905086565b6000600360008473ffffffffffffffffffffffffffffffffffffffff1673ffffffffffffffffffffffffffffffffffffffff16815260200190815260200160002060030160009054906101000a900460ff16611d15576040517f08c379a0000000000000000000000000000000000000000000000000000000008152600401611d0c9061364e565b60405180910390fd5b600360008473ffffffffffffffffffffffffffffffffffffffff1673ffffffffffffffffffffffffffffffffffffffff1681526020019081526020016000206004016000838152602001908152602001600020600a0160019054906101000a900460ff16611db8576040517f08c379a0000000000000000000000000000000000000000000000000000000008152600401611daf906136e0565b60405180910390fd5b600360008473ffffffffffffffffffffffffffffffffffffffff1673ffffffffffffffffffffffffffffffffffffffff168152602001908152602001600020600401600083815260200190815260200160002060020160000154905092915050565b6000600260008473ffffffffffffffffffffffffffffffffffffffff1673ffffffffffffffffffffffffffffffffffffffff16815260200190815260200160002060030160009054906101000a900460ff16611eab576040517f08c379a0000000000000000000000000000000000000000000000000000000008152600401611ea290612f67565b60405180910390fd5b600260008473ffffffffffffffffffffffffffffffffffffffff1673ffffffffffffffffffffffffffffffffffffffff168152602001908152602001600020600401600083815260200190815260200160002060050160009054906101000a900460ff16611f4e576040517f08c379a0000000000000000000000000000000000000000000000000000000008152600401611f4590613b17565b60405180910390fd5b600260008473ffffffffffffffffffffffffffffffffffffffff1673ffffffffffffffffffffffffffffffffffffffff168152602001908152602001600020600401600083815260200190815260200160002060070154905092915050565b600360003373ffffffffffffffffffffffffffffffffffffffff1673ffffffffffffffffffffffffffffffffffffffff16815260200190815260200160002060030160009054906101000a900460ff161561203d576040517f08c379a000000000000000000000000000000000000000000000000000000000815260040161203490613ba9565b60405180910390fd5b6000600360003373ffffffffffffffffffffffffffffffffffffffff1673ffffffffffffffffffffffffffffffffffffffff1681526020019081526020016000209050338160000160006101000a81548173ffffffffffffffffffffffffffffffffffffffff021916908373ffffffffffffffffffffffffffffffffffffffff160217905550818160010190816120d4919061332e565b506001600081546120e49061313a565b919050819055816002018190555060018160030160006101000a81548160ff02191690831515021790555060008160060181905550600081600501819055507ffd725ca3cb3d8bc741d29f7499abbe7b64121c292e29cad85e82ac12d79c7de6816001018260000160009054906101000a900473ffffffffffffffffffffffffffffffffffffffff16836002015460405161218193929190613a67565b60405180910390a15050565b600360003373ffffffffffffffffffffffffffffffffffffffff1673ffffffffffffffffffffffffffffffffffffffff16815260200190815260200160002060030160009054906101000a900460ff1661221c576040517f08c379a00000000000000000000000000000000000000000000000000000000081526004016122139061374c565b60405180910390fd5b600260008273ffffffffffffffffffffffffffffffffffffffff1673ffffffffffffffffffffffffffffffffffffffff168152602001908152602001600020600401600083815260200190815260200160002060050160009054906101000a900460ff166122bf576040517f08c379a00000000000000000000000000000000000000000000000000000000081526004016122b690613c15565b60405180910390fd5b600260008273ffffffffffffffffffffffffffffffffffffffff1673ffffffffffffffffffffffffffffffffffffffff1681526020019081526020016000206004016000838152602001908152602001600020600301543414612357576040517f08c379a000000000000000000000000000000000000000000000000000000000815260040161234e90613ca7565b60405180910390fd5b60008173ffffffffffffffffffffffffffffffffffffffff163460405161237d90613cf8565b60006040518083038185875af1925050503d80600081146123ba576040519150601f19603f3d011682016040523d82523d6000602084013e6123bf565b606091505b5050905080612403576040517f08c379a00000000000000000000000000000000000000000000000000000000081526004016123fa90613d59565b60405180910390fd5b6000600360003373ffffffffffffffffffffffffffffffffffffffff1673ffffffffffffffffffffffffffffffffffffffff168152602001908152602001600020600501600081546124549061313a565b91905081905590506000600360003373ffffffffffffffffffffffffffffffffffffffff1673ffffffffffffffffffffffffffffffffffffffff16815260200190815260200160002060040160008381526020019081526020016000209050818160000181905550428160010181905550600260008573ffffffffffffffffffffffffffffffffffffffff1673ffffffffffffffffffffffffffffffffffffffff168152602001908152602001600020600401600086815260200190815260200160002081600201600082015481600001556001820181600101908161253a9190613416565b506002820160009054906101000a900473ffffffffffffffffffffffffffffffffffffffff168160020160006101000a81548173ffffffffffffffffffffffffffffffffffffffff021916908373ffffffffffffffffffffffffffffffffffffffff16021790555060038201548160030155600482015481600401556005820160009054906101000a900460ff168160050160006101000a81548160ff0219169083151502179055506006820154816006015560078201548160070155905050600081600a0160006101000a81548160ff021916908315150217905550600181600a0160016101000a81548160ff02191690831515021790555080600360003373ffffffffffffffffffffffffffffffffffffffff1673ffffffffffffffffffffffffffffffffffffffff16815260200190815260200160002060040160008481526020019081526020016000206000820154816000015560018201548160010155600282018160020160008201548160000155600182018160010190816126c29190613416565b506002820160009054906101000a900473ffffffffffffffffffffffffffffffffffffffff168160020160006101000a81548173ffffffffffffffffffffffffffffffffffffffff021916908373ffffffffffffffffffffffffffffffffffffffff16021790555060038201548160030155600482015481600401556005820160009054906101000a900460ff168160050160006101000a81548160ff02191690831515021790555060068201548160060155600782015481600701555050600a820160009054906101000a900460ff1681600a0160006101000a81548160ff021916908315150217905550600a820160019054906101000a900460ff1681600a0160016101000a81548160ff021916908315150217905550905050600260008573ffffffffffffffffffffffffffffffffffffffff1673ffffffffffffffffffffffffffffffffffffffff168152602001908152602001600020600401600086815260200190815260200160002060040160008154809291906128459061313a565b919050555034600260008673ffffffffffffffffffffffffffffffffffffffff1673ffffffffffffffffffffffffffffffffffffffff168152602001908152602001600020600601600082825461289c9190613890565b925050819055506001600260008673ffffffffffffffffffffffffffffffffffffffff1673ffffffffffffffffffffffffffffffffffffffff16815260200190815260200160002060070160008282546128f69190613890565b925050819055507f2a87cec993d23d666d1bf9abb68302d6a2d20ba6a5287439294d1050d92f094282868633600260008a73ffffffffffffffffffffffffffffffffffffffff1673ffffffffffffffffffffffffffffffffffffffff16815260200190815260200160002060040160008b81526020019081526020016000206003015460405161298a959493929190613d79565b60405180910390a15050505050565b60008054905090565b6000604051905090565b600080fd5b600080fd5b600073ffffffffffffffffffffffffffffffffffffffff82169050919050565b60006129e1826129b6565b9050919050565b6129f1816129d6565b81146129fc57600080fd5b50565b600081359050612a0e816129e8565b92915050565b6000819050919050565b612a2781612a14565b8114612a3257600080fd5b50565b600081359050612a4481612a1e565b92915050565b60008060408385031215612a6157612a606129ac565b5b6000612a6f858286016129ff565b9250506020612a8085828601612a35565b9150509250929050565b612a9381612a14565b82525050565b6000602082019050612aae6000830184612a8a565b92915050565b600060208284031215612aca57612ac96129ac565b5b6000612ad8848285016129ff565b91505092915050565b612aea816129d6565b82525050565b600081519050919050565b600082825260208201905092915050565b60005b83811015612b2a578082015181840152602081019050612b0f565b60008484015250505050565b6000601f19601f8301169050919050565b6000612b5282612af0565b612b5c8185612afb565b9350612b6c818560208601612b0c565b612b7581612b36565b840191505092915050565b60008115159050919050565b612b9581612b80565b82525050565b600060e082019050612bb0600083018a612ae1565b8181036020830152612bc28189612b47565b9050612bd16040830188612a8a565b612bde6060830187612b8c565b612beb6080830186612a8a565b612bf860a0830185612a8a565b612c0560c0830184612a8a565b98975050505050505050565b600080fd5b600080fd5b7f4e487b7100000000000000000000000000000000000000000000000000000000600052604160045260246000fd5b612c5382612b36565b810181811067ffffffffffffffff82111715612c7257612c71612c1b565b5b80604052505050565b6000612c856129a2565b9050612c918282612c4a565b919050565b600067ffffffffffffffff821115612cb157612cb0612c1b565b5b612cba82612b36565b9050602081019050919050565b82818337600083830152505050565b6000612ce9612ce484612c96565b612c7b565b905082815260208101848484011115612d0557612d04612c16565b5b612d10848285612cc7565b509392505050565b600082601f830112612d2d57612d2c612c11565b5b8135612d3d848260208601612cd6565b91505092915050565b60008060408385031215612d5d57612d5c6129ac565b5b600083013567ffffffffffffffff811115612d7b57612d7a6129b1565b5b612d8785828601612d18565b9250506020612d9885828601612a35565b9150509250929050565b60008060408385031215612db957612db86129ac565b5b6000612dc785828601612a35565b9250506020612dd885828601612a35565b9150509250929050565b60006020820190508181036000830152612dfc8184612b47565b905092915050565b600060208284031215612e1a57612e196129ac565b5b600082013567ffffffffffffffff811115612e3857612e376129b1565b5b612e4484828501612d18565b91505092915050565b600060c082019050612e626000830189612ae1565b8181036020830152612e748188612b47565b9050612e836040830187612a8a565b612e906060830186612b8c565b612e9d6080830185612a8a565b612eaa60a0830184612a8a565b979650505050505050565b60008060408385031215612ecc57612ecb6129ac565b5b6000612eda85828601612a35565b9250506020612eeb858286016129ff565b9150509250929050565b7f53656c6c6572207769746820746869732077616c6c657420646f6573206e6f7460008201527f2065786973747321200000000000000000000000000000000000000000000000602082015250565b6000612f51602983612afb565b9150612f5c82612ef5565b604082019050919050565b60006020820190508181036000830152612f8081612f44565b9050919050565b7f53656c6c6572207769746820746869732070726f6475637420646f6573206e6f60008201527f7420657869737473212000000000000000000000000000000000000000000000602082015250565b6000612fe3602a83612afb565b9150612fee82612f87565b604082019050919050565b6000602082019050818103600083015261301281612fd6565b9050919050565b7f4e487b7100000000000000000000000000000000000000000000000000000000600052602260045260246000fd5b6000600282049050600182168061306057607f821691505b60208210810361307357613072613019565b5b50919050565b7f53656c6c6572207769746820746869732077616c6c657420646f6573206e6f7460008201527f2065786973747321000000000000000000000000000000000000000000000000602082015250565b60006130d5602883612afb565b91506130e082613079565b604082019050919050565b60006020820190508181036000830152613104816130c8565b9050919050565b7f4e487b7100000000000000000000000000000000000000000000000000000000600052601160045260246000fd5b600061314582612a14565b91507fffffffffffffffffffffffffffffffffffffffffffffffffffffffffffffffff82036131775761317661310b565b5b600182019050919050565b60008190508160005260206000209050919050565b60006020601f8301049050919050565b600082821b905092915050565b6000600883026131e47fffffffffffffffffffffffffffffffffffffffffffffffffffffffffffffffff826131a7565b6131ee86836131a7565b95508019841693508086168417925050509392505050565b6000819050919050565b600061322b61322661322184612a14565b613206565b612a14565b9050919050565b6000819050919050565b61324583613210565b61325961325182613232565b8484546131b4565b825550505050565b600090565b61326e613261565b61327981848461323c565b505050565b5b8181101561329d57613292600082613266565b60018101905061327f565b5050565b601f8211156132e2576132b381613182565b6132bc84613197565b810160208510156132cb578190505b6132df6132d785613197565b83018261327e565b50505b505050565b600082821c905092915050565b6000613305600019846008026132e7565b1980831691505092915050565b600061331e83836132f4565b9150826002028217905092915050565b61333782612af0565b67ffffffffffffffff8111156133505761334f612c1b565b5b61335a8254613048565b6133658282856132a1565b600060209050601f8311600181146133985760008415613386578287015190505b6133908582613312565b8655506133f8565b601f1984166133a686613182565b60005b828110156133ce578489015182556001820191506020850194506020810190506133a9565b868310156133eb57848901516133e7601f8916826132f4565b8355505b6001600288020188555050505b505050505050565b60008154905061340f81613048565b9050919050565b8181036134245750506134fc565b61342d82613400565b67ffffffffffffffff81111561344657613445612c1b565b5b6134508254613048565b61345b8282856132a1565b6000601f83116001811461348a5760008415613478578287015490505b6134828582613312565b8655506134f5565b601f19841661349887613182565b96506134a386613182565b60005b828110156134cb578489015482556001820191506001850194506020810190506134a6565b868310156134e857848901546134e4601f8916826132f4565b8355505b6001600288020188555050505b5050505050505b565b6000815461350b81613048565b6135158186612afb565b94506001821660008114613530576001811461354657613579565b60ff198316865281151560200286019350613579565b61354f85613182565b60005b8381101561357157815481890152600182019150602081019050613552565b808801955050505b50505092915050565b600060a082019050818103600083015261359c81886134fe565b90506135ab6020830187612a8a565b6135b86040830186612a8a565b6135c56060830185612ae1565b6135d26080830184612a8a565b9695505050505050565b7f4275796572207769746820746869732077616c6c657420646f6573206e6f742060008201527f6578697374732120000000000000000000000000000000000000000000000000602082015250565b6000613638602883612afb565b9150613643826135dc565b604082019050919050565b600060208201905081810360008301526136678161362b565b9050919050565b7f54786e20494420696e207468652073656c6c657220646f6573206e6f7420657860008201527f6973747321200000000000000000000000000000000000000000000000000000602082015250565b60006136ca602683612afb565b91506136d58261366e565b604082019050919050565b600060208201905081810360008301526136f9816136bd565b9050919050565b7f5468697320627579657220646f6573206e6f7420657869737421000000000000600082015250565b6000613736601a83612afb565b915061374182613700565b602082019050919050565b6000602082019050818103600083015261376581613729565b9050919050565b7f427579657220646f6573206e6f7420686176652074686973207472616e73616360008201527f74696f6e20494421000000000000000000000000000000000000000000000000602082015250565b60006137c8602883612afb565b91506137d38261376c565b604082019050919050565b600060208201905081810360008301526137f7816137bb565b9050919050565b7f427579657220616c72656164792072657669657765642074686973207472616e60008201527f73616374696f6e20494421000000000000000000000000000000000000000000602082015250565b600061385a602b83612afb565b9150613865826137fe565b604082019050919050565b600060208201905081810360008301526138898161384d565b9050919050565b600061389b82612a14565b91506138a683612a14565b92508282019050808211156138be576138bd61310b565b5b92915050565b60006138cf82612a14565b91506138da83612a14565b92508282026138e881612a14565b915082820484148315176138ff576138fe61310b565b5b5092915050565b7f4e487b7100000000000000000000000000000000000000000000000000000000600052601260045260246000fd5b600061394082612a14565b915061394b83612a14565b92508261395b5761395a613906565b5b828204905092915050565b600060e08201905061397b600083018a612a8a565b6139886020830189612ae1565b6139956040830188612ae1565b6139a26060830187612a8a565b6139af6080830186612a8a565b6139bc60a0830185612a8a565b6139c960c0830184612a8a565b98975050505050505050565b7f53656c6c6572207769746820746869732077616c6c657420616c72656164792060008201527f6578697374732100000000000000000000000000000000000000000000000000602082015250565b6000613a31602783612afb565b9150613a3c826139d5565b604082019050919050565b60006020820190508181036000830152613a6081613a24565b9050919050565b60006060820190508181036000830152613a8181866134fe565b9050613a906020830185612ae1565b613a9d6040830184612a8a565b949350505050565b7f50726f64756374494420696e207468652073656c6c657220646f6573206e6f7460008201527f2065786973747321200000000000000000000000000000000000000000000000602082015250565b6000613b01602983612afb565b9150613b0c82613aa5565b604082019050919050565b60006020820190508181036000830152613b3081613af4565b9050919050565b7f4275796572207769746820746869732077616c6c657420616c7265616479206560008201527f7869737473210000000000000000000000000000000000000000000000000000602082015250565b6000613b93602683612afb565b9150613b9e82613b37565b604082019050919050565b60006020820190508181036000830152613bc281613b86565b9050919050565b7f5468652050726f6475637420646f6573206e6f74206578697374210000000000600082015250565b6000613bff601b83612afb565b9150613c0a82613bc9565b602082019050919050565b60006020820190508181036000830152613c2e81613bf2565b9050919050565b7f457468657273206e6f7420656e6f7567682f746f6f206d75636820746f20627560008201527f79207468652070726f6475637421000000000000000000000000000000000000602082015250565b6000613c91602e83612afb565b9150613c9c82613c35565b604082019050919050565b60006020820190508181036000830152613cc081613c84565b9050919050565b600081905092915050565b50565b6000613ce2600083613cc7565b9150613ced82613cd2565b600082019050919050565b6000613d0382613cd5565b9150819050919050565b7f4661696c656420746f2073656e64206574686572000000000000000000000000600082015250565b6000613d43601483612afb565b9150613d4e82613d0d565b602082019050919050565b60006020820190508181036000830152613d7281613d36565b9050919050565b600060a082019050613d8e6000830188612a8a565b613d9b6020830187612a8a565b613da86040830186612ae1565b613db56060830185612ae1565b613dc26080830184612a8a565b969550505050505056fea2646970667358221220993f87bab35bb573cb3980661a0277193f2e32ae67c8314d8e030227bc088c8864736f6c63430008150033",
  "devdoc": {
    "kind": "dev",
    "methods": {},
    "version": 1
  },
  "userdoc": {
    "kind": "user",
    "methods": {},
    "version": 1
  },
  "storageLayout": {
    "storage": [
      {
        "astId": 4,
        "contract": "Contracts/Store.sol:Store",
        "label": "totalSellers",
        "offset": 0,
        "slot": "0",
        "type": "t_uint256"
      },
      {
        "astId": 7,
        "contract": "Contracts/Store.sol:Store",
        "label": "totalBuyers",
        "offset": 0,
        "slot": "1",
        "type": "t_uint256"
      },
      {
        "astId": 79,
        "contract": "Contracts/Store.sol:Store",
        "label": "sellersList",
        "offset": 0,
        "slot": "2",
        "type": "t_mapping(t_address,t_struct(Seller)56_storage)"
      },
      {
        "astId": 84,
        "contract": "Contracts/Store.sol:Store",
        "label": "buyersList",
        "offset": 0,
        "slot": "3",
        "type": "t_mapping(t_address,t_struct(Buyer)74_storage)"
      }
    ],
    "types": {
      "t_address": {
        "encoding": "inplace",
        "label": "address",
        "numberOfBytes": "20"
      },
      "t_bool": {
        "encoding": "inplace",
        "label": "bool",
        "numberOfBytes": "1"
      },
      "t_mapping(t_address,t_struct(Buyer)74_storage)": {
        "encoding": "mapping",
        "key": "t_address",
        "label": "mapping(address => struct Store.Buyer)",
        "numberOfBytes": "32",
        "value": "t_struct(Buyer)74_storage"
      },
      "t_mapping(t_address,t_struct(Seller)56_storage)": {
        "encoding": "mapping",
        "key": "t_address",
        "label": "mapping(address => struct Store.Seller)",
        "numberOfBytes": "32",
        "value": "t_struct(Seller)56_storage"
      },
      "t_mapping(t_uint256,t_struct(Product)24_storage)": {
        "encoding": "mapping",
        "key": "t_uint256",
        "label": "mapping(uint256 => struct Store.Product)",
        "numberOfBytes": "32",
        "value": "t_struct(Product)24_storage"
      },
      "t_mapping(t_uint256,t_struct(Transaction)36_storage)": {
        "encoding": "mapping",
        "key": "t_uint256",
        "label": "mapping(uint256 => struct Store.Transaction)",
        "numberOfBytes": "32",
        "value": "t_struct(Transaction)36_storage"
      },
      "t_string_storage": {
        "encoding": "bytes",
        "label": "string",
        "numberOfBytes": "32"
      },
      "t_struct(Buyer)74_storage": {
        "encoding": "inplace",
        "label": "struct Store.Buyer",
        "members": [
          {
            "astId": 58,
            "contract": "Contracts/Store.sol:Store",
            "label": "buyerAddress",
            "offset": 0,
            "slot": "0",
            "type": "t_address"
          },
          {
            "astId": 60,
            "contract": "Contracts/Store.sol:Store",
            "label": "buyerName",
            "offset": 0,
            "slot": "1",
            "type": "t_string_storage"
          },
          {
            "astId": 62,
            "contract": "Contracts/Store.sol:Store",
            "label": "buyerID",
            "offset": 0,
            "slot": "2",
            "type": "t_uint256"
          },
          {
            "astId": 64,
            "contract": "Contracts/Store.sol:Store",
            "label": "isExist",
            "offset": 0,
            "slot": "3",
            "type": "t_bool"
          },
          {
            "astId": 69,
            "contract": "Contracts/Store.sol:Store",
            "label": "txnMade",
            "offset": 0,
            "slot": "4",
            "type": "t_mapping(t_uint256,t_struct(Transaction)36_storage)"
          },
          {
            "astId": 71,
            "contract": "Contracts/Store.sol:Store",
            "label": "numOfTxn",
            "offset": 0,
            "slot": "5",
            "type": "t_uint256"
          },
          {
            "astId": 73,
            "contract": "Contracts/Store.sol:Store",
            "label": "numOfReviewsGiven",
            "offset": 0,
            "slot": "6",
            "type": "t_uint256"
          }
        ],
        "numberOfBytes": "224"
      },
      "t_struct(Product)24_storage": {
        "encoding": "inplace",
        "label": "struct Store.Product",
        "members": [
          {
            "astId": 9,
            "contract": "Contracts/Store.sol:Store",
            "label": "productID",
            "offset": 0,
            "slot": "0",
            "type": "t_uint256"
          },
          {
            "astId": 11,
            "contract": "Contracts/Store.sol:Store",
            "label": "productName",
            "offset": 0,
            "slot": "1",
            "type": "t_string_storage"
          },
          {
            "astId": 13,
            "contract": "Contracts/Store.sol:Store",
            "label": "sellerAddress",
            "offset": 0,
            "slot": "2",
            "type": "t_address"
          },
          {
            "astId": 15,
            "contract": "Contracts/Store.sol:Store",
            "label": "productPrice",
            "offset": 0,
            "slot": "3",
            "type": "t_uint256"
          },
          {
            "astId": 17,
            "contract": "Contracts/Store.sol:Store",
            "label": "totalSold",
            "offset": 0,
            "slot": "4",
            "type": "t_uint256"
          },
          {
            "astId": 19,
            "contract": "Contracts/Store.sol:Store",
            "label": "isExist",
            "offset": 0,
            "slot": "5",
            "type": "t_bool"
          },
          {
            "astId": 21,
            "contract": "Contracts/Store.sol:Store",
            "label": "numOfReviewsGiven",
            "offset": 0,
            "slot": "6",
            "type": "t_uint256"
          },
          {
            "astId": 23,
            "contract": "Contracts/Store.sol:Store",
            "label": "review",
            "offset": 0,
            "slot": "7",
            "type": "t_uint256"
          }
        ],
        "numberOfBytes": "256"
      },
      "t_struct(Seller)56_storage": {
        "encoding": "inplace",
        "label": "struct Store.Seller",
        "members": [
          {
            "astId": 38,
            "contract": "Contracts/Store.sol:Store",
            "label": "sellerAddress",
            "offset": 0,
            "slot": "0",
            "type": "t_address"
          },
          {
            "astId": 40,
            "contract": "Contracts/Store.sol:Store",
            "label": "sellerName",
            "offset": 0,
            "slot": "1",
            "type": "t_string_storage"
          },
          {
            "astId": 42,
            "contract": "Contracts/Store.sol:Store",
            "label": "sellerID",
            "offset": 0,
            "slot": "2",
            "type": "t_uint256"
          },
          {
            "astId": 44,
            "contract": "Contracts/Store.sol:Store",
            "label": "isExist",
            "offset": 0,
            "slot": "3",
            "type": "t_bool"
          },
          {
            "astId": 49,
            "contract": "Contracts/Store.sol:Store",
            "label": "sellerProducts",
            "offset": 0,
            "slot": "4",
            "type": "t_mapping(t_uint256,t_struct(Product)24_storage)"
          },
          {
            "astId": 51,
            "contract": "Contracts/Store.sol:Store",
            "label": "totalProducts",
            "offset": 0,
            "slot": "5",
            "type": "t_uint256"
          },
          {
            "astId": 53,
            "contract": "Contracts/Store.sol:Store",
            "label": "totalRevenue",
            "offset": 0,
            "slot": "6",
            "type": "t_uint256"
          },
          {
            "astId": 55,
            "contract": "Contracts/Store.sol:Store",
            "label": "numOfSales",
            "offset": 0,
            "slot": "7",
            "type": "t_uint256"
          }
        ],
        "numberOfBytes": "256"
      },
      "t_struct(Transaction)36_storage": {
        "encoding": "inplace",
        "label": "struct Store.Transaction",
        "members": [
          {
            "astId": 26,
            "contract": "Contracts/Store.sol:Store",
            "label": "txnID",
            "offset": 0,
            "slot": "0",
            "type": "t_uint256"
          },
          {
            "astId": 28,
            "contract": "Contracts/Store.sol:Store",
            "label": "timeStamp",
            "offset": 0,
            "slot": "1",
            "type": "t_uint256"
          },
          {
            "astId": 31,
            "contract": "Contracts/Store.sol:Store",
            "label": "purchasedProduct",
            "offset": 0,
            "slot": "2",
            "type": "t_struct(Product)24_storage"
          },
          {
            "astId": 33,
            "contract": "Contracts/Store.sol:Store",
            "label": "reviewed",
            "offset": 0,
            "slot": "10",
            "type": "t_bool"
          },
          {
            "astId": 35,
            "contract": "Contracts/Store.sol:Store",
            "label": "isExist",
            "offset": 1,
            "slot": "10",
            "type": "t_bool"
          }
        ],
        "numberOfBytes": "352"
      },
      "t_uint256": {
        "encoding": "inplace",
        "label": "uint256",
        "numberOfBytes": "32"
      }
    }
  }
}