{
  "address": "0x5FbDB2315678afecb367f032d93F642f64180aa3",
  "abi": [
    {
      "inputs": [],
      "stateMutability": "nonpayable",
      "type": "constructor"
    },
    {
      "anonymous": false,
      "inputs": [
        {
          "indexed": false,
          "internalType": "uint256",
          "name": "productID",
          "type": "uint256"
        },
        {
          "indexed": false,
          "internalType": "address",
          "name": "sellerAddress",
          "type": "address"
        },
        {
          "indexed": false,
          "internalType": "address",
          "name": "buyerAddress",
          "type": "address"
        },
        {
          "indexed": false,
          "internalType": "uint256",
          "name": "buyerRating",
          "type": "uint256"
        },
        {
          "indexed": false,
          "internalType": "uint256",
          "name": "timeStamp",
          "type": "uint256"
        },
        {
          "indexed": false,
          "internalType": "uint256",
          "name": "finalProductRating",
          "type": "uint256"
        },
        {
          "indexed": false,
          "internalType": "uint256",
          "name": "totalReviews",
          "type": "uint256"
        }
      ],
      "name": "buyerReviewEvent",
      "type": "event"
    },
    {
      "anonymous": false,
      "inputs": [
        {
          "indexed": false,
          "internalType": "string",
          "name": "buyerName",
          "type": "string"
        },
        {
          "indexed": false,
          "internalType": "address",
          "name": "buyerAddress",
          "type": "address"
        },
        {
          "indexed": false,
          "internalType": "uint256",
          "name": "buyerID",
          "type": "uint256"
        },
        {
          "indexed": false,
          "internalType": "uint256",
          "name": "repScore",
          "type": "uint256"
        }
      ],
      "name": "createBuyerEvent",
      "type": "event"
    },
    {
      "anonymous": false,
      "inputs": [
        {
          "indexed": false,
          "internalType": "string",
          "name": "sellerName",
          "type": "string"
        },
        {
          "indexed": false,
          "internalType": "address",
          "name": "sellerAddress",
          "type": "address"
        },
        {
          "indexed": false,
          "internalType": "uint256",
          "name": "sellerID",
          "type": "uint256"
        }
      ],
      "name": "createSellerEvent",
      "type": "event"
    },
    {
      "anonymous": false,
      "inputs": [
        {
          "indexed": false,
          "internalType": "uint256",
          "name": "txnID",
          "type": "uint256"
        },
        {
          "indexed": false,
          "internalType": "uint256",
          "name": "productID",
          "type": "uint256"
        },
        {
          "indexed": false,
          "internalType": "address",
          "name": "sellerAddress",
          "type": "address"
        },
        {
          "indexed": false,
          "internalType": "address",
          "name": "buyerAddress",
          "type": "address"
        },
        {
          "indexed": false,
          "internalType": "uint256",
          "name": "price",
          "type": "uint256"
        }
      ],
      "name": "purchasedProductsEvent",
      "type": "event"
    },
    {
      "anonymous": false,
      "inputs": [
        {
          "indexed": false,
          "internalType": "string",
          "name": "productName",
          "type": "string"
        },
        {
          "indexed": false,
          "internalType": "uint256",
          "name": "price",
          "type": "uint256"
        },
        {
          "indexed": false,
          "internalType": "uint256",
          "name": "productID",
          "type": "uint256"
        },
        {
          "indexed": false,
          "internalType": "address",
          "name": "sellerAddress",
          "type": "address"
        },
        {
          "indexed": false,
          "internalType": "uint256",
          "name": "sellerID",
          "type": "uint256"
        }
      ],
      "name": "uploadProductEvent",
      "type": "event"
    },
    {
      "inputs": [
        {
          "internalType": "uint256",
          "name": "buyerRating",
          "type": "uint256"
        },
        {
          "internalType": "uint256",
          "name": "txnID",
          "type": "uint256"
        }
      ],
      "name": "buyerReview",
      "outputs": [],
      "stateMutability": "nonpayable",
      "type": "function"
    },
    {
      "inputs": [
        {
          "internalType": "address",
          "name": "",
          "type": "address"
        }
      ],
      "name": "buyersList",
      "outputs": [
        {
          "internalType": "address",
          "name": "buyerAddress",
          "type": "address"
        },
        {
          "internalType": "string",
          "name": "buyerName",
          "type": "string"
        },
        {
          "internalType": "uint256",
          "name": "buyerID",
          "type": "uint256"
        },
        {
          "internalType": "bool",
          "name": "isExist",
          "type": "bool"
        },
        {
          "internalType": "uint256",
          "name": "numOfTxn",
          "type": "uint256"
        },
        {
          "internalType": "uint256",
          "name": "numOfReviewsGiven",
          "type": "uint256"
        },
        {
          "internalType": "uint256",
          "name": "lastReviewTime",
          "type": "uint256"
        },
        {
          "internalType": "uint256",
          "name": "repScore",
          "type": "uint256"
        },
        {
          "internalType": "uint256",
          "name": "X_Value",
          "type": "uint256"
        }
      ],
      "stateMutability": "view",
      "type": "function"
    },
    {
      "inputs": [
        {
          "internalType": "string",
          "name": "_buyerName",
          "type": "string"
        }
      ],
      "name": "createBuyer",
      "outputs": [],
      "stateMutability": "nonpayable",
      "type": "function"
    },
    {
      "inputs": [
        {
          "internalType": "string",
          "name": "_sellerName",
          "type": "string"
        }
      ],
      "name": "createSeller",
      "outputs": [],
      "stateMutability": "nonpayable",
      "type": "function"
    },
    {
      "inputs": [
        {
          "internalType": "uint256",
          "name": "productID",
          "type": "uint256"
        },
        {
          "internalType": "address",
          "name": "sellerAddress",
          "type": "address"
        }
      ],
      "name": "purchaseProduct",
      "outputs": [],
      "stateMutability": "payable",
      "type": "function"
    },
    {
      "inputs": [
        {
          "internalType": "address",
          "name": "_buyerAddress",
          "type": "address"
        }
      ],
      "name": "retrieveBuyerID",
      "outputs": [
        {
          "internalType": "uint256",
          "name": "",
          "type": "uint256"
        }
      ],
      "stateMutability": "view",
      "type": "function"
    },
    {
      "inputs": [
        {
          "internalType": "address",
          "name": "buyerAddress",
          "type": "address"
        }
      ],
      "name": "retrieveBuyerName",
      "outputs": [
        {
          "internalType": "string",
          "name": "",
          "type": "string"
        }
      ],
      "stateMutability": "view",
      "type": "function"
    },
    {
      "inputs": [
        {
          "internalType": "address",
          "name": "_sellerAddress",
          "type": "address"
        }
      ],
      "name": "retrieveSellerID",
      "outputs": [
        {
          "internalType": "uint256",
          "name": "",
          "type": "uint256"
        }
      ],
      "stateMutability": "view",
      "type": "function"
    },
    {
      "inputs": [
        {
          "internalType": "address",
          "name": "_sellerAddress",
          "type": "address"
        }
      ],
      "name": "retrieveSellerName",
      "outputs": [
        {
          "internalType": "string",
          "name": "",
          "type": "string"
        }
      ],
      "stateMutability": "view",
      "type": "function"
    },
    {
      "inputs": [],
      "name": "retrieveTotalBuyers",
      "outputs": [
        {
          "internalType": "uint256",
          "name": "",
          "type": "uint256"
        }
      ],
      "stateMutability": "view",
      "type": "function"
    },
    {
      "inputs": [],
      "name": "retrieveTotalSellers",
      "outputs": [
        {
          "internalType": "uint256",
          "name": "",
          "type": "uint256"
        }
      ],
      "stateMutability": "view",
      "type": "function"
    },
    {
      "inputs": [
        {
          "internalType": "address",
          "name": "",
          "type": "address"
        }
      ],
      "name": "sellersList",
      "outputs": [
        {
          "internalType": "address",
          "name": "sellerAddress",
          "type": "address"
        },
        {
          "internalType": "string",
          "name": "sellerName",
          "type": "string"
        },
        {
          "internalType": "uint256",
          "name": "sellerID",
          "type": "uint256"
        },
        {
          "internalType": "bool",
          "name": "isExist",
          "type": "bool"
        },
        {
          "internalType": "uint256",
          "name": "totalProducts",
          "type": "uint256"
        },
        {
          "internalType": "uint256",
          "name": "totalRevenue",
          "type": "uint256"
        },
        {
          "internalType": "uint256",
          "name": "numOfSales",
          "type": "uint256"
        }
      ],
      "stateMutability": "view",
      "type": "function"
    },
    {
      "inputs": [
        {
          "internalType": "string",
          "name": "_productName",
          "type": "string"
        },
        {
          "internalType": "uint256",
          "name": "price",
          "type": "uint256"
        }
      ],
      "name": "uploadProduct",
      "outputs": [],
      "stateMutability": "nonpayable",
      "type": "function"
    },
    {
      "inputs": [
        {
          "internalType": "address",
          "name": "_sellerAddress",
          "type": "address"
        },
        {
          "internalType": "uint256",
          "name": "_productID",
          "type": "uint256"
        }
      ],
      "name": "viewProductName",
      "outputs": [
        {
          "internalType": "string",
          "name": "",
          "type": "string"
        }
      ],
      "stateMutability": "view",
      "type": "function"
    },
    {
      "inputs": [
        {
          "internalType": "address",
          "name": "_sellerAddress",
          "type": "address"
        },
        {
          "internalType": "uint256",
          "name": "_productID",
          "type": "uint256"
        }
      ],
      "name": "viewProductPrice",
      "outputs": [
        {
          "internalType": "uint256",
          "name": "",
          "type": "uint256"
        }
      ],
      "stateMutability": "view",
      "type": "function"
    },
    {
      "inputs": [
        {
          "internalType": "address",
          "name": "_sellerAddress",
          "type": "address"
        },
        {
          "internalType": "uint256",
          "name": "_productID",
          "type": "uint256"
        }
      ],
      "name": "viewProductReview",
      "outputs": [
        {
          "internalType": "uint256",
          "name": "",
          "type": "uint256"
        }
      ],
      "stateMutability": "view",
      "type": "function"
    },
    {
      "inputs": [
        {
          "internalType": "address",
          "name": "_buyerAddress",
          "type": "address"
        },
        {
          "internalType": "uint256",
          "name": "_txnID",
          "type": "uint256"
        }
      ],
      "name": "viewTransactions_ProductID",
      "outputs": [
        {
          "internalType": "uint256",
          "name": "",
          "type": "uint256"
        }
      ],
      "stateMutability": "view",
      "type": "function"
    },
    {
      "inputs": [
        {
          "internalType": "address",
          "name": "_buyerAddress",
          "type": "address"
        },
        {
          "internalType": "uint256",
          "name": "_txnID",
          "type": "uint256"
        }
      ],
      "name": "viewTransactions_Reviewed",
      "outputs": [
        {
          "internalType": "bool",
          "name": "",
          "type": "bool"
        }
      ],
      "stateMutability": "view",
      "type": "function"
    },
    {
      "inputs": [
        {
          "internalType": "address",
          "name": "_buyerAddress",
          "type": "address"
        },
        {
          "internalType": "uint256",
          "name": "_txnID",
          "type": "uint256"
        }
      ],
      "name": "viewTransactions_SellerID",
      "outputs": [
        {
          "internalType": "uint256",
          "name": "",
          "type": "uint256"
        }
      ],
      "stateMutability": "view",
      "type": "function"
    }
  ],
  "transactionHash": "0x3bf3bb423d3063d8dde112aee9b2b3da2722acbd96435435054a64acecceeb52",
  "args": [],
  "numDeployments": 1,
  "solcInputHash": "d7da6a3b97664ae2179885c0747ecb62",
  "bytecode": "0x6101c0604052600080556000600155603260809081525061012c60a09081525061038460c090815250600160e09081525060326101009081525060646101209081525061012c61014090815250606361016090815250610fa061018090815250600c6101a0908152503480156200007557600080fd5b5060405162000084906200014b565b604051809103906000f080158015620000a1573d6000803e3d6000fd5b50600260006101000a81548173ffffffffffffffffffffffffffffffffffffffff021916908373ffffffffffffffffffffffffffffffffffffffff160217905550600260009054906101000a900473ffffffffffffffffffffffffffffffffffffffff16600360006101000a81548173ffffffffffffffffffffffffffffffffffffffff021916908373ffffffffffffffffffffffffffffffffffffffff16021790555062000159565b6115558062004afc83390190565b60805160a05160c05160e05161010051610120516101405161016051610180516101a051614920620001dc600039600081816114310152612f5701526000612f3601526000612f150152600061306701526000613046015260006130250152600061313401526000613242015260006132210152600061320001526149206000f3fe6080604052600436106101145760003560e01c80638042659e116100a0578063ce4580c911610064578063ce4580c91461042f578063db5827831461046c578063eacbdb34146104a9578063f881f000146104d2578063fb1a1790146104ee57610114565b80638042659e1461030a5780639a7ff3f2146103475780639f40f36214610370578063bba97d76146103ad578063cc6c41e6146103ea57610114565b8063561cf7f5116100e7578063561cf7f5146101ff57806359fa878e1461023c57806363abd5cf146102795780637a0039ba146102a25780637fd67647146102df57610114565b806312f524e01461011957806316415a02146101565780633d1c1c53146101995780634c5d2c8b146101c2575b600080fd5b34801561012557600080fd5b50610140600480360381019061013b9190613371565b610519565b60405161014d91906133c0565b60405180910390f35b34801561016257600080fd5b5061017d600480360381019061017891906133db565b6106ac565b60405161019097969594939291906134c2565b60405180910390f35b3480156101a557600080fd5b506101c060048036038101906101bb919061366d565b6107a3565b005b3480156101ce57600080fd5b506101e960048036038101906101e49190613371565b610acb565b6040516101f691906133c0565b60405180910390f35b34801561020b57600080fd5b50610226600480360381019061022191906133db565b610ccc565b60405161023391906133c0565b60405180910390f35b34801561024857600080fd5b50610263600480360381019061025e91906133db565b610da7565b60405161027091906133c0565b60405180910390f35b34801561028557600080fd5b506102a0600480360381019061029b91906136c9565b610e82565b005b3480156102ae57600080fd5b506102c960048036038101906102c49190613371565b6119d2565b6040516102d69190613709565b60405180910390f35b3480156102eb57600080fd5b506102f4611b72565b60405161030191906133c0565b60405180910390f35b34801561031657600080fd5b50610331600480360381019061032c91906133db565b611b7c565b60405161033e9190613724565b60405180910390f35b34801561035357600080fd5b5061036e60048036038101906103699190613746565b611cdf565b005b34801561037c57600080fd5b5061039760048036038101906103929190613371565b611ec8565b6040516103a49190613724565b60405180910390f35b3480156103b957600080fd5b506103d460048036038101906103cf91906133db565b6120e3565b6040516103e19190613724565b60405180910390f35b3480156103f657600080fd5b50610411600480360381019061040c91906133db565b6121b7565b6040516104269998979695949392919061378f565b60405180910390f35b34801561043b57600080fd5b5061045660048036038101906104519190613371565b6122ba565b60405161046391906133c0565b60405180910390f35b34801561047857600080fd5b50610493600480360381019061048e9190613371565b61244d565b6040516104a091906133c0565b60405180910390f35b3480156104b557600080fd5b506104d060048036038101906104cb9190613746565b6125e0565b005b6104ec60048036038101906104e79190613823565b6127ea565b005b3480156104fa57600080fd5b50610503612ea3565b60405161051091906133c0565b60405180910390f35b6000600460008473ffffffffffffffffffffffffffffffffffffffff1673ffffffffffffffffffffffffffffffffffffffff16815260200190815260200160002060030160009054906101000a900460ff166105aa576040517f08c379a00000000000000000000000000000000000000000000000000000000081526004016105a1906138d5565b60405180910390fd5b600460008473ffffffffffffffffffffffffffffffffffffffff1673ffffffffffffffffffffffffffffffffffffffff168152602001908152602001600020600401600083815260200190815260200160002060050160009054906101000a900460ff1661064d576040517f08c379a000000000000000000000000000000000000000000000000000000000815260040161064490613967565b60405180910390fd5b600460008473ffffffffffffffffffffffffffffffffffffffff1673ffffffffffffffffffffffffffffffffffffffff168152602001908152602001600020600401600083815260200190815260200160002060030154905092915050565b60046020528060005260406000206000915090508060000160009054906101000a900473ffffffffffffffffffffffffffffffffffffffff16908060010180546106f5906139b6565b80601f0160208091040260200160405190810160405280929190818152602001828054610721906139b6565b801561076e5780601f106107435761010080835404028352916020019161076e565b820191906000526020600020905b81548152906001019060200180831161075157829003601f168201915b5050505050908060020154908060030160009054906101000a900460ff16908060050154908060060154908060070154905087565b600460003373ffffffffffffffffffffffffffffffffffffffff1673ffffffffffffffffffffffffffffffffffffffff16815260200190815260200160002060030160009054906101000a900460ff16610832576040517f08c379a000000000000000000000000000000000000000000000000000000000815260040161082990613a59565b60405180910390fd5b6000600460003373ffffffffffffffffffffffffffffffffffffffff1673ffffffffffffffffffffffffffffffffffffffff16815260200190815260200160002090506000816004016000836005016000815461088e90613aa8565b9190508190558152602001908152602001600020905081600501548160000181905550838160010190816108c29190613c9c565b50338160020160006101000a81548173ffffffffffffffffffffffffffffffffffffffff021916908373ffffffffffffffffffffffffffffffffffffffff1602179055508281600301819055506000816004018190555060008160070181905550670de0b6b3a7640000816008018190555060018160050160006101000a81548160ff021916908315150217905550808260040160008460050154815260200190815260200160002060008201548160000155600182018160010190816109899190613d84565b506002820160009054906101000a900473ffffffffffffffffffffffffffffffffffffffff168160020160006101000a81548173ffffffffffffffffffffffffffffffffffffffff021916908373ffffffffffffffffffffffffffffffffffffffff16021790555060038201548160030155600482015481600401556005820160009054906101000a900460ff168160050160006101000a81548160ff0219169083151502179055506006820154816006015560078201548160070155600882015481600801559050507f827f91e7f4fbb905bd650f742c7af7b1b989f3eb56bb80e8faf09038583b72ef81600101826003015483600001548460020160009054906101000a900473ffffffffffffffffffffffffffffffffffffffff168660020154604051610abd959493929190613ef0565b60405180910390a150505050565b6000600560008473ffffffffffffffffffffffffffffffffffffffff1673ffffffffffffffffffffffffffffffffffffffff16815260200190815260200160002060030160009054906101000a900460ff16610b5c576040517f08c379a0000000000000000000000000000000000000000000000000000000008152600401610b5390613fbc565b60405180910390fd5b600560008473ffffffffffffffffffffffffffffffffffffffff1673ffffffffffffffffffffffffffffffffffffffff168152602001908152602001600020600401600083815260200190815260200160002060040160159054906101000a900460ff16610bff576040517f08c379a0000000000000000000000000000000000000000000000000000000008152600401610bf69061404e565b60405180910390fd5b6000600560008573ffffffffffffffffffffffffffffffffffffffff1673ffffffffffffffffffffffffffffffffffffffff168152602001908152602001600020600401600084815260200190815260200160002060040160009054906101000a900473ffffffffffffffffffffffffffffffffffffffff1690506000600460008373ffffffffffffffffffffffffffffffffffffffff1673ffffffffffffffffffffffffffffffffffffffff168152602001908152602001600020600201549050809250505092915050565b6000600460008373ffffffffffffffffffffffffffffffffffffffff1673ffffffffffffffffffffffffffffffffffffffff16815260200190815260200160002060030160009054906101000a900460ff16610d5d576040517f08c379a0000000000000000000000000000000000000000000000000000000008152600401610d54906138d5565b60405180910390fd5b600460008373ffffffffffffffffffffffffffffffffffffffff1673ffffffffffffffffffffffffffffffffffffffff168152602001908152602001600020600201549050919050565b6000600560008373ffffffffffffffffffffffffffffffffffffffff1673ffffffffffffffffffffffffffffffffffffffff16815260200190815260200160002060030160009054906101000a900460ff16610e38576040517f08c379a0000000000000000000000000000000000000000000000000000000008152600401610e2f90613fbc565b60405180910390fd5b600560008373ffffffffffffffffffffffffffffffffffffffff1673ffffffffffffffffffffffffffffffffffffffff168152602001908152602001600020600201549050919050565b600560003373ffffffffffffffffffffffffffffffffffffffff1673ffffffffffffffffffffffffffffffffffffffff16815260200190815260200160002060030160009054906101000a900460ff16610f11576040517f08c379a0000000000000000000000000000000000000000000000000000000008152600401610f08906140ba565b60405180910390fd5b600560003373ffffffffffffffffffffffffffffffffffffffff1673ffffffffffffffffffffffffffffffffffffffff168152602001908152602001600020600401600082815260200190815260200160002060040160159054906101000a900460ff16610fb4576040517f08c379a0000000000000000000000000000000000000000000000000000000008152600401610fab9061414c565b60405180910390fd5b60001515600560003373ffffffffffffffffffffffffffffffffffffffff1673ffffffffffffffffffffffffffffffffffffffff168152602001908152602001600020600401600083815260200190815260200160002060040160149054906101000a900460ff1615151461105e576040517f08c379a0000000000000000000000000000000000000000000000000000000008152600401611055906141de565b60405180910390fd5b6000600560003373ffffffffffffffffffffffffffffffffffffffff1673ffffffffffffffffffffffffffffffffffffffff168152602001908152602001600020600401600083815260200190815260200160002060040160009054906101000a900473ffffffffffffffffffffffffffffffffffffffff1690506000600560003373ffffffffffffffffffffffffffffffffffffffff1673ffffffffffffffffffffffffffffffffffffffff16815260200190815260200160002060040160008481526020019081526020016000206003015490506000600460008473ffffffffffffffffffffffffffffffffffffffff1673ffffffffffffffffffffffffffffffffffffffff16815260200190815260200160002060040160008381526020019081526020016000206003015490506000603c600560003373ffffffffffffffffffffffffffffffffffffffff1673ffffffffffffffffffffffffffffffffffffffff16815260200190815260200160002060070154426111e191906141fe565b6111eb9190614261565b9050600080600560003373ffffffffffffffffffffffffffffffffffffffff1673ffffffffffffffffffffffffffffffffffffffff1681526020019081526020016000206005015490505b60018110611426578573ffffffffffffffffffffffffffffffffffffffff16600560003373ffffffffffffffffffffffffffffffffffffffff1673ffffffffffffffffffffffffffffffffffffffff168152602001908152602001600020600401600089815260200190815260200160002060040160009054906101000a900473ffffffffffffffffffffffffffffffffffffffff1673ffffffffffffffffffffffffffffffffffffffff16148015611344575084600560003373ffffffffffffffffffffffffffffffffffffffff1673ffffffffffffffffffffffffffffffffffffffff168152602001908152602001600020600401600089815260200190815260200160002060030154145b80156113b05750600560003373ffffffffffffffffffffffffffffffffffffffff1673ffffffffffffffffffffffffffffffffffffffff168152602001908152602001600020600401600088815260200190815260200160002060040160149054906101000a900460ff165b1561141357600560003373ffffffffffffffffffffffffffffffffffffffff1673ffffffffffffffffffffffffffffffffffffffff1681526020019081526020016000206004016000888152602001908152602001600020600201549150611426565b808061141e90614292565b915050611236565b5060008103611457577f00000000000000000000000000000000000000000000000000000000000000009050611472565b603c814261146591906141fe565b61146f9190614261565b90505b6114c0600560003373ffffffffffffffffffffffffffffffffffffffff1673ffffffffffffffffffffffffffffffffffffffff16815260200190815260200160002060090154838584612eac565b600560003373ffffffffffffffffffffffffffffffffffffffff1673ffffffffffffffffffffffffffffffffffffffff16815260200190815260200160002060090181905550611551600560003373ffffffffffffffffffffffffffffffffffffffff1673ffffffffffffffffffffffffffffffffffffffff16815260200190815260200160002060090154612fe3565b600560003373ffffffffffffffffffffffffffffffffffffffff1673ffffffffffffffffffffffffffffffffffffffff16815260200190815260200160002060080181905550611691600460008773ffffffffffffffffffffffffffffffffffffffff1673ffffffffffffffffffffffffffffffffffffffff168152602001908152602001600020600401600086815260200190815260200160002060080154600560003373ffffffffffffffffffffffffffffffffffffffff1673ffffffffffffffffffffffffffffffffffffffff1681526020019081526020016000206008015489600460008a73ffffffffffffffffffffffffffffffffffffffff1673ffffffffffffffffffffffffffffffffffffffff1681526020019081526020016000206004016000898152602001908152602001600020600701546130ee565b600460008773ffffffffffffffffffffffffffffffffffffffff1673ffffffffffffffffffffffffffffffffffffffff16815260200190815260200160002060040160008681526020019081526020016000206008018190555061174a600460008773ffffffffffffffffffffffffffffffffffffffff1673ffffffffffffffffffffffffffffffffffffffff1681526020019081526020016000206004016000868152602001908152602001600020600801546131be565b600460008773ffffffffffffffffffffffffffffffffffffffff1673ffffffffffffffffffffffffffffffffffffffff168152602001908152602001600020600401600086815260200190815260200160002060070181905550600460008673ffffffffffffffffffffffffffffffffffffffff1673ffffffffffffffffffffffffffffffffffffffff1681526020019081526020016000206004016000858152602001908152602001600020600601600081548092919061180b90613aa8565b91905055506001600560003373ffffffffffffffffffffffffffffffffffffffff1673ffffffffffffffffffffffffffffffffffffffff168152602001908152602001600020600401600088815260200190815260200160002060040160146101000a81548160ff02191690831515021790555042600560003373ffffffffffffffffffffffffffffffffffffffff1673ffffffffffffffffffffffffffffffffffffffff1681526020019081526020016000206004016000888152602001908152602001600020600201819055507fc8eace918d73b100093f09590ebd3bd2e45fcbe6f7faf08b0a90855ea61edf858486338a42600460008c73ffffffffffffffffffffffffffffffffffffffff1673ffffffffffffffffffffffffffffffffffffffff16815260200190815260200160002060040160008b815260200190815260200160002060070154600460008d73ffffffffffffffffffffffffffffffffffffffff1673ffffffffffffffffffffffffffffffffffffffff16815260200190815260200160002060040160008c8152602001908152602001600020600601546040516119c197969594939291906142bb565b60405180910390a150505050505050565b6000600560008473ffffffffffffffffffffffffffffffffffffffff1673ffffffffffffffffffffffffffffffffffffffff16815260200190815260200160002060030160009054906101000a900460ff16611a63576040517f08c379a0000000000000000000000000000000000000000000000000000000008152600401611a5a90613fbc565b60405180910390fd5b600560008473ffffffffffffffffffffffffffffffffffffffff1673ffffffffffffffffffffffffffffffffffffffff168152602001908152602001600020600401600083815260200190815260200160002060040160159054906101000a900460ff16611b06576040517f08c379a0000000000000000000000000000000000000000000000000000000008152600401611afd9061404e565b60405180910390fd5b600560008473ffffffffffffffffffffffffffffffffffffffff1673ffffffffffffffffffffffffffffffffffffffff168152602001908152602001600020600401600083815260200190815260200160002060040160149054906101000a900460ff16905092915050565b6000600154905090565b6060600460008373ffffffffffffffffffffffffffffffffffffffff1673ffffffffffffffffffffffffffffffffffffffff16815260200190815260200160002060030160009054906101000a900460ff16611c0d576040517f08c379a0000000000000000000000000000000000000000000000000000000008152600401611c04906138d5565b60405180910390fd5b600460008373ffffffffffffffffffffffffffffffffffffffff1673ffffffffffffffffffffffffffffffffffffffff1681526020019081526020016000206001018054611c5a906139b6565b80601f0160208091040260200160405190810160405280929190818152602001828054611c86906139b6565b8015611cd35780601f10611ca857610100808354040283529160200191611cd3565b820191906000526020600020905b815481529060010190602001808311611cb657829003601f168201915b50505050509050919050565b600460003373ffffffffffffffffffffffffffffffffffffffff1673ffffffffffffffffffffffffffffffffffffffff16815260200190815260200160002060030160009054906101000a900460ff1615611d6f576040517f08c379a0000000000000000000000000000000000000000000000000000000008152600401611d669061439c565b60405180910390fd5b6000600460003373ffffffffffffffffffffffffffffffffffffffff1673ffffffffffffffffffffffffffffffffffffffff1681526020019081526020016000209050338160000160006101000a81548173ffffffffffffffffffffffffffffffffffffffff021916908373ffffffffffffffffffffffffffffffffffffffff16021790555081816001019081611e069190613c9c565b506000808154611e1590613aa8565b919050819055816002018190555060018160030160006101000a81548160ff0219169083151502179055506000816005018190555060008160060181905550600081600701819055507f2daf7e02bff4313b1e326e8f126cffd3ff7c437229109ce78a53951ac8d70638816001018260000160009054906101000a900473ffffffffffffffffffffffffffffffffffffffff168360020154604051611ebc939291906143bc565b60405180910390a15050565b6060600460008473ffffffffffffffffffffffffffffffffffffffff1673ffffffffffffffffffffffffffffffffffffffff16815260200190815260200160002060030160009054906101000a900460ff16611f59576040517f08c379a0000000000000000000000000000000000000000000000000000000008152600401611f50906138d5565b60405180910390fd5b600460008473ffffffffffffffffffffffffffffffffffffffff1673ffffffffffffffffffffffffffffffffffffffff168152602001908152602001600020600401600083815260200190815260200160002060050160009054906101000a900460ff16611ffc576040517f08c379a0000000000000000000000000000000000000000000000000000000008152600401611ff39061446c565b60405180910390fd5b600460008473ffffffffffffffffffffffffffffffffffffffff1673ffffffffffffffffffffffffffffffffffffffff1681526020019081526020016000206004016000838152602001908152602001600020600101805461205d906139b6565b80601f0160208091040260200160405190810160405280929190818152602001828054612089906139b6565b80156120d65780601f106120ab576101008083540402835291602001916120d6565b820191906000526020600020905b8154815290600101906020018083116120b957829003601f168201915b5050505050905092915050565b6060600560008373ffffffffffffffffffffffffffffffffffffffff1673ffffffffffffffffffffffffffffffffffffffff1681526020019081526020016000206001018054612132906139b6565b80601f016020809104026020016040519081016040528092919081815260200182805461215e906139b6565b80156121ab5780601f10612180576101008083540402835291602001916121ab565b820191906000526020600020905b81548152906001019060200180831161218e57829003601f168201915b50505050509050919050565b60056020528060005260406000206000915090508060000160009054906101000a900473ffffffffffffffffffffffffffffffffffffffff1690806001018054612200906139b6565b80601f016020809104026020016040519081016040528092919081815260200182805461222c906139b6565b80156122795780601f1061224e57610100808354040283529160200191612279565b820191906000526020600020905b81548152906001019060200180831161225c57829003601f168201915b5050505050908060020154908060030160009054906101000a900460ff16908060050154908060060154908060070154908060080154908060090154905089565b6000600560008473ffffffffffffffffffffffffffffffffffffffff1673ffffffffffffffffffffffffffffffffffffffff16815260200190815260200160002060030160009054906101000a900460ff1661234b576040517f08c379a000000000000000000000000000000000000000000000000000000000815260040161234290613fbc565b60405180910390fd5b600560008473ffffffffffffffffffffffffffffffffffffffff1673ffffffffffffffffffffffffffffffffffffffff168152602001908152602001600020600401600083815260200190815260200160002060040160159054906101000a900460ff166123ee576040517f08c379a00000000000000000000000000000000000000000000000000000000081526004016123e59061404e565b60405180910390fd5b600560008473ffffffffffffffffffffffffffffffffffffffff1673ffffffffffffffffffffffffffffffffffffffff168152602001908152602001600020600401600083815260200190815260200160002060030154905092915050565b6000600460008473ffffffffffffffffffffffffffffffffffffffff1673ffffffffffffffffffffffffffffffffffffffff16815260200190815260200160002060030160009054906101000a900460ff166124de576040517f08c379a00000000000000000000000000000000000000000000000000000000081526004016124d5906138d5565b60405180910390fd5b600460008473ffffffffffffffffffffffffffffffffffffffff1673ffffffffffffffffffffffffffffffffffffffff168152602001908152602001600020600401600083815260200190815260200160002060050160009054906101000a900460ff16612581576040517f08c379a00000000000000000000000000000000000000000000000000000000081526004016125789061446c565b60405180910390fd5b600460008473ffffffffffffffffffffffffffffffffffffffff1673ffffffffffffffffffffffffffffffffffffffff168152602001908152602001600020600401600083815260200190815260200160002060070154905092915050565b600560003373ffffffffffffffffffffffffffffffffffffffff1673ffffffffffffffffffffffffffffffffffffffff16815260200190815260200160002060030160009054906101000a900460ff1615612670576040517f08c379a0000000000000000000000000000000000000000000000000000000008152600401612667906144fe565b60405180910390fd5b6000600560003373ffffffffffffffffffffffffffffffffffffffff1673ffffffffffffffffffffffffffffffffffffffff1681526020019081526020016000209050338160000160006101000a81548173ffffffffffffffffffffffffffffffffffffffff021916908373ffffffffffffffffffffffffffffffffffffffff160217905550818160010190816127079190613c9c565b5060016000815461271790613aa8565b919050819055816002018190555060018160030160006101000a81548160ff0219169083151502179055506000816006018190555060008160050181905550670de0b6b3a76400008160090181905550600081600801819055504281600701819055507f72d8d6c2563f662f27728e50439bc8ace9286edca723199ecc8b1e68b5f3c16a816001018260000160009054906101000a900473ffffffffffffffffffffffffffffffffffffffff16836002015484600801546040516127de949392919061451e565b60405180910390a15050565b600560003373ffffffffffffffffffffffffffffffffffffffff1673ffffffffffffffffffffffffffffffffffffffff16815260200190815260200160002060030160009054906101000a900460ff16612879576040517f08c379a0000000000000000000000000000000000000000000000000000000008152600401612870906140ba565b60405180910390fd5b600460008273ffffffffffffffffffffffffffffffffffffffff1673ffffffffffffffffffffffffffffffffffffffff168152602001908152602001600020600401600083815260200190815260200160002060050160009054906101000a900460ff1661291c576040517f08c379a0000000000000000000000000000000000000000000000000000000008152600401612913906145b6565b60405180910390fd5b600460008273ffffffffffffffffffffffffffffffffffffffff1673ffffffffffffffffffffffffffffffffffffffff16815260200190815260200160002060040160008381526020019081526020016000206003015434146129b4576040517f08c379a00000000000000000000000000000000000000000000000000000000081526004016129ab90614648565b60405180910390fd5b60008173ffffffffffffffffffffffffffffffffffffffff16346040516129da90614699565b60006040518083038185875af1925050503d8060008114612a17576040519150601f19603f3d011682016040523d82523d6000602084013e612a1c565b606091505b5050905080612a60576040517f08c379a0000000000000000000000000000000000000000000000000000000008152600401612a57906146fa565b60405180910390fd5b6000600560003373ffffffffffffffffffffffffffffffffffffffff1673ffffffffffffffffffffffffffffffffffffffff16815260200190815260200160002060050160008154612ab190613aa8565b91905081905590506000600560003373ffffffffffffffffffffffffffffffffffffffff1673ffffffffffffffffffffffffffffffffffffffff16815260200190815260200160002060040160008381526020019081526020016000209050818160000181905550428160010181905550848160030181905550838160040160006101000a81548173ffffffffffffffffffffffffffffffffffffffff021916908373ffffffffffffffffffffffffffffffffffffffff16021790555060008160040160146101000a81548160ff02191690831515021790555060018160040160156101000a81548160ff02191690831515021790555080600560003373ffffffffffffffffffffffffffffffffffffffff1673ffffffffffffffffffffffffffffffffffffffff1681526020019081526020016000206004016000848152602001908152602001600020600082015481600001556001820154816001015560028201548160020155600382015481600301556004820160009054906101000a900473ffffffffffffffffffffffffffffffffffffffff168160040160006101000a81548173ffffffffffffffffffffffffffffffffffffffff021916908373ffffffffffffffffffffffffffffffffffffffff1602179055506004820160149054906101000a900460ff168160040160146101000a81548160ff0219169083151502179055506004820160159054906101000a900460ff168160040160156101000a81548160ff021916908315150217905550905050600460008573ffffffffffffffffffffffffffffffffffffffff1673ffffffffffffffffffffffffffffffffffffffff16815260200190815260200160002060040160008681526020019081526020016000206004016000815480929190612d4f90613aa8565b919050555034600460008673ffffffffffffffffffffffffffffffffffffffff1673ffffffffffffffffffffffffffffffffffffffff1681526020019081526020016000206006016000828254612da6919061471a565b925050819055506001600460008673ffffffffffffffffffffffffffffffffffffffff1673ffffffffffffffffffffffffffffffffffffffff1681526020019081526020016000206007016000828254612e00919061471a565b925050819055507f2a87cec993d23d666d1bf9abb68302d6a2d20ba6a5287439294d1050d92f094282868633600460008a73ffffffffffffffffffffffffffffffffffffffff1673ffffffffffffffffffffffffffffffffffffffff16815260200190815260200160002060040160008b815260200190815260200160002060030154604051612e9495949392919061474e565b60405180910390a15050505050565b60008054905090565b6000610180841115612ec15760109350612ed1565b601884612ece9190614261565b93505b600260009054906101000a900473ffffffffffffffffffffffffffffffffffffffff1673ffffffffffffffffffffffffffffffffffffffff166339288c9b868686867f00000000000000000000000000000000000000000000000000000000000000007f00000000000000000000000000000000000000000000000000000000000000007f00000000000000000000000000000000000000000000000000000000000000006040518863ffffffff1660e01b8152600401612f9897969594939291906147a1565b602060405180830381865afa158015612fb5573d6000803e3d6000fd5b505050506040513d601f19601f82011682018060405250810190612fd99190614825565b9050949350505050565b6000600260009054906101000a900473ffffffffffffffffffffffffffffffffffffffff1673ffffffffffffffffffffffffffffffffffffffff166397d67bff7f00000000000000000000000000000000000000000000000000000000000000007f00000000000000000000000000000000000000000000000000000000000000007f0000000000000000000000000000000000000000000000000000000000000000866040518563ffffffff1660e01b81526004016130a69493929190614852565b602060405180830381865afa1580156130c3573d6000803e3d6000fd5b505050506040513d601f19601f820116820180604052508101906130e79190614825565b9050919050565b6000600260009054906101000a900473ffffffffffffffffffffffffffffffffffffffff1673ffffffffffffffffffffffffffffffffffffffff166348590bf1868686867f00000000000000000000000000000000000000000000000000000000000000006040518663ffffffff1660e01b8152600401613173959493929190614897565b602060405180830381865afa158015613190573d6000803e3d6000fd5b505050506040513d601f19601f820116820180604052508101906131b49190614825565b9050949350505050565b6000600260009054906101000a900473ffffffffffffffffffffffffffffffffffffffff1673ffffffffffffffffffffffffffffffffffffffff166397d67bff7f00000000000000000000000000000000000000000000000000000000000000007f00000000000000000000000000000000000000000000000000000000000000007f0000000000000000000000000000000000000000000000000000000000000000866040518563ffffffff1660e01b81526004016132819493929190614852565b602060405180830381865afa15801561329e573d6000803e3d6000fd5b505050506040513d601f19601f820116820180604052508101906132c29190614825565b9050919050565b6000604051905090565b600080fd5b600080fd5b600073ffffffffffffffffffffffffffffffffffffffff82169050919050565b6000613308826132dd565b9050919050565b613318816132fd565b811461332357600080fd5b50565b6000813590506133358161330f565b92915050565b6000819050919050565b61334e8161333b565b811461335957600080fd5b50565b60008135905061336b81613345565b92915050565b60008060408385031215613388576133876132d3565b5b600061339685828601613326565b92505060206133a78582860161335c565b9150509250929050565b6133ba8161333b565b82525050565b60006020820190506133d560008301846133b1565b92915050565b6000602082840312156133f1576133f06132d3565b5b60006133ff84828501613326565b91505092915050565b613411816132fd565b82525050565b600081519050919050565b600082825260208201905092915050565b60005b83811015613451578082015181840152602081019050613436565b60008484015250505050565b6000601f19601f8301169050919050565b600061347982613417565b6134838185613422565b9350613493818560208601613433565b61349c8161345d565b840191505092915050565b60008115159050919050565b6134bc816134a7565b82525050565b600060e0820190506134d7600083018a613408565b81810360208301526134e9818961346e565b90506134f860408301886133b1565b61350560608301876134b3565b61351260808301866133b1565b61351f60a08301856133b1565b61352c60c08301846133b1565b98975050505050505050565b600080fd5b600080fd5b7f4e487b7100000000000000000000000000000000000000000000000000000000600052604160045260246000fd5b61357a8261345d565b810181811067ffffffffffffffff8211171561359957613598613542565b5b80604052505050565b60006135ac6132c9565b90506135b88282613571565b919050565b600067ffffffffffffffff8211156135d8576135d7613542565b5b6135e18261345d565b9050602081019050919050565b82818337600083830152505050565b600061361061360b846135bd565b6135a2565b90508281526020810184848401111561362c5761362b61353d565b5b6136378482856135ee565b509392505050565b600082601f83011261365457613653613538565b5b81356136648482602086016135fd565b91505092915050565b60008060408385031215613684576136836132d3565b5b600083013567ffffffffffffffff8111156136a2576136a16132d8565b5b6136ae8582860161363f565b92505060206136bf8582860161335c565b9150509250929050565b600080604083850312156136e0576136df6132d3565b5b60006136ee8582860161335c565b92505060206136ff8582860161335c565b9150509250929050565b600060208201905061371e60008301846134b3565b92915050565b6000602082019050818103600083015261373e818461346e565b905092915050565b60006020828403121561375c5761375b6132d3565b5b600082013567ffffffffffffffff81111561377a576137796132d8565b5b6137868482850161363f565b91505092915050565b6000610120820190506137a5600083018c613408565b81810360208301526137b7818b61346e565b90506137c6604083018a6133b1565b6137d360608301896134b3565b6137e060808301886133b1565b6137ed60a08301876133b1565b6137fa60c08301866133b1565b61380760e08301856133b1565b6138156101008301846133b1565b9a9950505050505050505050565b6000806040838503121561383a576138396132d3565b5b60006138488582860161335c565b925050602061385985828601613326565b9150509250929050565b7f53656c6c6572207769746820746869732077616c6c657420646f6573206e6f7460008201527f2065786973747321200000000000000000000000000000000000000000000000602082015250565b60006138bf602983613422565b91506138ca82613863565b604082019050919050565b600060208201905081810360008301526138ee816138b2565b9050919050565b7f53656c6c6572207769746820746869732070726f6475637420646f6573206e6f60008201527f7420657869737473212000000000000000000000000000000000000000000000602082015250565b6000613951602a83613422565b915061395c826138f5565b604082019050919050565b6000602082019050818103600083015261398081613944565b9050919050565b7f4e487b7100000000000000000000000000000000000000000000000000000000600052602260045260246000fd5b600060028204905060018216806139ce57607f821691505b6020821081036139e1576139e0613987565b5b50919050565b7f53656c6c6572207769746820746869732077616c6c657420646f6573206e6f7460008201527f2065786973747321000000000000000000000000000000000000000000000000602082015250565b6000613a43602883613422565b9150613a4e826139e7565b604082019050919050565b60006020820190508181036000830152613a7281613a36565b9050919050565b7f4e487b7100000000000000000000000000000000000000000000000000000000600052601160045260246000fd5b6000613ab38261333b565b91507fffffffffffffffffffffffffffffffffffffffffffffffffffffffffffffffff8203613ae557613ae4613a79565b5b600182019050919050565b60008190508160005260206000209050919050565b60006020601f8301049050919050565b600082821b905092915050565b600060088302613b527fffffffffffffffffffffffffffffffffffffffffffffffffffffffffffffffff82613b15565b613b5c8683613b15565b95508019841693508086168417925050509392505050565b6000819050919050565b6000613b99613b94613b8f8461333b565b613b74565b61333b565b9050919050565b6000819050919050565b613bb383613b7e565b613bc7613bbf82613ba0565b848454613b22565b825550505050565b600090565b613bdc613bcf565b613be7818484613baa565b505050565b5b81811015613c0b57613c00600082613bd4565b600181019050613bed565b5050565b601f821115613c5057613c2181613af0565b613c2a84613b05565b81016020851015613c39578190505b613c4d613c4585613b05565b830182613bec565b50505b505050565b600082821c905092915050565b6000613c7360001984600802613c55565b1980831691505092915050565b6000613c8c8383613c62565b9150826002028217905092915050565b613ca582613417565b67ffffffffffffffff811115613cbe57613cbd613542565b5b613cc882546139b6565b613cd3828285613c0f565b600060209050601f831160018114613d065760008415613cf4578287015190505b613cfe8582613c80565b865550613d66565b601f198416613d1486613af0565b60005b82811015613d3c57848901518255600182019150602085019450602081019050613d17565b86831015613d595784890151613d55601f891682613c62565b8355505b6001600288020188555050505b505050505050565b600081549050613d7d816139b6565b9050919050565b818103613d92575050613e6a565b613d9b82613d6e565b67ffffffffffffffff811115613db457613db3613542565b5b613dbe82546139b6565b613dc9828285613c0f565b6000601f831160018114613df85760008415613de6578287015490505b613df08582613c80565b865550613e63565b601f198416613e0687613af0565b9650613e1186613af0565b60005b82811015613e3957848901548255600182019150600185019450602081019050613e14565b86831015613e565784890154613e52601f891682613c62565b8355505b6001600288020188555050505b5050505050505b565b60008154613e79816139b6565b613e838186613422565b94506001821660008114613e9e5760018114613eb457613ee7565b60ff198316865281151560200286019350613ee7565b613ebd85613af0565b60005b83811015613edf57815481890152600182019150602081019050613ec0565b808801955050505b50505092915050565b600060a0820190508181036000830152613f0a8188613e6c565b9050613f1960208301876133b1565b613f2660408301866133b1565b613f336060830185613408565b613f4060808301846133b1565b9695505050505050565b7f4275796572207769746820746869732077616c6c657420646f6573206e6f742060008201527f6578697374732120000000000000000000000000000000000000000000000000602082015250565b6000613fa6602883613422565b9150613fb182613f4a565b604082019050919050565b60006020820190508181036000830152613fd581613f99565b9050919050565b7f54786e20494420696e207468652073656c6c657220646f6573206e6f7420657860008201527f6973747321200000000000000000000000000000000000000000000000000000602082015250565b6000614038602683613422565b915061404382613fdc565b604082019050919050565b600060208201905081810360008301526140678161402b565b9050919050565b7f5468697320627579657220646f6573206e6f7420657869737421000000000000600082015250565b60006140a4601a83613422565b91506140af8261406e565b602082019050919050565b600060208201905081810360008301526140d381614097565b9050919050565b7f427579657220646f6573206e6f7420686176652074686973207472616e73616360008201527f74696f6e20494421000000000000000000000000000000000000000000000000602082015250565b6000614136602883613422565b9150614141826140da565b604082019050919050565b6000602082019050818103600083015261416581614129565b9050919050565b7f427579657220616c72656164792072657669657765642074686973207472616e60008201527f73616374696f6e20494421000000000000000000000000000000000000000000602082015250565b60006141c8602b83613422565b91506141d38261416c565b604082019050919050565b600060208201905081810360008301526141f7816141bb565b9050919050565b60006142098261333b565b91506142148361333b565b925082820390508181111561422c5761422b613a79565b5b92915050565b7f4e487b7100000000000000000000000000000000000000000000000000000000600052601260045260246000fd5b600061426c8261333b565b91506142778361333b565b92508261428757614286614232565b5b828204905092915050565b600061429d8261333b565b9150600082036142b0576142af613a79565b5b600182039050919050565b600060e0820190506142d0600083018a6133b1565b6142dd6020830189613408565b6142ea6040830188613408565b6142f760608301876133b1565b61430460808301866133b1565b61431160a08301856133b1565b61431e60c08301846133b1565b98975050505050505050565b7f53656c6c6572207769746820746869732077616c6c657420616c72656164792060008201527f6578697374732100000000000000000000000000000000000000000000000000602082015250565b6000614386602783613422565b91506143918261432a565b604082019050919050565b600060208201905081810360008301526143b581614379565b9050919050565b600060608201905081810360008301526143d68186613e6c565b90506143e56020830185613408565b6143f260408301846133b1565b949350505050565b7f50726f64756374494420696e207468652073656c6c657220646f6573206e6f7460008201527f2065786973747321200000000000000000000000000000000000000000000000602082015250565b6000614456602983613422565b9150614461826143fa565b604082019050919050565b6000602082019050818103600083015261448581614449565b9050919050565b7f4275796572207769746820746869732077616c6c657420616c7265616479206560008201527f7869737473210000000000000000000000000000000000000000000000000000602082015250565b60006144e8602683613422565b91506144f38261448c565b604082019050919050565b60006020820190508181036000830152614517816144db565b9050919050565b600060808201905081810360008301526145388187613e6c565b90506145476020830186613408565b61455460408301856133b1565b61456160608301846133b1565b95945050505050565b7f5468652050726f6475637420646f6573206e6f74206578697374210000000000600082015250565b60006145a0601b83613422565b91506145ab8261456a565b602082019050919050565b600060208201905081810360008301526145cf81614593565b9050919050565b7f457468657273206e6f7420656e6f7567682f746f6f206d75636820746f20627560008201527f79207468652070726f6475637421000000000000000000000000000000000000602082015250565b6000614632602e83613422565b915061463d826145d6565b604082019050919050565b6000602082019050818103600083015261466181614625565b9050919050565b600081905092915050565b50565b6000614683600083614668565b915061468e82614673565b600082019050919050565b60006146a482614676565b9150819050919050565b7f4661696c656420746f2073656e64206574686572000000000000000000000000600082015250565b60006146e4601483613422565b91506146ef826146ae565b602082019050919050565b60006020820190508181036000830152614713816146d7565b9050919050565b60006147258261333b565b91506147308361333b565b925082820190508082111561474857614747613a79565b5b92915050565b600060a08201905061476360008301886133b1565b61477060208301876133b1565b61477d6040830186613408565b61478a6060830185613408565b61479760808301846133b1565b9695505050505050565b600060e0820190506147b6600083018a6133b1565b6147c360208301896133b1565b6147d060408301886133b1565b6147dd60608301876133b1565b6147ea60808301866133b1565b6147f760a08301856133b1565b61480460c08301846133b1565b98975050505050505050565b60008151905061481f81613345565b92915050565b60006020828403121561483b5761483a6132d3565b5b600061484984828501614810565b91505092915050565b600060808201905061486760008301876133b1565b61487460208301866133b1565b61488160408301856133b1565b61488e60608301846133b1565b95945050505050565b600060a0820190506148ac60008301886133b1565b6148b960208301876133b1565b6148c660408301866133b1565b6148d360608301856133b1565b6148e060808301846133b1565b969550505050505056fea264697066735822122068db678c60c1713bfbc9f57bc758132f2d3dd4b0cd12923113fd862ecc131dbd64736f6c63430008150033608060405234801561001057600080fd5b50611535806100206000396000f3fe608060405234801561001057600080fd5b50600436106101005760003560e01c80637081c39c11610097578063b67d77c511610066578063b67d77c514610345578063b71d55d614610375578063c8a4ac9c146103a5578063fd57aafa146103d557610100565b80637081c39c14610285578063771602f7146102b557806397d67bff146102e5578063a391c15b1461031557610100565b806339288c9b116100d357806339288c9b146101c557806339cd63eb146101f557806348590bf114610225578063677342ce1461025557610100565b806302345e051461010557806303d0cea014610135578063071490b3146101655780632862b2e214610195575b600080fd5b61011f600480360381019061011a9190611105565b610405565b60405161012c9190611154565b60405180910390f35b61014f600480360381019061014a919061116f565b610440565b60405161015c9190611154565b60405180910390f35b61017f600480360381019061017a919061119c565b610457565b60405161018c9190611154565b60405180910390f35b6101af60048036038101906101aa9190611105565b61057a565b6040516101bc9190611154565b60405180910390f35b6101df60048036038101906101da9190611203565b6105a2565b6040516101ec9190611154565b60405180910390f35b61020f600480360381019061020a91906112a5565b6106ec565b60405161021c9190611154565b60405180910390f35b61023f600480360381019061023a91906112f8565b61071c565b60405161024c9190611154565b60405180910390f35b61026f600480360381019061026a919061116f565b610778565b60405161027c9190611154565b60405180910390f35b61029f600480360381019061029a919061119c565b61078a565b6040516102ac9190611154565b60405180910390f35b6102cf60048036038101906102ca9190611105565b610875565b6040516102dc9190611154565b60405180910390f35b6102ff60048036038101906102fa919061119c565b61089f565b60405161030c9190611154565b60405180910390f35b61032f600480360381019061032a9190611105565b6108f0565b60405161033c9190611154565b60405180910390f35b61035f600480360381019061035a9190611105565b61090d565b60405161036c9190611154565b60405180910390f35b61038f600480360381019061038a91906112f8565b610937565b60405161039c9190611154565b60405180910390f35b6103bf60048036038101906103ba9190611105565b610a19565b6040516103cc9190611154565b60405180910390f35b6103ef60048036038101906103ea9190611105565b610a36565b6040516103fc9190611154565b60405180910390f35b60008061041a83670de0b6b3a76400006108f0565b90506104376104298286610a19565b678ac7230489e800006108f0565b91505092915050565b60008082905061044f81610a7f565b915050919050565b600082850361047b57670de0b6b3a76400008461047491906113a2565b9050610572565b828511156104fa5760006104a0610492878661090d565b671bc16d674ec8000061057a565b905060006104b66104b18386610875565b610778565b905060006104cd6104c7898861090d565b836108f0565b905060006104e382670de0b6b3a7640000610875565b90506104ef8189610a19565b945050505050610572565b8285101561057157600061051f610511858861090d565b671bc16d674ec8000061057a565b905060006105356105308386610875565b610778565b9050600061054c610546878a61090d565b836108f0565b9050600061055a8289610a19565b9050610566888261090d565b945050505050610572565b5b949350505050565b60008083905060008390506105988183610cdb90919063ffffffff16565b9250505092915050565b600081851061064857600061062b6105e1670de0b6b3a76400008a6105c791906113a2565b8b670de0b6b3a7640000896105dc91906113a2565b6106ec565b610626670de0b6b3a7640000896105f891906113a2565b8c670de0b6b3a76400008861060d91906113a2565b670de0b6b3a76400008a61062191906113a2565b61078a565b610875565b90506106408161063b898c610a36565b610875565b9150506106e1565b600061068d61067e670de0b6b3a76400008a61066491906113a2565b8b670de0b6b3a76400008961067991906113a2565b6106ec565b610688898c610a36565b610875565b90506106dd816106d8670de0b6b3a7640000896106aa91906113a2565b8c670de0b6b3a7640000886106bf91906113a2565b670de0b6b3a76400008a6106d391906113a2565b61078a565b61090d565b9150505b979650505050505050565b600061071361070d6107078468056bc75e2d631000006108f0565b8661057a565b84610a19565b90509392505050565b600061076d86610768670de0b6b3a76400008561073991906113a2565b670de0b6b3a76400008861074d91906113a2565b670de0b6b3a76400008861076191906113a2565b8a8c610937565b610875565b905095945050505050565b600061078382610d14565b9050919050565b600082850361079c576000905061086d565b828511156108045760006107c16107b3878661090d565b671bc16d674ec8000061057a565b905060006107d76107d28386610875565b610778565b905060006107ee6107e8898861090d565b836108f0565b90506107fa8188610a19565b935050505061086d565b8483111561086c57600061082961081b858861090d565b671bc16d674ec8000061057a565b9050600061083f61083a8386610875565b610778565b90506000610856610850878a61090d565b836108f0565b90506108628188610a19565b935050505061086d565b5b949350505050565b600061088a8284610d8a90919063ffffffff16565b90508281101561089957600080fd5b92915050565b60006108e682670de0b6b3a7640000876108b991906113a2565b670de0b6b3a7640000876108cd91906113a2565b670de0b6b3a7640000876108e191906113a2565b610457565b9050949350505050565b60006109058284610d9790919063ffffffff16565b905092915050565b60008282111561091c57600080fd5b61092f8284610ddc90919063ffffffff16565b905092915050565b6000838511156109a257600061094d868661090d565b9050600061095b88836108f0565b9050600061098c61097d61097784670de0b6b3a7640000610875565b88610a19565b683635c9adc5dea000006108f0565b90506109988186610a19565b9350505050610a10565b83851015610a0b5760006109b6858761090d565b905060006109c488836108f0565b905060006109f56109e66109e084670de0b6b3a7640000610875565b88610a19565b683635c9adc5dea000006108f0565b9050610a018186610a19565b9350505050610a10565b600090505b95945050505050565b6000610a2e8284610de990919063ffffffff16565b905092915050565b600080610a4b84670de0b6b3a76400006108f0565b9050610a5f81670de0b6b3a7640000610875565b9050610a6a81610440565b9150610a768284610a19565b91505092915050565b6000816fffffffffffffffffffffffffffffffff1060071b905081811c67ffffffffffffffff1060061b8117905081811c63ffffffff1060051b8117905081811c61ffff1060041b8117905081811c60ff1060031b8117905060008213610aee57631615e6386000526004601cfd5b7ff8f9f9faf9fdfafbf9fdfcfdfafbfcfef9fafdfafcfcfbfefafafcfbffffffff6f8421084210842108cc6318c6db6d54be83831c1c601f161a8118905081811b609f1c91506c8c3f38e95a6b1ff2ab1c3b3437828384856c29508e458543d8aa4df2abee78010260601d6d0139601a2efabe717e604cbb4894010260601d6d02247f7a7b6594320649aa03aba1010260601d036d02384773bdf1ac5676facced609183820260601d0390506cb9a025d814b29c212b8b1a07ce83820260601d0390506c0a09507084cc699bb0e71ea86a60601b838202039050826c465772b2bbbb5f824b15207a300180840260601d6d0388eaa27412d5aca026815d636e01905080840260601d6d0df99ac502031bf953eff472fdcc01905080840260601d6d13cdffb29d51d99322bdff5f221101905080840260601d6d0a0f742023def783a307a986912e01905080840260601d6d01920d8043ca89b5239253284e4201905080840260601d6c0b7a86d7375468fac667a0a527019050808205915081711340daa0d5f769dba1915cef59f0815a55060291508183609f037d0267a36c0c95b3975ab3ee5b203a7614a3f75373f047d803ae7b6687f2b302019150817d57115e47018c7177eebf7cd370a3356a1b7863008a5ae8028c72b88642840191508160ae1d92505050919050565b6000610d0c670de0b6b3a764000083610cf386610a7f565b610cfd91906113ee565b610d079190611495565b610e1c565b905092915050565b6000633b9aca00905060016ec097ce7bc90715b34b9f10000000007fffffffffffffffffffffffffffffffffffffffffffffffffffffffffffffffff81610d5e57610d5d611466565b5b04038211610d7857670de0b6b3a764000082029150600190505b610d818261100c565b81029050919050565b6000818301905092915050565b6000670de0b6b3a7640000600019048311670de0b6b3a764000002158202610dc757637c5f487d6000526004601cfd5b81670de0b6b3a7640000840204905092915050565b6000818303905092915050565b600081600019048311820215610e075763bac65e5b6000526004601cfd5b670de0b6b3a764000082840204905092915050565b60007ffffffffffffffffffffffffffffffffffffffffffffffffdc0d0570925a462d782131561100757680755bf798b4a1bf1e58212610e645763a37bfec96000526004601cfd5b6503782dace9d9604e83901b81610e7e57610e7d611466565b5b059150600060606b8000000000000000000000006bb17217f7d1cf79abc9e3b398606086901b81610eb257610eb1611466565b5b0501901d90506bb17217f7d1cf79abc9e3b39881028303925060006c10fe68e7fd37d0007b713f7650840190506d02d16720577bd19bf614176fe9ea6060858302901d01905060006d04a4fd9f2a8b96949216d2255a6c8583010390506e0587f503bb6ea29d25fcb7401964506060838302901d01905079d835ebba824c98fb31b83b2ca45c00000000000000000000000085820201905060006c240c330e9fb2d9cbaf0fd5aafc860390506d0277594991cfc85f6e2461837cd96060878302901d0190506d1a521255e34f6a5061b25ef1c9c46060878302901d0390506db1bbb201f443cf962f1a1d3db4a56060878302901d0190506e02c72388d9f74f51a9331fed693f156060878302901d0390506e05180bb14799ab47a8a8cb2a527d576060878302901d01905080820594508360c30374029d9dc38563c32e5c2f6dc192ee70ef65f9978af38602901c9450505050505b919050565b600060b590508170ffffffffffffffffffffffffffffffffff1060071b82811c68ffffffffffffffffff1060061b8117905082811c64ffffffffff1060051b8117905082811c62ffffff1060041b81179050818160011c1b91506201000083821c01820260121c9150818304820160011c9150818304820160011c9150818304820160011c9150818304820160011c9150818304820160011c9150818304820160011c9150818304820160011c915081828404108203915050919050565b600080fd5b6000819050919050565b6110e2816110cf565b81146110ed57600080fd5b50565b6000813590506110ff816110d9565b92915050565b6000806040838503121561111c5761111b6110ca565b5b600061112a858286016110f0565b925050602061113b858286016110f0565b9150509250929050565b61114e816110cf565b82525050565b60006020820190506111696000830184611145565b92915050565b600060208284031215611185576111846110ca565b5b6000611193848285016110f0565b91505092915050565b600080600080608085870312156111b6576111b56110ca565b5b60006111c4878288016110f0565b94505060206111d5878288016110f0565b93505060406111e6878288016110f0565b92505060606111f7878288016110f0565b91505092959194509250565b600080600080600080600060e0888a031215611222576112216110ca565b5b60006112308a828b016110f0565b97505060206112418a828b016110f0565b96505060406112528a828b016110f0565b95505060606112638a828b016110f0565b94505060806112748a828b016110f0565b93505060a06112858a828b016110f0565b92505060c06112968a828b016110f0565b91505092959891949750929550565b6000806000606084860312156112be576112bd6110ca565b5b60006112cc868287016110f0565b93505060206112dd868287016110f0565b92505060406112ee868287016110f0565b9150509250925092565b600080600080600060a08688031215611314576113136110ca565b5b6000611322888289016110f0565b9550506020611333888289016110f0565b9450506040611344888289016110f0565b9350506060611355888289016110f0565b9250506080611366888289016110f0565b9150509295509295909350565b7f4e487b7100000000000000000000000000000000000000000000000000000000600052601160045260246000fd5b60006113ad826110cf565b91506113b8836110cf565b92508282026113c6816110cf565b915082820484148315176113dd576113dc611373565b5b5092915050565b6000819050919050565b60006113f9826113e4565b9150611404836113e4565b9250828202611412816113e4565b91507f8000000000000000000000000000000000000000000000000000000000000000841460008412161561144a57611449611373565b5b828205841483151761145f5761145e611373565b5b5092915050565b7f4e487b7100000000000000000000000000000000000000000000000000000000600052601260045260246000fd5b60006114a0826113e4565b91506114ab836113e4565b9250826114bb576114ba611466565b5b600160000383147f8000000000000000000000000000000000000000000000000000000000000000831416156114f4576114f3611373565b5b82820590509291505056fea26469706673582212203314f3efac1e6766abe09de9c84200e701acee6a9ba14a36f7094b598cefdc6364736f6c63430008150033",
  "devdoc": {
    "kind": "dev",
    "methods": {},
    "version": 1
  },
  "userdoc": {
    "kind": "user",
    "methods": {},
    "version": 1
  },
  "storageLayout": {
    "storage": [
      {
        "astId": 921,
        "contract": "Contracts/Store.sol:Store",
        "label": "totalSellers",
        "offset": 0,
        "slot": "0",
        "type": "t_uint256"
      },
      {
        "astId": 924,
        "contract": "Contracts/Store.sol:Store",
        "label": "totalBuyers",
        "offset": 0,
        "slot": "1",
        "type": "t_uint256"
      },
      {
        "astId": 957,
        "contract": "Contracts/Store.sol:Store",
        "label": "MathLib",
        "offset": 0,
        "slot": "2",
        "type": "t_contract(Math)915"
      },
      {
        "astId": 959,
        "contract": "Contracts/Store.sol:Store",
        "label": "MathLibAddress",
        "offset": 0,
        "slot": "3",
        "type": "t_address"
      },
      {
        "astId": 1042,
        "contract": "Contracts/Store.sol:Store",
        "label": "sellersList",
        "offset": 0,
        "slot": "4",
        "type": "t_mapping(t_address,t_struct(Seller)1013_storage)"
      },
      {
        "astId": 1047,
        "contract": "Contracts/Store.sol:Store",
        "label": "buyersList",
        "offset": 0,
        "slot": "5",
        "type": "t_mapping(t_address,t_struct(Buyer)1037_storage)"
      }
    ],
    "types": {
      "t_address": {
        "encoding": "inplace",
        "label": "address",
        "numberOfBytes": "20"
      },
      "t_bool": {
        "encoding": "inplace",
        "label": "bool",
        "numberOfBytes": "1"
      },
      "t_contract(Math)915": {
        "encoding": "inplace",
        "label": "contract Math",
        "numberOfBytes": "20"
      },
      "t_mapping(t_address,t_struct(Buyer)1037_storage)": {
        "encoding": "mapping",
        "key": "t_address",
        "label": "mapping(address => struct Store.Buyer)",
        "numberOfBytes": "32",
        "value": "t_struct(Buyer)1037_storage"
      },
      "t_mapping(t_address,t_struct(Seller)1013_storage)": {
        "encoding": "mapping",
        "key": "t_address",
        "label": "mapping(address => struct Store.Seller)",
        "numberOfBytes": "32",
        "value": "t_struct(Seller)1013_storage"
      },
      "t_mapping(t_uint256,t_struct(Product)978_storage)": {
        "encoding": "mapping",
        "key": "t_uint256",
        "label": "mapping(uint256 => struct Store.Product)",
        "numberOfBytes": "32",
        "value": "t_struct(Product)978_storage"
      },
      "t_mapping(t_uint256,t_struct(Transaction)993_storage)": {
        "encoding": "mapping",
        "key": "t_uint256",
        "label": "mapping(uint256 => struct Store.Transaction)",
        "numberOfBytes": "32",
        "value": "t_struct(Transaction)993_storage"
      },
      "t_string_storage": {
        "encoding": "bytes",
        "label": "string",
        "numberOfBytes": "32"
      },
      "t_struct(Buyer)1037_storage": {
        "encoding": "inplace",
        "label": "struct Store.Buyer",
        "members": [
          {
            "astId": 1015,
            "contract": "Contracts/Store.sol:Store",
            "label": "buyerAddress",
            "offset": 0,
            "slot": "0",
            "type": "t_address"
          },
          {
            "astId": 1017,
            "contract": "Contracts/Store.sol:Store",
            "label": "buyerName",
            "offset": 0,
            "slot": "1",
            "type": "t_string_storage"
          },
          {
            "astId": 1019,
            "contract": "Contracts/Store.sol:Store",
            "label": "buyerID",
            "offset": 0,
            "slot": "2",
            "type": "t_uint256"
          },
          {
            "astId": 1021,
            "contract": "Contracts/Store.sol:Store",
            "label": "isExist",
            "offset": 0,
            "slot": "3",
            "type": "t_bool"
          },
          {
            "astId": 1026,
            "contract": "Contracts/Store.sol:Store",
            "label": "txnMade",
            "offset": 0,
            "slot": "4",
            "type": "t_mapping(t_uint256,t_struct(Transaction)993_storage)"
          },
          {
            "astId": 1028,
            "contract": "Contracts/Store.sol:Store",
            "label": "numOfTxn",
            "offset": 0,
            "slot": "5",
            "type": "t_uint256"
          },
          {
            "astId": 1030,
            "contract": "Contracts/Store.sol:Store",
            "label": "numOfReviewsGiven",
            "offset": 0,
            "slot": "6",
            "type": "t_uint256"
          },
          {
            "astId": 1032,
            "contract": "Contracts/Store.sol:Store",
            "label": "lastReviewTime",
            "offset": 0,
            "slot": "7",
            "type": "t_uint256"
          },
          {
            "astId": 1034,
            "contract": "Contracts/Store.sol:Store",
            "label": "repScore",
            "offset": 0,
            "slot": "8",
            "type": "t_uint256"
          },
          {
            "astId": 1036,
            "contract": "Contracts/Store.sol:Store",
            "label": "X_Value",
            "offset": 0,
            "slot": "9",
            "type": "t_uint256"
          }
        ],
        "numberOfBytes": "320"
      },
      "t_struct(Product)978_storage": {
        "encoding": "inplace",
        "label": "struct Store.Product",
        "members": [
          {
            "astId": 961,
            "contract": "Contracts/Store.sol:Store",
            "label": "productID",
            "offset": 0,
            "slot": "0",
            "type": "t_uint256"
          },
          {
            "astId": 963,
            "contract": "Contracts/Store.sol:Store",
            "label": "productName",
            "offset": 0,
            "slot": "1",
            "type": "t_string_storage"
          },
          {
            "astId": 965,
            "contract": "Contracts/Store.sol:Store",
            "label": "sellerAddress",
            "offset": 0,
            "slot": "2",
            "type": "t_address"
          },
          {
            "astId": 967,
            "contract": "Contracts/Store.sol:Store",
            "label": "productPrice",
            "offset": 0,
            "slot": "3",
            "type": "t_uint256"
          },
          {
            "astId": 969,
            "contract": "Contracts/Store.sol:Store",
            "label": "totalSold",
            "offset": 0,
            "slot": "4",
            "type": "t_uint256"
          },
          {
            "astId": 971,
            "contract": "Contracts/Store.sol:Store",
            "label": "isExist",
            "offset": 0,
            "slot": "5",
            "type": "t_bool"
          },
          {
            "astId": 973,
            "contract": "Contracts/Store.sol:Store",
            "label": "numOfReviewsGiven",
            "offset": 0,
            "slot": "6",
            "type": "t_uint256"
          },
          {
            "astId": 975,
            "contract": "Contracts/Store.sol:Store",
            "label": "review",
            "offset": 0,
            "slot": "7",
            "type": "t_uint256"
          },
          {
            "astId": 977,
            "contract": "Contracts/Store.sol:Store",
            "label": "X_Value",
            "offset": 0,
            "slot": "8",
            "type": "t_uint256"
          }
        ],
        "numberOfBytes": "288"
      },
      "t_struct(Seller)1013_storage": {
        "encoding": "inplace",
        "label": "struct Store.Seller",
        "members": [
          {
            "astId": 995,
            "contract": "Contracts/Store.sol:Store",
            "label": "sellerAddress",
            "offset": 0,
            "slot": "0",
            "type": "t_address"
          },
          {
            "astId": 997,
            "contract": "Contracts/Store.sol:Store",
            "label": "sellerName",
            "offset": 0,
            "slot": "1",
            "type": "t_string_storage"
          },
          {
            "astId": 999,
            "contract": "Contracts/Store.sol:Store",
            "label": "sellerID",
            "offset": 0,
            "slot": "2",
            "type": "t_uint256"
          },
          {
            "astId": 1001,
            "contract": "Contracts/Store.sol:Store",
            "label": "isExist",
            "offset": 0,
            "slot": "3",
            "type": "t_bool"
          },
          {
            "astId": 1006,
            "contract": "Contracts/Store.sol:Store",
            "label": "sellerProducts",
            "offset": 0,
            "slot": "4",
            "type": "t_mapping(t_uint256,t_struct(Product)978_storage)"
          },
          {
            "astId": 1008,
            "contract": "Contracts/Store.sol:Store",
            "label": "totalProducts",
            "offset": 0,
            "slot": "5",
            "type": "t_uint256"
          },
          {
            "astId": 1010,
            "contract": "Contracts/Store.sol:Store",
            "label": "totalRevenue",
            "offset": 0,
            "slot": "6",
            "type": "t_uint256"
          },
          {
            "astId": 1012,
            "contract": "Contracts/Store.sol:Store",
            "label": "numOfSales",
            "offset": 0,
            "slot": "7",
            "type": "t_uint256"
          }
        ],
        "numberOfBytes": "256"
      },
      "t_struct(Transaction)993_storage": {
        "encoding": "inplace",
        "label": "struct Store.Transaction",
        "members": [
          {
            "astId": 980,
            "contract": "Contracts/Store.sol:Store",
            "label": "txnID",
            "offset": 0,
            "slot": "0",
            "type": "t_uint256"
          },
          {
            "astId": 982,
            "contract": "Contracts/Store.sol:Store",
            "label": "timeStampBought",
            "offset": 0,
            "slot": "1",
            "type": "t_uint256"
          },
          {
            "astId": 984,
            "contract": "Contracts/Store.sol:Store",
            "label": "timeStampReviewed",
            "offset": 0,
            "slot": "2",
            "type": "t_uint256"
          },
          {
            "astId": 986,
            "contract": "Contracts/Store.sol:Store",
            "label": "purchasedProductID",
            "offset": 0,
            "slot": "3",
            "type": "t_uint256"
          },
          {
            "astId": 988,
            "contract": "Contracts/Store.sol:Store",
            "label": "sellerAddress",
            "offset": 0,
            "slot": "4",
            "type": "t_address"
          },
          {
            "astId": 990,
            "contract": "Contracts/Store.sol:Store",
            "label": "reviewed",
            "offset": 20,
            "slot": "4",
            "type": "t_bool"
          },
          {
            "astId": 992,
            "contract": "Contracts/Store.sol:Store",
            "label": "isExist",
            "offset": 21,
            "slot": "4",
            "type": "t_bool"
          }
        ],
        "numberOfBytes": "160"
      },
      "t_uint256": {
        "encoding": "inplace",
        "label": "uint256",
        "numberOfBytes": "32"
      }
    }
  }
}